{
  "_format": "hh-sol-artifact-1",
  "contractName": "SequencedAMM",
  "sourceName": "contracts/SequencedAMM.sol",
  "abi": [
    {
      "inputs": [
        {
          "internalType": "address",
          "name": "initialOwner",
          "type": "address"
        },
        {
          "internalType": "address",
          "name": "tokenAddress",
          "type": "address"
        }
      ],
      "stateMutability": "nonpayable",
      "type": "constructor"
    },
    {
      "inputs": [
        {
          "internalType": "address",
          "name": "owner",
          "type": "address"
        }
      ],
      "name": "OwnableInvalidOwner",
      "type": "error"
    },
    {
      "inputs": [
        {
          "internalType": "address",
          "name": "account",
          "type": "address"
        }
      ],
      "name": "OwnableUnauthorizedAccount",
      "type": "error"
    },
    {
      "inputs": [],
      "name": "ReentrancyGuardReentrantCall",
      "type": "error"
    },
    {
      "anonymous": false,
      "inputs": [
        {
          "indexed": false,
          "internalType": "uint256",
          "name": "batchId",
          "type": "uint256"
        },
        {
          "indexed": false,
          "internalType": "bytes32",
          "name": "intentRoot",
          "type": "bytes32"
        },
        {
          "indexed": false,
          "internalType": "uint256",
          "name": "batchSize",
          "type": "uint256"
        }
      ],
      "name": "BatchCommitted",
      "type": "event"
    },
    {
      "anonymous": false,
      "inputs": [
        {
          "indexed": false,
          "internalType": "uint256",
          "name": "batchId",
          "type": "uint256"
        },
        {
          "indexed": false,
          "internalType": "uint256",
          "name": "swapCount",
          "type": "uint256"
        }
      ],
      "name": "BatchSwap",
      "type": "event"
    },
    {
      "anonymous": false,
      "inputs": [
        {
          "indexed": false,
          "internalType": "uint256",
          "name": "batchId",
          "type": "uint256"
        },
        {
          "indexed": false,
          "internalType": "uint256",
          "name": "swapCount",
          "type": "uint256"
        },
        {
          "indexed": false,
          "internalType": "uint256",
          "name": "successCount",
          "type": "uint256"
        }
      ],
      "name": "BatchSwapExecuted",
      "type": "event"
    },
    {
      "anonymous": false,
      "inputs": [
        {
          "indexed": true,
          "internalType": "address",
          "name": "user",
          "type": "address"
        },
        {
          "indexed": false,
          "internalType": "uint256",
          "name": "amount",
          "type": "uint256"
        },
        {
          "indexed": false,
          "internalType": "bool",
          "name": "isEth",
          "type": "bool"
        },
        {
          "indexed": false,
          "internalType": "uint256",
          "name": "timestamp",
          "type": "uint256"
        }
      ],
      "name": "Deposit",
      "type": "event"
    },
    {
      "anonymous": false,
      "inputs": [
        {
          "indexed": true,
          "internalType": "address",
          "name": "user",
          "type": "address"
        },
        {
          "indexed": false,
          "internalType": "uint256",
          "name": "amountIn",
          "type": "uint256"
        },
        {
          "indexed": false,
          "internalType": "uint256",
          "name": "amountOut",
          "type": "uint256"
        },
        {
          "indexed": false,
          "internalType": "bool",
          "name": "ethToToken",
          "type": "bool"
        }
      ],
      "name": "FallbackSwap",
      "type": "event"
    },
    {
      "anonymous": false,
      "inputs": [
        {
          "indexed": true,
          "internalType": "address",
          "name": "provider",
          "type": "address"
        },
        {
          "indexed": false,
          "internalType": "uint256",
          "name": "ethAmount",
          "type": "uint256"
        },
        {
          "indexed": false,
          "internalType": "uint256",
          "name": "tokenAmount",
          "type": "uint256"
        }
      ],
      "name": "LiquidityAdded",
      "type": "event"
    },
    {
      "anonymous": false,
      "inputs": [
        {
          "indexed": true,
          "internalType": "address",
          "name": "provider",
          "type": "address"
        },
        {
          "indexed": false,
          "internalType": "uint256",
          "name": "ethAmount",
          "type": "uint256"
        },
        {
          "indexed": false,
          "internalType": "uint256",
          "name": "tokenAmount",
          "type": "uint256"
        }
      ],
      "name": "LiquidityRemoved",
      "type": "event"
    },
    {
      "anonymous": false,
      "inputs": [
        {
          "indexed": true,
          "internalType": "address",
          "name": "previousOwner",
          "type": "address"
        },
        {
          "indexed": true,
          "internalType": "address",
          "name": "newOwner",
          "type": "address"
        }
      ],
      "name": "OwnershipTransferred",
      "type": "event"
    },
    {
      "anonymous": false,
      "inputs": [
        {
          "indexed": true,
          "internalType": "address",
          "name": "oldSequencer",
          "type": "address"
        },
        {
          "indexed": true,
          "internalType": "address",
          "name": "newSequencer",
          "type": "address"
        }
      ],
      "name": "SequencerChanged",
      "type": "event"
    },
    {
      "anonymous": false,
      "inputs": [
        {
          "indexed": false,
          "internalType": "bool",
          "name": "sequencerOnly",
          "type": "bool"
        }
      ],
      "name": "SequencerModeChanged",
      "type": "event"
    },
    {
      "anonymous": false,
      "inputs": [
        {
          "indexed": true,
          "internalType": "address",
          "name": "user",
          "type": "address"
        },
        {
          "indexed": false,
          "internalType": "uint256",
          "name": "amount",
          "type": "uint256"
        },
        {
          "indexed": false,
          "internalType": "bool",
          "name": "isEth",
          "type": "bool"
        }
      ],
      "name": "Withdrawal",
      "type": "event"
    },
    {
      "inputs": [],
      "name": "FEE_DENOMINATOR",
      "outputs": [
        {
          "internalType": "uint256",
          "name": "",
          "type": "uint256"
        }
      ],
      "stateMutability": "view",
      "type": "function"
    },
    {
      "inputs": [
        {
          "internalType": "uint256",
          "name": "ethAmount",
          "type": "uint256"
        },
        {
          "internalType": "uint256",
          "name": "tokenAmount",
          "type": "uint256"
        }
      ],
      "name": "addLiquidity",
      "outputs": [],
      "stateMutability": "nonpayable",
      "type": "function"
    },
    {
      "inputs": [
        {
          "internalType": "uint256",
          "name": "",
          "type": "uint256"
        }
      ],
      "name": "batchIntentRoots",
      "outputs": [
        {
          "internalType": "bytes32",
          "name": "",
          "type": "bytes32"
        }
      ],
      "stateMutability": "view",
      "type": "function"
    },
    {
      "inputs": [
        {
          "internalType": "uint256",
          "name": "",
          "type": "uint256"
        }
      ],
      "name": "batchResults",
      "outputs": [
        {
          "internalType": "uint256",
          "name": "successCount",
          "type": "uint256"
        }
      ],
      "stateMutability": "view",
      "type": "function"
    },
    {
      "inputs": [
        {
          "internalType": "uint256",
          "name": "",
          "type": "uint256"
        }
      ],
      "name": "batchSubmissionTimes",
      "outputs": [
        {
          "internalType": "uint256",
          "name": "",
          "type": "uint256"
        }
      ],
      "stateMutability": "view",
      "type": "function"
    },
    {
      "inputs": [
        {
          "internalType": "uint256",
          "name": "batchId",
          "type": "uint256"
        },
        {
          "internalType": "address[]",
          "name": "users",
          "type": "address[]"
        },
        {
          "internalType": "bool[]",
          "name": "ethToTokenFlags",
          "type": "bool[]"
        },
        {
          "internalType": "uint256[]",
          "name": "amountsIn",
          "type": "uint256[]"
        },
        {
          "internalType": "uint256[]",
          "name": "minAmountsOut",
          "type": "uint256[]"
        },
        {
          "internalType": "bytes32[][]",
          "name": "proofs",
          "type": "bytes32[][]"
        }
      ],
      "name": "batchSwap",
      "outputs": [],
      "stateMutability": "nonpayable",
      "type": "function"
    },
    {
      "inputs": [
        {
          "internalType": "bytes32",
          "name": "intentRoot",
          "type": "bytes32"
        },
        {
          "internalType": "uint256",
          "name": "batchSize",
          "type": "uint256"
        }
      ],
      "name": "commitBatchIntents",
      "outputs": [],
      "stateMutability": "nonpayable",
      "type": "function"
    },
    {
      "inputs": [],
      "name": "commitRevealDelay",
      "outputs": [
        {
          "internalType": "uint256",
          "name": "",
          "type": "uint256"
        }
      ],
      "stateMutability": "view",
      "type": "function"
    },
    {
      "inputs": [],
      "name": "depositETH",
      "outputs": [],
      "stateMutability": "payable",
      "type": "function"
    },
    {
      "inputs": [
        {
          "internalType": "uint256",
          "name": "amount",
          "type": "uint256"
        }
      ],
      "name": "depositToken",
      "outputs": [],
      "stateMutability": "nonpayable",
      "type": "function"
    },
    {
      "inputs": [],
      "name": "emergencyDisableSequencer",
      "outputs": [],
      "stateMutability": "nonpayable",
      "type": "function"
    },
    {
      "inputs": [
        {
          "internalType": "address",
          "name": "",
          "type": "address"
        }
      ],
      "name": "ethBalances",
      "outputs": [
        {
          "internalType": "uint256",
          "name": "",
          "type": "uint256"
        }
      ],
      "stateMutability": "view",
      "type": "function"
    },
    {
      "inputs": [],
      "name": "ethReserve",
      "outputs": [
        {
          "internalType": "uint256",
          "name": "",
          "type": "uint256"
        }
      ],
      "stateMutability": "view",
      "type": "function"
    },
    {
      "inputs": [
        {
          "internalType": "address",
          "name": "user",
          "type": "address"
        },
        {
          "internalType": "bool",
          "name": "ethToToken",
          "type": "bool"
        },
        {
          "internalType": "uint256",
          "name": "amountIn",
          "type": "uint256"
        },
        {
          "internalType": "uint256",
          "name": "minAmountOut",
          "type": "uint256"
        }
      ],
      "name": "executeSwap",
      "outputs": [
        {
          "internalType": "uint256",
          "name": "amountOut",
          "type": "uint256"
        }
      ],
      "stateMutability": "nonpayable",
      "type": "function"
    },
    {
      "inputs": [
        {
          "internalType": "bool",
          "name": "ethToToken",
          "type": "bool"
        },
        {
          "internalType": "uint256",
          "name": "amountIn",
          "type": "uint256"
        },
        {
          "internalType": "uint256",
          "name": "minAmountOut",
          "type": "uint256"
        }
      ],
      "name": "fallbackSwap",
      "outputs": [
        {
          "internalType": "uint256",
          "name": "amountOut",
          "type": "uint256"
        }
      ],
      "stateMutability": "nonpayable",
      "type": "function"
    },
    {
      "inputs": [],
      "name": "feeRate",
      "outputs": [
        {
          "internalType": "uint256",
          "name": "",
          "type": "uint256"
        }
      ],
      "stateMutability": "view",
      "type": "function"
    },
    {
      "inputs": [
        {
          "internalType": "bool",
          "name": "ethToToken",
          "type": "bool"
        },
        {
          "internalType": "uint256",
          "name": "amountIn",
          "type": "uint256"
        }
      ],
      "name": "getAmountOut",
      "outputs": [
        {
          "internalType": "uint256",
          "name": "",
          "type": "uint256"
        }
      ],
      "stateMutability": "view",
      "type": "function"
    },
    {
      "inputs": [
        {
          "internalType": "uint256",
          "name": "batchId",
          "type": "uint256"
        },
        {
          "internalType": "uint256",
          "name": "swapIndex",
          "type": "uint256"
        }
      ],
      "name": "getSwapResult",
      "outputs": [
        {
          "internalType": "bool",
          "name": "success",
          "type": "bool"
        },
        {
          "internalType": "string",
          "name": "failureReason",
          "type": "string"
        }
      ],
      "stateMutability": "view",
      "type": "function"
    },
    {
      "inputs": [],
      "name": "lastBatchTimestamp",
      "outputs": [
        {
          "internalType": "uint256",
          "name": "",
          "type": "uint256"
        }
      ],
      "stateMutability": "view",
      "type": "function"
    },
    {
      "inputs": [
        {
          "internalType": "address",
          "name": "",
          "type": "address"
        }
      ],
      "name": "liquidityShares",
      "outputs": [
        {
          "internalType": "uint256",
          "name": "",
          "type": "uint256"
        }
      ],
      "stateMutability": "view",
      "type": "function"
    },
    {
      "inputs": [],
      "name": "maxBatchDelay",
      "outputs": [
        {
          "internalType": "uint256",
          "name": "",
          "type": "uint256"
        }
      ],
      "stateMutability": "view",
      "type": "function"
    },
    {
      "inputs": [],
      "name": "nextBatchId",
      "outputs": [
        {
          "internalType": "uint256",
          "name": "",
          "type": "uint256"
        }
      ],
      "stateMutability": "view",
      "type": "function"
    },
    {
      "inputs": [],
      "name": "owner",
      "outputs": [
        {
          "internalType": "address",
          "name": "",
          "type": "address"
        }
      ],
      "stateMutability": "view",
      "type": "function"
    },
    {
      "inputs": [
        {
          "internalType": "uint256",
          "name": "shareAmount",
          "type": "uint256"
        }
      ],
      "name": "removeLiquidity",
      "outputs": [],
      "stateMutability": "nonpayable",
      "type": "function"
    },
    {
      "inputs": [],
      "name": "renounceOwnership",
      "outputs": [],
      "stateMutability": "nonpayable",
      "type": "function"
    },
    {
      "inputs": [],
      "name": "sequencer",
      "outputs": [
        {
          "internalType": "address",
          "name": "",
          "type": "address"
        }
      ],
      "stateMutability": "view",
      "type": "function"
    },
    {
      "inputs": [],
      "name": "sequencerOnly",
      "outputs": [
        {
          "internalType": "bool",
          "name": "",
          "type": "bool"
        }
      ],
      "stateMutability": "view",
      "type": "function"
    },
    {
      "inputs": [
        {
          "internalType": "uint256",
          "name": "_delay",
          "type": "uint256"
        }
      ],
      "name": "setCommitRevealDelay",
      "outputs": [],
      "stateMutability": "nonpayable",
      "type": "function"
    },
    {
      "inputs": [
        {
          "internalType": "uint256",
          "name": "_feeRate",
          "type": "uint256"
        }
      ],
      "name": "setFeeRate",
      "outputs": [],
      "stateMutability": "nonpayable",
      "type": "function"
    },
    {
      "inputs": [
        {
          "internalType": "address",
          "name": "newSequencer",
          "type": "address"
        }
      ],
      "name": "setSequencer",
      "outputs": [],
      "stateMutability": "nonpayable",
      "type": "function"
    },
    {
      "inputs": [
        {
          "internalType": "bool",
          "name": "_sequencerOnly",
          "type": "bool"
        }
      ],
      "name": "setSequencerOnly",
      "outputs": [],
      "stateMutability": "nonpayable",
      "type": "function"
    },
    {
      "inputs": [],
      "name": "token",
      "outputs": [
        {
          "internalType": "contract IERC20",
          "name": "",
          "type": "address"
        }
      ],
      "stateMutability": "view",
      "type": "function"
    },
    {
      "inputs": [
        {
          "internalType": "address",
          "name": "",
          "type": "address"
        }
      ],
      "name": "tokenBalances",
      "outputs": [
        {
          "internalType": "uint256",
          "name": "",
          "type": "uint256"
        }
      ],
      "stateMutability": "view",
      "type": "function"
    },
    {
      "inputs": [],
      "name": "tokenReserve",
      "outputs": [
        {
          "internalType": "uint256",
          "name": "",
          "type": "uint256"
        }
      ],
      "stateMutability": "view",
      "type": "function"
    },
    {
      "inputs": [],
      "name": "totalLiquidityShares",
      "outputs": [
        {
          "internalType": "uint256",
          "name": "",
          "type": "uint256"
        }
      ],
      "stateMutability": "view",
      "type": "function"
    },
    {
      "inputs": [
        {
          "internalType": "address",
          "name": "newOwner",
          "type": "address"
        }
      ],
      "name": "transferOwnership",
      "outputs": [],
      "stateMutability": "nonpayable",
      "type": "function"
    },
    {
      "inputs": [
        {
          "internalType": "uint256",
          "name": "batchId",
          "type": "uint256"
        },
        {
          "internalType": "address",
          "name": "user",
          "type": "address"
        },
        {
          "internalType": "bool",
          "name": "ethToToken",
          "type": "bool"
        },
        {
          "internalType": "uint256",
          "name": "amountIn",
          "type": "uint256"
        },
        {
          "internalType": "uint256",
          "name": "minAmountOut",
          "type": "uint256"
        },
        {
          "internalType": "bytes32[]",
          "name": "proof",
          "type": "bytes32[]"
        }
      ],
      "name": "verifySwapInclusion",
      "outputs": [
        {
          "internalType": "bool",
          "name": "",
          "type": "bool"
        }
      ],
      "stateMutability": "view",
      "type": "function"
    },
    {
      "inputs": [
        {
          "internalType": "uint256",
          "name": "amount",
          "type": "uint256"
        }
      ],
      "name": "withdrawETH",
      "outputs": [],
      "stateMutability": "nonpayable",
      "type": "function"
    },
    {
      "inputs": [
        {
          "internalType": "uint256",
          "name": "amount",
          "type": "uint256"
        }
      ],
      "name": "withdrawToken",
      "outputs": [],
      "stateMutability": "nonpayable",
      "type": "function"
    }
  ],
  "bytecode": "0x60803461011957601f61237838819003918201601f19168301916001600160401b0383118484101761011e57808492604094855283398101031261011957610052602061004b83610134565b9201610134565b6001600160a01b0390911690811561010357600080546001600160a01b031981168417825560405193916001600160a01b03909116907f8be0079c531659141344cd1fd0a4f28419497f9722a3daafe3b4186f6b6457e09080a360018080556002805460ff60a01b1916600160a01b17905561012c6003908155600a55600d5560b4600e55600780546001600160a01b0319166001600160a01b039290921691909117905561222f90816101498239f35b631e4fbdf760e01b600052600060045260246000fd5b600080fd5b634e487b7160e01b600052604160045260246000fd5b51906001600160a01b03821682036101195756fe608080604052600436101561001357600080fd5b60003560e01c90816317d6263f14611ce8575080632547fa3e14611c7f5780633cfba0e314611c4557806345596e2e14611be85780634db484e2146119c657806350baa622146118ef578063523fba7f146118b557806354cc3c74146118895780635c1bba38146118605780636215be77146117795780636868bab5146111005780636b27e2bb146110a0578063715018a61461104757806380a4f6df14610fb15780638290d9b814610f825780638462a7f814610f6457806387cd5b2014610f4657806388da2b2d14610f1a5780638da5cb5b14610ef15780639729cc0514610ed3578063978bbdb914610eb55780639c8f9f2314610d195780639cd441da14610aff5780639db4aa0414610ac5578063a03fd9c214610a11578063b0b9b66a146108db578063b7afe9be146108bd578063c13c0ea514610891578063c901510b14610829578063cb29fdc71461071a578063cbcb3171146106fc578063d5e1070814610464578063d62ccb3f14610446578063d73792a914610429578063e71bfdc01461040b578063f14210a6146102e5578063f2fde38b1461025c578063f6326fb3146101fa5763fc0c546a146101cc57600080fd5b346101f55760003660031901126101f5576007546040516001600160a01b039091168152602090f35b600080fd5b60003660031901126101f557336000526005602052604060002061021f348254611de2565b9055604051348152600160208201524260408201527ffa430e490a18c9d02a4c0bf501c1b5821a600e09249e983f8491c6575dd5e42060603392a2005b346101f55760203660031901126101f557610275611d0b565b61027d61215d565b6001600160a01b031680156102cf57600080546001600160a01b03198116831782556001600160a01b0316907f8be0079c531659141344cd1fd0a4f28419497f9722a3daafe3b4186f6b6457e09080a3005b631e4fbdf760e01b600052600060045260246000fd5b346101f55760203660031901126101f557600435610301612186565b33600052600560205261031b816040600020541015611e4f565b3360005260056020526040600020610334828254611dc2565b9055600080808084335af13d15610406573d6001600160401b0381116103f0576040519061036c601f8201601f191660200183611eb6565b8152600060203d92013e5b156103b557604051908152600160208201527f06e0c61e7e9f4912ee1f3ce060b59207b98f9a232d711462af3166aeeed1250a60403392a260018055005b60405162461bcd60e51b8152602060048201526013602482015272115512081d1c985b9cd9995c8819985a5b1959606a1b6044820152606490fd5b634e487b7160e01b600052604160045260246000fd5b610377565b346101f55760003660031901126101f5576020600e54604051908152f35b346101f55760003660031901126101f55760206040516103e88152f35b346101f55760003660031901126101f5576020600854604051908152f35b346101f55760603660031901126101f55761047d611d21565b60443560243561048b612186565b600060ff60025460a01c166106b75783156105cb57503360005260056020526104bb816040600020541015611e4f565b600a546103e8036103e881116105b5576104d59082611dcf565b926104e284600954611dcf565b93600854906103e88202918083046103e814901517156105b55760209561050f6105159261051e94611de2565b90611def565b93841015611e0f565b33600052600584526040600020610536838254611dc2565b905533600052600684526040600020610550848254611de2565b905561055e82600854611de2565b60085561056d83600954611dc2565b6009555b6040519182528284830152151560408201527faafe03bb75a5a17474aa34c7aa7923939142dcc00fad86ba2217a698e589053160603392a260018055604051908152f35b634e487b7160e01b600052601160045260246000fd5b9233845260066020526105e48260408620541015611d76565b600a546103e8036103e881116106a3576105fe9083611dcf565b61060a81600854611dcf565b94600954906103e88202918083046103e8149015171561068f575060209561050f6106389361051593611de2565b33600052600684526040600020610650838254611dc2565b90553360005260058452604060002061066a848254611de2565b905561067882600954611de2565b60095561068783600854611dc2565b600855610571565b634e487b7160e01b81526011600452602490fd5b634e487b7160e01b85526011600452602485fd5b60405162461bcd60e51b815260206004820152601860248201527f446972656374207377617073206e6f7420616c6c6f77656400000000000000006044820152606490fd5b346101f55760003660031901126101f5576020600954604051908152f35b346101f55760c03660031901126101f5576024356001600160a01b038116908190036101f5576044358015158091036101f55760a435906001600160401b0382116101f55760209261081a61077661081f943690600401611d30565b9290936040519161078683611e9b565b82528682015260643560408201526084356060820152600060808201526040516107fe816107f0898201948591909160808060a083019460018060a01b03815116845260208101511515602085015260408101516040850152606081015160608501520151910152565b03601f198101835282611eb6565b51902092600435600052600b8652604060002054923691611fb0565b6121a8565b6040519015158152f35b346101f55760203660031901126101f5577f33d081570f4871cfc13364650930f27efe5e1be344da69c94d4e75c06fa02f046020610865611d21565b61086d61215d565b151560025460ff60a01b8260a01b169060ff60a01b191617600255604051908152a1005b346101f55760203660031901126101f557600435600052600b6020526020604060002054604051908152f35b346101f55760003660031901126101f5576020600454604051908152f35b346101f5576108e936611d60565b90600052600f60205260026040600020826000526001810160205260ff60406000205416926000520160205260406000206040519081600082549261092d84612005565b80845293600181169081156109ef57506001146109a8575b5061095292500382611eb6565b6040519115158252604060208301528181519182604083015260005b8381106109905750508160006060809484010152601f80199101168101030190f35b6020828201810151606087840101528593500161096e565b90506000929192526020600020906000915b8183106109d35750509060206109529282010185610945565b60209193508060019154838588010152019101909183926109ba565b90506020925061095294915060ff191682840152151560051b82010185610945565b346101f55760003660031901126101f557610a3160045460035490611de2565b421115610a725760ff60a01b19600254166002557f33d081570f4871cfc13364650930f27efe5e1be344da69c94d4e75c06fa02f04602060405160008152a1005b60405162461bcd60e51b815260206004820152602560248201527f53657175656e636572206e6f7420636f6e7369646572656420696e616374697660448201526419481e595d60da1b6064820152608490fd5b346101f55760203660031901126101f5576001600160a01b03610ae6611d0b565b1660005260106020526020604060002054604051908152f35b346101f557610b0d36611d60565b610b15612186565b336000526005602052610b2f826040600020541015611e4f565b336000526006602052610b49816040600020541015611d76565b60115480610ca75750815b8015610c6f57610bd5903360005260056020526040600020610b77858254611dc2565b90553360005260066020526040600020610b92848254611dc2565b9055610ba084600854611de2565b600855610baf83600954611de2565b6009553360005260106020526040600020610bcb828254611de2565b9055601154611de2565b60115560405191825260208201527fac1d76749e5447b7b16f5ab61447e1bd502f3bb4807af3b28e620d1700a6ee4560403392a2600854151580610c64575b15610c1f5760018055005b60405162461bcd60e51b815260206004820152601760248201527f52657365727665732063616e6e6f74206265207a65726f0000000000000000006044820152606490fd5b506009541515610c14565b60405162461bcd60e51b815260206004820152601060248201526f139bc81cda185c995cc81b5a5b9d195960821b6044820152606490fd5b610cb360095484611dcf565b60085490610cc18285611dcf565b03610cdd57610cd3610cd89285611dcf565b611def565b610b54565b60405162461bcd60e51b8152602060048201526014602482015273556e62616c616e636564206c697175696469747960601b6044820152606490fd5b346101f55760203660031901126101f557600435610d35612186565b3360005260106020528060406000205410610e7a57610d5660085482611dcf565b90610d74610d676011548094611def565b92610cd360095484611dcf565b9082151580610e71575b15610e3857610daa903360005260106020526040600020610da0828254611dc2565b9055601154611dc2565b601155610db982600854611dc2565b600855610dc881600954611dc2565b6009553360005260056020526040600020610de4838254611de2565b90553360005260066020526040600020610dff828254611de2565b905560405191825260208201527f96cd817c6329656790ef8fba7675405193677d39619571282f5e21f3a98cd05960403392a260018055005b60405162461bcd60e51b8152602060048201526011602482015270105b5bdd5b9d1cc81d1bdbc81cdb585b1b607a1b6044820152606490fd5b50811515610d7e565b60405162461bcd60e51b8152602060048201526013602482015272496e73756666696369656e742073686172657360681b6044820152606490fd5b346101f55760003660031901126101f5576020600a54604051908152f35b346101f55760003660031901126101f5576020600354604051908152f35b346101f55760003660031901126101f5576000546040516001600160a01b039091168152602090f35b346101f55760203660031901126101f557600435600052600f6020526020604060002054604051908152f35b346101f55760003660031901126101f5576020601154604051908152f35b346101f55760003660031901126101f5576020600d54604051908152f35b346101f55760403660031901126101f5576020610fa9610fa0611d21565b602435906120db565b604051908152f35b346101f55760403660031901126101f557611042600435610fdd60018060a01b03600254163314611f33565b600d54600052600b60205280604060002055600d54600052600c602052426040600020557fd94095e772153bc53343941705b59e466d4e8aca1062afe01193089d27ff3a7f6060600d54926040519084825260208201526024356040820152a1612056565b600d55005b346101f55760003660031901126101f55761106061215d565b600080546001600160a01b0319811682556001600160a01b03167f8be0079c531659141344cd1fd0a4f28419497f9722a3daafe3b4186f6b6457e08280a3005b346101f55760203660031901126101f5576004356110bc61215d565b610e1081116110ca57600e55005b60405162461bcd60e51b815260206004820152600e60248201526d44656c617920746f6f206c6f6e6760901b6044820152606490fd5b346101f55760c03660031901126101f5576024356001600160401b0381116101f557611130903690600401611d30565b906044356001600160401b0381116101f557611150903690600401611d30565b91906064356001600160401b0381116101f557611171903690600401611d30565b6084356001600160401b0381116101f557611190903690600401611d30565b909160a4356001600160401b0381116101f5576111b1903690600401611d30565b9790966111c960018060a01b03600254163314611f33565b6111d1612186565b600435600052600c6020526111ee604060002054600e5490611de2565b421061173b57600435600052600b6020526040600020541561170057818a14806116f7575b806116ee575b806116e5575b156116a857600435600052600f60205260406000209860005b8b8110611283577fd4c22493e0aaec761df8f89beac249a28e68282a4c072c247156d6ce537618c960608d8d426004555460405191600435835260208301526040820152a160018055005b611296611291828e86611f7f565b611f8f565b6112a96112a483878d611f7f565b611fa3565b6112b483888c611f7f565b356112c0848a8c611f7f565b3591604051936112cf85611e9b565b6001600160a01b03168085529015156020808601918252604080870194855260608088019687526000608098890190815282519384019586529351151591830191909152935193810193909352925193820193909352905160a08201526113398160c081016107f0565b51902082821015611692578160051b8b0135601e198c3603018112156101f5578b016001600160401b038135116101f557803560051b360360208201136101f5578d916113a291600435600052600b60205261081a604060002054913690602081359101611fb0565b1561161657611291826113b59286611f7f565b6113c36112a483878d611f7f565b6113ce83888c611f7f565b356113da848a8c611f7f565b6040516326da427160e11b81526001600160a01b039094166004850152911515602484015260448301523560648201526020816084816000305af1906000826115e3575b50506115b6576001600060033d116115a8575b6308c379a014611456575b61144a576001905b01611238565b6040513d6000823e3d90fd5b61145e612065565b8061146a575b5061143c565b905060009082825260018d016020526040822060ff19815416905582825260028d0160205260408220908051906001600160401b0382116115945781906114b18454612005565b601f8111611559575b50602090601f83116001146114f65785926114eb575b50508160011b916000199060031b1c19161790555b8d611464565b0151905038806114d0565b8486528186209250601f198416865b8181106115415750908460019594939210611528575b505050811b0190556114e5565b015160001960f88460031b161c1916905538808061151b565b92936020600181928786015181550195019301611505565b6115849085875260208720601f850160051c8101916020861061158a575b601f0160051c019061203f565b386114ba565b9091508190611577565b634e487b7160e01b84526041600452602484fd5b600481803e5160e01c611431565b80600191600052818c0160205260406000208260ff198254161790556115dc8c54612056565b8c55611444565b6020823d821161160e575b816115fb60209383611eb6565b8101031261160b5750518e61141e565b80fd5b3d91506115ee565b5080600191600052818c01602052604060002060ff1981541690558060005260028c01602052604060002061164b8154612005565b601f8111611670575b50601a6c24b73b30b634b210383937b7b360991b019055611444565b61168c9082600052601f6020600020910160051c81019061203f565b8e611654565b634e487b7160e01b600052603260045260246000fd5b60405162461bcd60e51b8152602060048201526015602482015274082e4e4c2f240d8cadccee8d040dad2e6dac2e8c6d605b1b6044820152606490fd5b50888a1461121f565b50838a14611219565b50828a14611213565b60405162461bcd60e51b815260206004820152601360248201527210985d18da081b9bdd0818dbdb5b5a5d1d1959606a1b6044820152606490fd5b60405162461bcd60e51b8152602060048201526016602482015275135d5cdd081dd85a5d0818599d195c8818dbdb5b5a5d60521b6044820152606490fd5b346101f55760203660031901126101f5576004356000602060018060a01b03600754166064604051809481936323b872dd60e01b83523360048401523060248401528760448401525af1801561144a576117db91600091611831575b50611eef565b33600052600660205260406000206117f4828254611de2565b9055604051908152600060208201524260408201527ffa430e490a18c9d02a4c0bf501c1b5821a600e09249e983f8491c6575dd5e42060603392a2005b611853915060203d602011611859575b61184b8183611eb6565b810190611ed7565b836117d5565b503d611841565b346101f55760003660031901126101f5576002546040516001600160a01b039091168152602090f35b346101f55760203660031901126101f557600435600052600c6020526020604060002054604051908152f35b346101f55760203660031901126101f5576001600160a01b036118d6611d0b565b1660005260066020526020604060002054604051908152f35b346101f55760203660031901126101f55760043561190b612186565b336000526006602052611925816040600020541015611d76565b336000526006602052604060002061193e828254611dc2565b905560075460405163a9059cbb60e01b81523360048201526024810183905290602090829060449082906000906001600160a01b03165af1801561144a5761198d916000916118315750611eef565b604051908152600060208201527f06e0c61e7e9f4912ee1f3ce060b59207b98f9a232d711462af3166aeeed1250a60403392a260018055005b346101f55760803660031901126101f5576119df611d0b565b60243580151581036101f5576044359160643591303303611ba35715611ad7576001600160a01b0316600081815260056020526040902054611a2390841115611e4f565b600a546103e8036103e881116105b557611a3d9084611dcf565b92611a4a84600954611dcf565b916008546103e88102908082046103e814901517156105b557611a79611abd9461050f602098611a8294611de2565b94851015611e0f565b80600052600585526040600020611a9a838254611dc2565b9055600052600684526040600020611ab3848254611de2565b9055600854611de2565b600855611acc81600954611dc2565b600955604051908152f35b6001600160a01b0316600081815260066020526040902054611afb90841115611d76565b600a546103e8036103e881116105b557611b159084611dcf565b92611b2284600854611dcf565b916009546103e88102908082046103e814901517156105b557611a79611b8c9461050f602098611b5194611de2565b80600052600685526040600020611b69838254611dc2565b9055600052600584526040600020611b82848254611de2565b9055600954611de2565b600955611b9b81600854611dc2565b600855610fa9565b60405162461bcd60e51b815260206004820152601860248201527f4f6e6c792063616c6c61626c6520696e7465726e616c6c7900000000000000006044820152606490fd5b346101f55760203660031901126101f557600435611c0461215d565b60328111611c1157600a55005b60405162461bcd60e51b815260206004820152600c60248201526b08ccaca40e8dede40d0d2ced60a31b6044820152606490fd5b346101f55760203660031901126101f5576001600160a01b03611c66611d0b565b1660005260056020526020604060002054604051908152f35b346101f55760203660031901126101f557611c98611d0b565b611ca061215d565b6002546001600160a01b0391821691829082167f6ec88bae255aa7e73521c3beb17e9bc7940169e669440c5531733c0d2e91110d600080a36001600160a01b03191617600255005b346101f55760003660031901126101f55760209060ff60025460a01c1615158152f35b600435906001600160a01b03821682036101f557565b6004359081151582036101f557565b9181601f840112156101f5578235916001600160401b0383116101f5576020808501948460051b0101116101f557565b60409060031901126101f5576004359060243590565b15611d7d57565b60405162461bcd60e51b815260206004820152601a60248201527f496e73756666696369656e7420746f6b656e2062616c616e63650000000000006044820152606490fd5b919082039182116105b557565b818102929181159184041417156105b557565b919082018092116105b557565b8115611df9570490565b634e487b7160e01b600052601260045260246000fd5b15611e1657565b60405162461bcd60e51b81526020600482015260116024820152700a6d8d2e0e0c2ceca40e8dede40d0d2ced607b1b6044820152606490fd5b15611e5657565b60405162461bcd60e51b815260206004820152601860248201527f496e73756666696369656e74204554482062616c616e636500000000000000006044820152606490fd5b60a081019081106001600160401b038211176103f057604052565b90601f801991011681019081106001600160401b038211176103f057604052565b908160209103126101f5575180151581036101f55790565b15611ef657565b60405162461bcd60e51b8152602060048201526015602482015274151bdad95b881d1c985b9cd9995c8819985a5b1959605a1b6044820152606490fd5b15611f3a57565b60405162461bcd60e51b815260206004820152601760248201527f4f6e6c792073657175656e6365722063616e2063616c6c0000000000000000006044820152606490fd5b91908110156116925760051b0190565b356001600160a01b03811681036101f55790565b3580151581036101f55790565b929190926001600160401b0384116103f0578360051b906020604051611fd882850182611eb6565b80968152019181019283116101f557905b828210611ff557505050565b8135815260209182019101611fe9565b90600182811c92168015612035575b602083101461201f57565b634e487b7160e01b600052602260045260246000fd5b91607f1691612014565b81811061204a575050565b6000815560010161203f565b60001981146105b55760010190565b600060443d106120ca576040513d600319016004823e8051913d60248401116001600160401b038411176120d557828201928351916001600160401b0383116120cd573d840160031901858401602001116120cd57506120ca92910160200190611eb6565b90565b949350505050565b92915050565b90600a546103e8036103e881116105b5576120f591611dcf565b901561212c5761210781600954611dcf565b6008546103e88102908082046103e814901517156105b5576120ca9261050f91611de2565b61213881600854611dcf565b6009546103e88102908082046103e814901517156105b5576120ca9261050f91611de2565b6000546001600160a01b0316330361217157565b63118cdaa760e01b6000523360045260246000fd5b600260015414612197576002600155565b633ee5aeb560e01b60005260046000fd5b929091906000915b84518310156121f157604060019160009060208660051b89010151908181106000146121e5578252602052205b9201916121b0565b908252602052206121dd565b91509250149056fea2646970667358221220a6cc605f9f1362659e6477770d35cdb7f26172a8773ccf769b9e1f0eb0c0e03864736f6c634300081c0033",
  "linkReferences": {},
  "deployedLinkReferences": {}
}