{
    "_format": "hh-sol-artifact-1",
    "contractName": "TEEAMM",
    "sourceName": "contracts/TEEAMM.sol",
    "abi": [
        {
            "inputs": [
                {
                    "internalType": "address",
                    "name": "_sequencer",
                    "type": "address"
                },
                {
                    "internalType": "address",
                    "name": "_guardian",
                    "type": "address"
                },
                {
                    "internalType": "address",
                    "name": "_treasury",
                    "type": "address"
                },
                {
                    "internalType": "contract IWETH",
                    "name": "_weth",
                    "type": "address"
                },
                {
                    "internalType": "uint16",
                    "name": "_protocolBP",
                    "type": "uint16"
                }
            ],
            "stateMutability": "nonpayable",
            "type": "constructor"
        },
        {
            "inputs": [],
            "name": "ReentrancyGuardReentrantCall",
            "type": "error"
        },
        {
            "inputs": [
                {
                    "internalType": "address",
                    "name": "token",
                    "type": "address"
                }
            ],
            "name": "SafeERC20FailedOperation",
            "type": "error"
        },
        {
            "anonymous": false,
            "inputs": [
                {
                    "indexed": false,
                    "internalType": "uint256",
                    "name": "successCount",
                    "type": "uint256"
                },
                {
                    "indexed": false,
                    "internalType": "uint256",
                    "name": "failCount",
                    "type": "uint256"
                }
            ],
            "name": "BatchExecuted",
            "type": "event"
        },
        {
            "anonymous": false,
            "inputs": [
                {
                    "indexed": true,
                    "internalType": "address",
                    "name": "user",
                    "type": "address"
                },
                {
                    "indexed": true,
                    "internalType": "contract IERC20",
                    "name": "token",
                    "type": "address"
                },
                {
                    "indexed": false,
                    "internalType": "uint256",
                    "name": "amount",
                    "type": "uint256"
                }
            ],
            "name": "Deposit",
            "type": "event"
        },
        {
            "anonymous": false,
            "inputs": [
                {
                    "indexed": true,
                    "internalType": "address",
                    "name": "user",
                    "type": "address"
                },
                {
                    "indexed": false,
                    "internalType": "uint256",
                    "name": "amount",
                    "type": "uint256"
                }
            ],
            "name": "DepositETH",
            "type": "event"
        },
        {
            "anonymous": false,
            "inputs": [
                {
                    "indexed": true,
                    "internalType": "address",
                    "name": "lp",
                    "type": "address"
                },
                {
                    "indexed": true,
                    "internalType": "contract IERC20",
                    "name": "token0",
                    "type": "address"
                },
                {
                    "indexed": true,
                    "internalType": "contract IERC20",
                    "name": "token1",
                    "type": "address"
                },
                {
                    "indexed": false,
                    "internalType": "uint256",
                    "name": "amount0",
                    "type": "uint256"
                },
                {
                    "indexed": false,
                    "internalType": "uint256",
                    "name": "amount1",
                    "type": "uint256"
                },
                {
                    "indexed": false,
                    "internalType": "uint256",
                    "name": "shares",
                    "type": "uint256"
                }
            ],
            "name": "LiquidityAdded",
            "type": "event"
        },
        {
            "anonymous": false,
            "inputs": [
                {
                    "indexed": true,
                    "internalType": "address",
                    "name": "lp",
                    "type": "address"
                },
                {
                    "indexed": true,
                    "internalType": "contract IERC20",
                    "name": "token0",
                    "type": "address"
                },
                {
                    "indexed": true,
                    "internalType": "contract IERC20",
                    "name": "token1",
                    "type": "address"
                },
                {
                    "indexed": false,
                    "internalType": "uint256",
                    "name": "amount0",
                    "type": "uint256"
                },
                {
                    "indexed": false,
                    "internalType": "uint256",
                    "name": "amount1",
                    "type": "uint256"
                },
                {
                    "indexed": false,
                    "internalType": "uint256",
                    "name": "shares",
                    "type": "uint256"
                }
            ],
            "name": "LiquidityRemoved",
            "type": "event"
        },
        {
            "anonymous": false,
            "inputs": [
                {
                    "indexed": true,
                    "internalType": "contract IERC20",
                    "name": "token0",
                    "type": "address"
                },
                {
                    "indexed": true,
                    "internalType": "contract IERC20",
                    "name": "token1",
                    "type": "address"
                },
                {
                    "indexed": false,
                    "internalType": "bytes32",
                    "name": "poolKey",
                    "type": "bytes32"
                }
            ],
            "name": "PoolCreated",
            "type": "event"
        },
        {
            "anonymous": false,
            "inputs": [
                {
                    "indexed": false,
                    "internalType": "uint16",
                    "name": "newBP",
                    "type": "uint16"
                }
            ],
            "name": "ProtocolFeeUpdated",
            "type": "event"
        },
        {
            "anonymous": false,
            "inputs": [
                {
                    "indexed": true,
                    "internalType": "address",
                    "name": "treasury",
                    "type": "address"
                },
                {
                    "indexed": true,
                    "internalType": "contract IERC20",
                    "name": "token",
                    "type": "address"
                },
                {
                    "indexed": false,
                    "internalType": "uint256",
                    "name": "amount",
                    "type": "uint256"
                }
            ],
            "name": "RevenueClaimed",
            "type": "event"
        },
        {
            "anonymous": false,
            "inputs": [
                {
                    "indexed": true,
                    "internalType": "address",
                    "name": "user",
                    "type": "address"
                },
                {
                    "indexed": true,
                    "internalType": "contract IERC20",
                    "name": "tokenIn",
                    "type": "address"
                },
                {
                    "indexed": true,
                    "internalType": "contract IERC20",
                    "name": "tokenOut",
                    "type": "address"
                },
                {
                    "indexed": false,
                    "internalType": "uint256",
                    "name": "inAmt",
                    "type": "uint256"
                },
                {
                    "indexed": false,
                    "internalType": "uint256",
                    "name": "outAmt",
                    "type": "uint256"
                },
                {
                    "indexed": false,
                    "internalType": "bool",
                    "name": "directPayout",
                    "type": "bool"
                },
                {
                    "indexed": false,
                    "internalType": "uint64",
                    "name": "nonce",
                    "type": "uint64"
                },
                {
                    "indexed": false,
                    "internalType": "uint256",
                    "name": "fee",
                    "type": "uint256"
                }
            ],
            "name": "Swap",
            "type": "event"
        },
        {
            "anonymous": false,
            "inputs": [
                {
                    "indexed": true,
                    "internalType": "uint256",
                    "name": "idx",
                    "type": "uint256"
                },
                {
                    "indexed": true,
                    "internalType": "address",
                    "name": "user",
                    "type": "address"
                },
                {
                    "indexed": false,
                    "internalType": "enum TEEAMM.FailureReason",
                    "name": "reason",
                    "type": "uint8"
                }
            ],
            "name": "SwapFailed",
            "type": "event"
        },
        {
            "anonymous": false,
            "inputs": [
                {
                    "indexed": true,
                    "internalType": "address",
                    "name": "user",
                    "type": "address"
                },
                {
                    "indexed": true,
                    "internalType": "contract IERC20",
                    "name": "token",
                    "type": "address"
                },
                {
                    "indexed": false,
                    "internalType": "uint256",
                    "name": "amount",
                    "type": "uint256"
                }
            ],
            "name": "Withdraw",
            "type": "event"
        },
        {
            "anonymous": false,
            "inputs": [
                {
                    "indexed": true,
                    "internalType": "address",
                    "name": "user",
                    "type": "address"
                },
                {
                    "indexed": true,
                    "internalType": "contract IERC20",
                    "name": "token",
                    "type": "address"
                },
                {
                    "indexed": false,
                    "internalType": "uint256",
                    "name": "amount",
                    "type": "uint256"
                }
            ],
            "name": "WithdrawAll",
            "type": "event"
        },
        {
            "anonymous": false,
            "inputs": [
                {
                    "indexed": true,
                    "internalType": "address",
                    "name": "user",
                    "type": "address"
                },
                {
                    "indexed": false,
                    "internalType": "uint256",
                    "name": "amount",
                    "type": "uint256"
                }
            ],
            "name": "WithdrawETH",
            "type": "event"
        },
        {
            "inputs": [],
            "name": "BP_BASE",
            "outputs": [
                {
                    "internalType": "uint256",
                    "name": "",
                    "type": "uint256"
                }
            ],
            "stateMutability": "view",
            "type": "function"
        },
        {
            "inputs": [],
            "name": "MAX_BATCH",
            "outputs": [
                {
                    "internalType": "uint256",
                    "name": "",
                    "type": "uint256"
                }
            ],
            "stateMutability": "view",
            "type": "function"
        },
        {
            "inputs": [],
            "name": "MAX_PROTOCOL_BP",
            "outputs": [
                {
                    "internalType": "uint16",
                    "name": "",
                    "type": "uint16"
                }
            ],
            "stateMutability": "view",
            "type": "function"
        },
        {
            "inputs": [],
            "name": "WETH",
            "outputs": [
                {
                    "internalType": "contract IWETH",
                    "name": "",
                    "type": "address"
                }
            ],
            "stateMutability": "view",
            "type": "function"
        },
        {
            "inputs": [
                {
                    "internalType": "contract IERC20",
                    "name": "tokenA",
                    "type": "address"
                },
                {
                    "internalType": "contract IERC20",
                    "name": "tokenB",
                    "type": "address"
                },
                {
                    "internalType": "uint256",
                    "name": "amountA",
                    "type": "uint256"
                },
                {
                    "internalType": "uint256",
                    "name": "amountB",
                    "type": "uint256"
                },
                {
                    "internalType": "uint16",
                    "name": "feeBP",
                    "type": "uint16"
                }
            ],
            "name": "addLiquidity",
            "outputs": [
                {
                    "internalType": "uint256",
                    "name": "shares",
                    "type": "uint256"
                }
            ],
            "stateMutability": "nonpayable",
            "type": "function"
        },
        {
            "inputs": [
                {
                    "internalType": "address",
                    "name": "",
                    "type": "address"
                },
                {
                    "internalType": "contract IERC20",
                    "name": "",
                    "type": "address"
                }
            ],
            "name": "balances",
            "outputs": [
                {
                    "internalType": "uint256",
                    "name": "",
                    "type": "uint256"
                }
            ],
            "stateMutability": "view",
            "type": "function"
        },
        {
            "inputs": [
                {
                    "components": [
                        {
                            "internalType": "address",
                            "name": "user",
                            "type": "address"
                        },
                        {
                            "internalType": "contract IERC20",
                            "name": "tokenIn",
                            "type": "address"
                        },
                        {
                            "internalType": "contract IERC20",
                            "name": "tokenOut",
                            "type": "address"
                        },
                        {
                            "internalType": "uint128",
                            "name": "amountIn",
                            "type": "uint128"
                        },
                        {
                            "internalType": "uint128",
                            "name": "minOut",
                            "type": "uint128"
                        },
                        {
                            "internalType": "bool",
                            "name": "directPayout",
                            "type": "bool"
                        },
                        {
                            "internalType": "uint64",
                            "name": "nonce",
                            "type": "uint64"
                        },
                        {
                            "internalType": "uint64",
                            "name": "deadline",
                            "type": "uint64"
                        }
                    ],
                    "internalType": "struct TEEAMM.SwapIntent[]",
                    "name": "xs",
                    "type": "tuple[]"
                }
            ],
            "name": "batchSwap",
            "outputs": [],
            "stateMutability": "nonpayable",
            "type": "function"
        },
        {
            "inputs": [
                {
                    "internalType": "contract IERC20",
                    "name": "token",
                    "type": "address"
                }
            ],
            "name": "claimAllRevenue",
            "outputs": [],
            "stateMutability": "nonpayable",
            "type": "function"
        },
        {
            "inputs": [
                {
                    "internalType": "contract IERC20",
                    "name": "token",
                    "type": "address"
                },
                {
                    "internalType": "uint256",
                    "name": "amount",
                    "type": "uint256"
                }
            ],
            "name": "claimRevenue",
            "outputs": [],
            "stateMutability": "nonpayable",
            "type": "function"
        },
        {
            "inputs": [
                {
                    "internalType": "contract IERC20",
                    "name": "token",
                    "type": "address"
                },
                {
                    "internalType": "uint256",
                    "name": "amount",
                    "type": "uint256"
                }
            ],
            "name": "deposit",
            "outputs": [],
            "stateMutability": "nonpayable",
            "type": "function"
        },
        {
            "inputs": [],
            "name": "depositETH",
            "outputs": [],
            "stateMutability": "payable",
            "type": "function"
        },
        {
            "inputs": [
                {
                    "internalType": "contract IERC20",
                    "name": "token",
                    "type": "address"
                }
            ],
            "name": "getMyBalance",
            "outputs": [
                {
                    "internalType": "uint256",
                    "name": "",
                    "type": "uint256"
                }
            ],
            "stateMutability": "view",
            "type": "function"
        },
        {
            "inputs": [
                {
                    "internalType": "contract IERC20",
                    "name": "tokenA",
                    "type": "address"
                },
                {
                    "internalType": "contract IERC20",
                    "name": "tokenB",
                    "type": "address"
                }
            ],
            "name": "getMyLiquidity",
            "outputs": [
                {
                    "internalType": "uint256",
                    "name": "",
                    "type": "uint256"
                }
            ],
            "stateMutability": "view",
            "type": "function"
        },
        {
            "inputs": [],
            "name": "getMyNonce",
            "outputs": [
                {
                    "internalType": "uint64",
                    "name": "",
                    "type": "uint64"
                }
            ],
            "stateMutability": "view",
            "type": "function"
        },
        {
            "inputs": [
                {
                    "internalType": "uint256",
                    "name": "index",
                    "type": "uint256"
                }
            ],
            "name": "getPoolAtIndex",
            "outputs": [
                {
                    "internalType": "contract IERC20",
                    "name": "token0",
                    "type": "address"
                },
                {
                    "internalType": "contract IERC20",
                    "name": "token1",
                    "type": "address"
                },
                {
                    "internalType": "uint128",
                    "name": "reserve0",
                    "type": "uint128"
                },
                {
                    "internalType": "uint128",
                    "name": "reserve1",
                    "type": "uint128"
                },
                {
                    "internalType": "uint16",
                    "name": "feeBP",
                    "type": "uint16"
                },
                {
                    "internalType": "uint256",
                    "name": "totalShares",
                    "type": "uint256"
                }
            ],
            "stateMutability": "view",
            "type": "function"
        },
        {
            "inputs": [
                {
                    "internalType": "bytes32",
                    "name": "poolKey",
                    "type": "bytes32"
                }
            ],
            "name": "getPoolByKey",
            "outputs": [
                {
                    "internalType": "contract IERC20",
                    "name": "token0",
                    "type": "address"
                },
                {
                    "internalType": "contract IERC20",
                    "name": "token1",
                    "type": "address"
                },
                {
                    "internalType": "uint128",
                    "name": "reserve0",
                    "type": "uint128"
                },
                {
                    "internalType": "uint128",
                    "name": "reserve1",
                    "type": "uint128"
                },
                {
                    "internalType": "uint16",
                    "name": "feeBP",
                    "type": "uint16"
                },
                {
                    "internalType": "uint256",
                    "name": "totalShares",
                    "type": "uint256"
                }
            ],
            "stateMutability": "view",
            "type": "function"
        },
        {
            "inputs": [],
            "name": "getPoolCount",
            "outputs": [
                {
                    "internalType": "uint256",
                    "name": "",
                    "type": "uint256"
                }
            ],
            "stateMutability": "view",
            "type": "function"
        },
        {
            "inputs": [
                {
                    "internalType": "uint256",
                    "name": "index",
                    "type": "uint256"
                }
            ],
            "name": "getPoolKeyAtIndex",
            "outputs": [
                {
                    "internalType": "bytes32",
                    "name": "",
                    "type": "bytes32"
                }
            ],
            "stateMutability": "view",
            "type": "function"
        },
        {
            "inputs": [
                {
                    "internalType": "contract IERC20",
                    "name": "tokenA",
                    "type": "address"
                },
                {
                    "internalType": "contract IERC20",
                    "name": "tokenB",
                    "type": "address"
                }
            ],
            "name": "getReserves",
            "outputs": [
                {
                    "internalType": "uint128",
                    "name": "",
                    "type": "uint128"
                },
                {
                    "internalType": "uint128",
                    "name": "",
                    "type": "uint128"
                }
            ],
            "stateMutability": "view",
            "type": "function"
        },
        {
            "inputs": [],
            "name": "getSequencer",
            "outputs": [
                {
                    "internalType": "address",
                    "name": "",
                    "type": "address"
                }
            ],
            "stateMutability": "view",
            "type": "function"
        },
        {
            "inputs": [],
            "name": "guardian",
            "outputs": [
                {
                    "internalType": "address",
                    "name": "",
                    "type": "address"
                }
            ],
            "stateMutability": "view",
            "type": "function"
        },
        {
            "inputs": [],
            "name": "ping",
            "outputs": [
                {
                    "internalType": "string",
                    "name": "",
                    "type": "string"
                }
            ],
            "stateMutability": "pure",
            "type": "function"
        },
        {
            "inputs": [
                {
                    "internalType": "bytes32",
                    "name": "",
                    "type": "bytes32"
                }
            ],
            "name": "poolExists",
            "outputs": [
                {
                    "internalType": "bool",
                    "name": "",
                    "type": "bool"
                }
            ],
            "stateMutability": "view",
            "type": "function"
        },
        {
            "inputs": [
                {
                    "internalType": "uint256",
                    "name": "",
                    "type": "uint256"
                }
            ],
            "name": "poolList",
            "outputs": [
                {
                    "internalType": "bytes32",
                    "name": "",
                    "type": "bytes32"
                }
            ],
            "stateMutability": "view",
            "type": "function"
        },
        {
            "inputs": [],
            "name": "protocolFeeBP",
            "outputs": [
                {
                    "internalType": "uint16",
                    "name": "",
                    "type": "uint16"
                }
            ],
            "stateMutability": "view",
            "type": "function"
        },
        {
            "inputs": [
                {
                    "internalType": "contract IERC20",
                    "name": "tokenA",
                    "type": "address"
                },
                {
                    "internalType": "contract IERC20",
                    "name": "tokenB",
                    "type": "address"
                },
                {
                    "internalType": "uint256",
                    "name": "share",
                    "type": "uint256"
                },
                {
                    "internalType": "uint256",
                    "name": "minA",
                    "type": "uint256"
                },
                {
                    "internalType": "uint256",
                    "name": "minB",
                    "type": "uint256"
                }
            ],
            "name": "removeLiquidity",
            "outputs": [
                {
                    "internalType": "uint256",
                    "name": "amountA",
                    "type": "uint256"
                },
                {
                    "internalType": "uint256",
                    "name": "amountB",
                    "type": "uint256"
                }
            ],
            "stateMutability": "nonpayable",
            "type": "function"
        },
        {
            "inputs": [],
            "name": "sequencer",
            "outputs": [
                {
                    "internalType": "address",
                    "name": "",
                    "type": "address"
                }
            ],
            "stateMutability": "view",
            "type": "function"
        },
        {
            "inputs": [
                {
                    "internalType": "uint16",
                    "name": "newBP",
                    "type": "uint16"
                }
            ],
            "name": "setProtocolFeeBP",
            "outputs": [],
            "stateMutability": "nonpayable",
            "type": "function"
        },
        {
            "inputs": [],
            "name": "treasury",
            "outputs": [
                {
                    "internalType": "address",
                    "name": "",
                    "type": "address"
                }
            ],
            "stateMutability": "view",
            "type": "function"
        },
        {
            "inputs": [
                {
                    "internalType": "address",
                    "name": "",
                    "type": "address"
                }
            ],
            "name": "userNonce",
            "outputs": [
                {
                    "internalType": "uint64",
                    "name": "",
                    "type": "uint64"
                }
            ],
            "stateMutability": "view",
            "type": "function"
        },
        {
            "inputs": [
                {
                    "internalType": "contract IERC20",
                    "name": "token",
                    "type": "address"
                },
                {
                    "internalType": "uint256",
                    "name": "amount",
                    "type": "uint256"
                }
            ],
            "name": "withdraw",
            "outputs": [],
            "stateMutability": "nonpayable",
            "type": "function"
        },
        {
            "inputs": [
                {
                    "internalType": "contract IERC20",
                    "name": "token",
                    "type": "address"
                }
            ],
            "name": "withdrawAll",
            "outputs": [],
            "stateMutability": "nonpayable",
            "type": "function"
        },
        {
            "inputs": [
                {
                    "internalType": "uint256",
                    "name": "amount",
                    "type": "uint256"
                }
            ],
            "name": "withdrawETH",
            "outputs": [],
            "stateMutability": "nonpayable",
            "type": "function"
        },
        {
            "stateMutability": "payable",
            "type": "receive"
        }
    ],
    "bytecode": "0x60e060405234801561001057600080fd5b506040516158ac3803806158ac83398181016040528101906100329190610380565b6001600081905550600073ffffffffffffffffffffffffffffffffffffffff168573ffffffffffffffffffffffffffffffffffffffff16141580156100a45750600073ffffffffffffffffffffffffffffffffffffffff168473ffffffffffffffffffffffffffffffffffffffff1614155b80156100dd5750600073ffffffffffffffffffffffffffffffffffffffff168373ffffffffffffffffffffffffffffffffffffffff1614155b80156101165750600073ffffffffffffffffffffffffffffffffffffffff168273ffffffffffffffffffffffffffffffffffffffff1614155b610155576040517f08c379a000000000000000000000000000000000000000000000000000000000815260040161014c90610458565b60405180910390fd5b606461ffff168161ffff1611156101a1576040517f08c379a0000000000000000000000000000000000000000000000000000000008152600401610198906104c4565b60405180910390fd5b84600160006101000a81548173ffffffffffffffffffffffffffffffffffffffff021916908373ffffffffffffffffffffffffffffffffffffffff1602179055508373ffffffffffffffffffffffffffffffffffffffff1660808173ffffffffffffffffffffffffffffffffffffffff16815250508273ffffffffffffffffffffffffffffffffffffffff1660a08173ffffffffffffffffffffffffffffffffffffffff16815250508173ffffffffffffffffffffffffffffffffffffffff1660c08173ffffffffffffffffffffffffffffffffffffffff168152505080600160146101000a81548161ffff021916908361ffff16021790555050505050506104e4565b600080fd5b600073ffffffffffffffffffffffffffffffffffffffff82169050919050565b60006102d5826102aa565b9050919050565b6102e5816102ca565b81146102f057600080fd5b50565b600081519050610302816102dc565b92915050565b6000610313826102ca565b9050919050565b61032381610308565b811461032e57600080fd5b50565b6000815190506103408161031a565b92915050565b600061ffff82169050919050565b61035d81610346565b811461036857600080fd5b50565b60008151905061037a81610354565b92915050565b600080600080600060a0868803121561039c5761039b6102a5565b5b60006103aa888289016102f3565b95505060206103bb888289016102f3565b94505060406103cc888289016102f3565b93505060606103dd88828901610331565b92505060806103ee8882890161036b565b9150509295509295909350565b600082825260208201905092915050565b7f7a65726f20616464726573730000000000000000000000000000000000000000600082015250565b6000610442600c836103fb565b915061044d8261040c565b602082019050919050565b6000602082019050818103600083015261047181610435565b9050919050565b7f70726f746f636f6c2066656520746f6f20686967680000000000000000000000600082015250565b60006104ae6015836103fb565b91506104b982610478565b602082019050919050565b600060208201905081810360008301526104dd816104a1565b9050919050565b60805160a05160c05161532261058a600039600081816118120152818161285401528181612933015281816129a401528181612db90152612e7c015260008181610ed1015281816115a70152818161208c0152818161216a01528181612249015281816122fa01528181612359015281816124cf0152818161256b0152818161264f015281816126ee015261274d0152600081816113750152611f5b01526153226000f3fe6080604052600436106101f25760003560e01c80638eec5d701161010d578063c7067aa6116100a0578063ee7eae231161006f578063ee7eae231461078e578063f14210a6146107b7578063f3fef3a3146107e0578063f6326fb314610809578063fa09e63014610813576101f9565b8063c7067aa6146106c0578063cd4517eb146106e9578063d52bb6f414610712578063e2dc85dc14610750576101f9565b8063ad5c4648116100dc578063ad5c4648146105f0578063bd32f6431461061b578063c23f001f14610658578063c5fba0b814610695576101f9565b80638eec5d701461051b578063950bff9f14610546578063a94084f514610571578063aa167bb0146105ae576101f9565b806347e7ef24116101855780635c36b186116101545780635c36b1861461045d57806361d027b3146104885780637e3ef7cd146104b357806386e473af146104f0576101f9565b806347e7ef24146103b35780634d96a90a146103dc578063580b2869146104075780635c1bba3814610432576101f9565b80632e04b8e7116101c15780632e04b8e7146102f757806335a38d1e1461033457806344ca455f1461035d578063452a932014610388576101f9565b80631010b58c146101fe5780631165485c14610240578063296d85f61461027d5780632a48235b146102ba576101f9565b366101f957005b600080fd5b34801561020a57600080fd5b5061022560048036038101906102209190613cf9565b61083c565b60405161023796959493929190613dfc565b60405180910390f35b34801561024c57600080fd5b5061026760048036038101906102629190613cf9565b610981565b6040516102749190613e76565b60405180910390f35b34801561028957600080fd5b506102a4600480360381019061029f9190613ebd565b6109f0565b6040516102b19190613f05565b60405180910390f35b3480156102c657600080fd5b506102e160048036038101906102dc9190613cf9565b610a10565b6040516102ee9190613e76565b60405180910390f35b34801561030357600080fd5b5061031e60048036038101906103199190613f5e565b610a34565b60405161032b9190613fae565b60405180910390f35b34801561034057600080fd5b5061035b6004803603810190610356919061402f565b610a5b565b005b34801561036957600080fd5b50610372611318565b60405161037f9190613fae565b60405180910390f35b34801561039457600080fd5b5061039d611373565b6040516103aa919061408b565b60405180910390f35b3480156103bf57600080fd5b506103da60048036038101906103d591906140e4565b611397565b005b3480156103e857600080fd5b506103f1611513565b6040516103fe919061408b565b60405180910390f35b34801561041357600080fd5b5061041c61153d565b6040516104299190614124565b60405180910390f35b34801561043e57600080fd5b50610447611542565b604051610454919061408b565b60405180910390f35b34801561046957600080fd5b50610472611568565b60405161047f91906141cf565b60405180910390f35b34801561049457600080fd5b5061049d6115a5565b6040516104aa919061408b565b60405180910390f35b3480156104bf57600080fd5b506104da60048036038101906104d591906141f1565b6115c9565b6040516104e7919061421e565b60405180910390f35b3480156104fc57600080fd5b5061050561164f565b604051610512919061421e565b60405180910390f35b34801561052757600080fd5b50610530611655565b60405161053d919061421e565b60405180910390f35b34801561055257600080fd5b5061055b611662565b604051610568919061421e565b60405180910390f35b34801561057d57600080fd5b5061059860048036038101906105939190614239565b611668565b6040516105a5919061421e565b60405180910390f35b3480156105ba57600080fd5b506105d560048036038101906105d09190613ebd565b6116d6565b6040516105e796959493929190613dfc565b60405180910390f35b3480156105fc57600080fd5b50610605611810565b604051610612919061429a565b60405180910390f35b34801561062757600080fd5b50610642600480360381019061063d91906142e1565b611834565b60405161064f919061421e565b60405180910390f35b34801561066457600080fd5b5061067f600480360381019061067a919061435c565b611f20565b60405161068c919061421e565b60405180910390f35b3480156106a157600080fd5b506106aa611f45565b6040516106b79190614124565b60405180910390f35b3480156106cc57600080fd5b506106e760048036038101906106e2919061439c565b611f59565b005b3480156106f557600080fd5b50610710600480360381019061070b91906140e4565b61208a565b005b34801561071e57600080fd5b5061073960048036038101906107349190614239565b6123d1565b6040516107479291906143c9565b60405180910390f35b34801561075c57600080fd5b50610777600480360381019061077291906143f2565b61244a565b60405161078592919061446d565b60405180910390f35b34801561079a57600080fd5b506107b560048036038101906107b091906141f1565b6124cd565b005b3480156107c357600080fd5b506107de60048036038101906107d99190613cf9565b6127c5565b005b3480156107ec57600080fd5b50610807600480360381019061080291906140e4565b612b33565b005b610811612d6c565b005b34801561081f57600080fd5b5061083a600480360381019061083591906141f1565b612f43565b005b600080600080600080600480549050871061088c576040517f08c379a0000000000000000000000000000000000000000000000000000000008152600401610883906144e2565b60405180910390fd5b6000600488815481106108a2576108a1614502565b5b9060005260206000200154905060006006600083815260200190815260200160002090508060000160009054906101000a900473ffffffffffffffffffffffffffffffffffffffff168160010160009054906101000a900473ffffffffffffffffffffffffffffffffffffffff168260020160009054906101000a90046fffffffffffffffffffffffffffffffff168360020160109054906101000a90046fffffffffffffffffffffffffffffffff168460030160009054906101000a900461ffff168560040154975097509750975097509750505091939550919395565b600060048054905082106109ca576040517f08c379a00000000000000000000000000000000000000000000000000000000081526004016109c1906144e2565b60405180910390fd5b600482815481106109de576109dd614502565b5b90600052602060002001549050919050565b60056020528060005260406000206000915054906101000a900460ff1681565b60048181548110610a2057600080fd5b906000526020600020016000915090505481565b60036020528060005260406000206000915054906101000a900467ffffffffffffffff1681565b600160009054906101000a900473ffffffffffffffffffffffffffffffffffffffff1673ffffffffffffffffffffffffffffffffffffffff163373ffffffffffffffffffffffffffffffffffffffff1614610aeb576040517f08c379a0000000000000000000000000000000000000000000000000000000008152600401610ae29061457d565b60405180910390fd5b600082829050118015610b0357506107d08282905011155b610b42576040517f08c379a0000000000000000000000000000000000000000000000000000000008152600401610b39906145e9565b60405180910390fd5b60008060005b848490508110156112d85736858583818110610b6757610b66614502565b5b905061010002019050600060036000836000016020810190610b899190613f5e565b73ffffffffffffffffffffffffffffffffffffffff1673ffffffffffffffffffffffffffffffffffffffff16815260200190815260200160002060009054906101000a900467ffffffffffffffff1667ffffffffffffffff168260c0016020810190610bf59190614635565b67ffffffffffffffff1614610c0d5760019050611259565b428260e0016020810190610c219190614635565b67ffffffffffffffff161015610c3a5760049050611258565b816060016020810190610c4d919061468e565b6fffffffffffffffffffffffffffffffff1660026000846000016020810190610c769190613f5e565b73ffffffffffffffffffffffffffffffffffffffff1673ffffffffffffffffffffffffffffffffffffffff1681526020019081526020016000206000846020016020810190610cc591906141f1565b73ffffffffffffffffffffffffffffffffffffffff1673ffffffffffffffffffffffffffffffffffffffff168152602001908152602001600020541015610d0f5760029050611257565b6000612710600160149054906101000a900461ffff1661ffff16846060016020810190610d3c919061468e565b6fffffffffffffffffffffffffffffffff16610d5891906146ea565b610d62919061475b565b9050600081846060016020810190610d7a919061468e565b6fffffffffffffffffffffffffffffffff16610d96919061478c565b9050600080610ddd866020016020810190610db191906141f1565b876040016020810190610dc491906141f1565b85896080016020810190610dd8919061468e565b61312d565b9150915081610def5760039450611252565b856060016020810190610e02919061468e565b6fffffffffffffffffffffffffffffffff1660026000886000016020810190610e2b9190613f5e565b73ffffffffffffffffffffffffffffffffffffffff1673ffffffffffffffffffffffffffffffffffffffff1681526020019081526020016000206000886020016020810190610e7a91906141f1565b73ffffffffffffffffffffffffffffffffffffffff1673ffffffffffffffffffffffffffffffffffffffff1681526020019081526020016000206000828254610ec3919061478c565b9250508190555083600260007f000000000000000000000000000000000000000000000000000000000000000073ffffffffffffffffffffffffffffffffffffffff1673ffffffffffffffffffffffffffffffffffffffff1681526020019081526020016000206000886020016020810190610f3f91906141f1565b73ffffffffffffffffffffffffffffffffffffffff1673ffffffffffffffffffffffffffffffffffffffff1681526020019081526020016000206000828254610f8891906147c0565b925050819055508560a0016020810190610fa29190614820565b15610ffb57610ff6866000016020810190610fbd9190613f5e565b82886040016020810190610fd191906141f1565b73ffffffffffffffffffffffffffffffffffffffff166135339092919063ffffffff16565b6110b3565b80600260008860000160208101906110139190613f5e565b73ffffffffffffffffffffffffffffffffffffffff1673ffffffffffffffffffffffffffffffffffffffff168152602001908152602001600020600088604001602081019061106291906141f1565b73ffffffffffffffffffffffffffffffffffffffff1673ffffffffffffffffffffffffffffffffffffffff16815260200190815260200160002060008282546110ab91906147c0565b925050819055505b60018660c00160208101906110c89190614635565b6110d2919061484d565b600360008860000160208101906110e99190613f5e565b73ffffffffffffffffffffffffffffffffffffffff1673ffffffffffffffffffffffffffffffffffffffff16815260200190815260200160002060006101000a81548167ffffffffffffffff021916908367ffffffffffffffff16021790555085604001602081019061115c91906141f1565b73ffffffffffffffffffffffffffffffffffffffff1686602001602081019061118591906141f1565b73ffffffffffffffffffffffffffffffffffffffff168760000160208101906111ae9190613f5e565b73ffffffffffffffffffffffffffffffffffffffff167f4815594cf8621ac409630bb43993268db64311548b9e1f9cb0dc1fe7f9da5bcc8960600160208101906111f8919061468e565b858b60a001602081019061120c9190614820565b8c60c001602081019061121f9190614635565b8b6040516112319594939291906148ba565b60405180910390a488806112449061490d565b9950505050505050506112cb565b505050505b5b5b81600001602081019061126c9190613f5e565b73ffffffffffffffffffffffffffffffffffffffff16837f01922d04b5b285ffd3172dc5bcd55d32155798469f74aee0d250217fcd7a150a836040516112b291906149cc565b60405180910390a383806112c59061490d565b94505050505b8080600101915050610b48565b507fc409c9a7918eb001ef067382e0bac7f1eeeb6f5ff95aa585be7e4255fca64882828260405161130a92919061446d565b60405180910390a150505050565b6000600360003373ffffffffffffffffffffffffffffffffffffffff1673ffffffffffffffffffffffffffffffffffffffff16815260200190815260200160002060009054906101000a900467ffffffffffffffff16905090565b7f000000000000000000000000000000000000000000000000000000000000000081565b61139f6135b2565b600081116113e2576040517f08c379a00000000000000000000000000000000000000000000000000000000081526004016113d990614a33565b60405180910390fd5b61140f3330838573ffffffffffffffffffffffffffffffffffffffff166135f8909392919063ffffffff16565b80600260003373ffffffffffffffffffffffffffffffffffffffff1673ffffffffffffffffffffffffffffffffffffffff16815260200190815260200160002060008473ffffffffffffffffffffffffffffffffffffffff1673ffffffffffffffffffffffffffffffffffffffff168152602001908152602001600020600082825461149b91906147c0565b925050819055508173ffffffffffffffffffffffffffffffffffffffff163373ffffffffffffffffffffffffffffffffffffffff167f5548c837ab068cf56a2c2479df0882a4922fd203edb7517321831d95078c5f62836040516114ff919061421e565b60405180910390a361150f61367a565b5050565b6000600160009054906101000a900473ffffffffffffffffffffffffffffffffffffffff16905090565b606481565b600160009054906101000a900473ffffffffffffffffffffffffffffffffffffffff1681565b60606040518060400160405280600481526020017f706f6e6700000000000000000000000000000000000000000000000000000000815250905090565b7f000000000000000000000000000000000000000000000000000000000000000081565b6000600260003373ffffffffffffffffffffffffffffffffffffffff1673ffffffffffffffffffffffffffffffffffffffff16815260200190815260200160002060008373ffffffffffffffffffffffffffffffffffffffff1673ffffffffffffffffffffffffffffffffffffffff168152602001908152602001600020549050919050565b61271081565b6000600480549050905090565b6107d081565b6000806116758484613684565b505090506006600082815260200190815260200160002060050160003373ffffffffffffffffffffffffffffffffffffffff1673ffffffffffffffffffffffffffffffffffffffff1681526020019081526020016000205491505092915050565b6000806000806000806005600088815260200190815260200160002060009054906101000a900460ff1661173f576040517f08c379a000000000000000000000000000000000000000000000000000000000815260040161173690614a9f565b60405180910390fd5b60006006600089815260200190815260200160002090508060000160009054906101000a900473ffffffffffffffffffffffffffffffffffffffff168160010160009054906101000a900473ffffffffffffffffffffffffffffffffffffffff168260020160009054906101000a90046fffffffffffffffffffffffffffffffff168360020160109054906101000a90046fffffffffffffffffffffffffffffffff168460030160009054906101000a900461ffff1685600401549650965096509650965096505091939550919395565b7f000000000000000000000000000000000000000000000000000000000000000081565b600061183e6135b2565b8473ffffffffffffffffffffffffffffffffffffffff168673ffffffffffffffffffffffffffffffffffffffff16036118ac576040517f08c379a00000000000000000000000000000000000000000000000000000000081526004016118a390614b0b565b60405180910390fd5b606461ffff168261ffff1611156118f8576040517f08c379a00000000000000000000000000000000000000000000000000000000081526004016118ef90614b77565b60405180910390fd5b6000841180156119085750600083115b611947576040517f08c379a000000000000000000000000000000000000000000000000000000000815260040161193e90614a33565b60405180910390fd5b60008060006119568989613684565b92509250925060008873ffffffffffffffffffffffffffffffffffffffff168a73ffffffffffffffffffffffffffffffffffffffff16106119975786611999565b875b905060008973ffffffffffffffffffffffffffffffffffffffff168b73ffffffffffffffffffffffffffffffffffffffff16106119d657886119d8565b875b905060006006600087815260200190815260200160002090506000816004015403611b8a57848160000160006101000a81548173ffffffffffffffffffffffffffffffffffffffff021916908373ffffffffffffffffffffffffffffffffffffffff160217905550838160010160006101000a81548173ffffffffffffffffffffffffffffffffffffffff021916908373ffffffffffffffffffffffffffffffffffffffff160217905550878160030160006101000a81548161ffff021916908361ffff1602179055508296506005600087815260200190815260200160002060009054906101000a900460ff16611b855760016005600088815260200190815260200160002060006101000a81548160ff02191690831515021790555060048690806001815401808255809150506001900390600052602060002001600090919091909150558373ffffffffffffffffffffffffffffffffffffffff168573ffffffffffffffffffffffffffffffffffffffff167fec5dc6309c83a50f60f4a1fae9422b2c406da78c579b9b12b92d033db37c719488604051611b7c9190613e76565b60405180910390a35b611cf2565b8761ffff168160030160009054906101000a900461ffff1661ffff1614611be6576040517f08c379a0000000000000000000000000000000000000000000000000000000008152600401611bdd90614be3565b60405180910390fd5b828160020160109054906101000a90046fffffffffffffffffffffffffffffffff166fffffffffffffffffffffffffffffffff16611c2491906146ea565b828260020160009054906101000a90046fffffffffffffffffffffffffffffffff166fffffffffffffffffffffffffffffffff16611c6291906146ea565b14611ca2576040517f08c379a0000000000000000000000000000000000000000000000000000000008152600401611c9990614c4f565b60405180910390fd5b8060020160009054906101000a90046fffffffffffffffffffffffffffffffff166fffffffffffffffffffffffffffffffff16816004015484611ce591906146ea565b611cef919061475b565b96505b611d1f3330858873ffffffffffffffffffffffffffffffffffffffff166135f8909392919063ffffffff16565b611d4c3330848773ffffffffffffffffffffffffffffffffffffffff166135f8909392919063ffffffff16565b828160020160008282829054906101000a90046fffffffffffffffffffffffffffffffff16611d7b9190614c6f565b92506101000a8154816fffffffffffffffffffffffffffffffff02191690836fffffffffffffffffffffffffffffffff160217905550818160020160108282829054906101000a90046fffffffffffffffffffffffffffffffff16611de09190614c6f565b92506101000a8154816fffffffffffffffffffffffffffffffff02191690836fffffffffffffffffffffffffffffffff16021790555086816004016000828254611e2a91906147c0565b92505081905550868160050160003373ffffffffffffffffffffffffffffffffffffffff1673ffffffffffffffffffffffffffffffffffffffff1681526020019081526020016000206000828254611e8291906147c0565b925050819055508373ffffffffffffffffffffffffffffffffffffffff168573ffffffffffffffffffffffffffffffffffffffff163373ffffffffffffffffffffffffffffffffffffffff167f43c967b388d3a4ccad3f7ab80167852e322e5a3fde9893f530252281b2ae8b7086868c604051611f0193929190614cb3565b60405180910390a4505050505050611f1761367a565b95945050505050565b6002602052816000526040600020602052806000526040600020600091509150505481565b600160149054906101000a900461ffff1681565b7f000000000000000000000000000000000000000000000000000000000000000073ffffffffffffffffffffffffffffffffffffffff163373ffffffffffffffffffffffffffffffffffffffff1614611fe7576040517f08c379a0000000000000000000000000000000000000000000000000000000008152600401611fde90614d36565b60405180910390fd5b606461ffff168161ffff161115612033576040517f08c379a000000000000000000000000000000000000000000000000000000000815260040161202a90614da2565b60405180910390fd5b80600160146101000a81548161ffff021916908361ffff1602179055507f15189fb9f7333d3c2ac875339ddb50cd49f554b5ed014b4b06111a437ec0b0c58160405161207f9190614124565b60405180910390a150565b7f000000000000000000000000000000000000000000000000000000000000000073ffffffffffffffffffffffffffffffffffffffff163373ffffffffffffffffffffffffffffffffffffffff1614612118576040517f08c379a000000000000000000000000000000000000000000000000000000000815260040161210f90614e0e565b60405180910390fd5b6121206135b2565b60008111612163576040517f08c379a000000000000000000000000000000000000000000000000000000000815260040161215a90614a33565b60405180910390fd5b80600260007f000000000000000000000000000000000000000000000000000000000000000073ffffffffffffffffffffffffffffffffffffffff1673ffffffffffffffffffffffffffffffffffffffff16815260200190815260200160002060008473ffffffffffffffffffffffffffffffffffffffff1673ffffffffffffffffffffffffffffffffffffffff168152602001908152602001600020541015612242576040517f08c379a000000000000000000000000000000000000000000000000000000000815260040161223990614e7a565b60405180910390fd5b80600260007f000000000000000000000000000000000000000000000000000000000000000073ffffffffffffffffffffffffffffffffffffffff1673ffffffffffffffffffffffffffffffffffffffff16815260200190815260200160002060008473ffffffffffffffffffffffffffffffffffffffff1673ffffffffffffffffffffffffffffffffffffffff16815260200190815260200160002060008282546122ee919061478c565b925050819055506123407f0000000000000000000000000000000000000000000000000000000000000000828473ffffffffffffffffffffffffffffffffffffffff166135339092919063ffffffff16565b8173ffffffffffffffffffffffffffffffffffffffff167f000000000000000000000000000000000000000000000000000000000000000073ffffffffffffffffffffffffffffffffffffffff167f396b957ca7fdedb339c03b4968d2b37fcf13e62f0d395b81b2c1eca98e7403e8836040516123bd919061421e565b60405180910390a36123cd61367a565b5050565b60008060006123e08585613684565b5050905060006006600083815260200190815260200160002090508060020160009054906101000a90046fffffffffffffffffffffffffffffffff168160020160109054906101000a90046fffffffffffffffffffffffffffffffff169350935050509250929050565b6000806124556135b2565b60008511612498576040517f08c379a000000000000000000000000000000000000000000000000000000000815260040161248f90614ee6565b60405180910390fd5b60006124a48888613684565b505090506124b6818989898989613700565b92509250506124c361367a565b9550959350505050565b7f000000000000000000000000000000000000000000000000000000000000000073ffffffffffffffffffffffffffffffffffffffff163373ffffffffffffffffffffffffffffffffffffffff161461255b576040517f08c379a000000000000000000000000000000000000000000000000000000000815260040161255290614e0e565b60405180910390fd5b6125636135b2565b6000600260007f000000000000000000000000000000000000000000000000000000000000000073ffffffffffffffffffffffffffffffffffffffff1673ffffffffffffffffffffffffffffffffffffffff16815260200190815260200160002060008373ffffffffffffffffffffffffffffffffffffffff1673ffffffffffffffffffffffffffffffffffffffff16815260200190815260200160002054905060008111612647576040517f08c379a000000000000000000000000000000000000000000000000000000000815260040161263e90614f52565b60405180910390fd5b6000600260007f000000000000000000000000000000000000000000000000000000000000000073ffffffffffffffffffffffffffffffffffffffff1673ffffffffffffffffffffffffffffffffffffffff16815260200190815260200160002060008473ffffffffffffffffffffffffffffffffffffffff1673ffffffffffffffffffffffffffffffffffffffff168152602001908152602001600020819055506127347f0000000000000000000000000000000000000000000000000000000000000000828473ffffffffffffffffffffffffffffffffffffffff166135339092919063ffffffff16565b8173ffffffffffffffffffffffffffffffffffffffff167f000000000000000000000000000000000000000000000000000000000000000073ffffffffffffffffffffffffffffffffffffffff167f396b957ca7fdedb339c03b4968d2b37fcf13e62f0d395b81b2c1eca98e7403e8836040516127b1919061421e565b60405180910390a3506127c261367a565b50565b6127cd6135b2565b60008111612810576040517f08c379a000000000000000000000000000000000000000000000000000000000815260040161280790614a33565b60405180910390fd5b80600260003373ffffffffffffffffffffffffffffffffffffffff1673ffffffffffffffffffffffffffffffffffffffff16815260200190815260200160002060007f000000000000000000000000000000000000000000000000000000000000000073ffffffffffffffffffffffffffffffffffffffff1673ffffffffffffffffffffffffffffffffffffffff1681526020019081526020016000205410156128ef576040517f08c379a00000000000000000000000000000000000000000000000000000000081526004016128e690614e7a565b60405180910390fd5b80600260003373ffffffffffffffffffffffffffffffffffffffff1673ffffffffffffffffffffffffffffffffffffffff16815260200190815260200160002060007f000000000000000000000000000000000000000000000000000000000000000073ffffffffffffffffffffffffffffffffffffffff1673ffffffffffffffffffffffffffffffffffffffff168152602001908152602001600020600082825461299b919061478c565b925050819055507f000000000000000000000000000000000000000000000000000000000000000073ffffffffffffffffffffffffffffffffffffffff16632e1a7d4d826040518263ffffffff1660e01b81526004016129fb919061421e565b600060405180830381600087803b158015612a1557600080fd5b505af1158015612a29573d6000803e3d6000fd5b5050505060003373ffffffffffffffffffffffffffffffffffffffff1682604051612a5390614fa3565b60006040518083038185875af1925050503d8060008114612a90576040519150601f19603f3d011682016040523d82523d6000602084013e612a95565b606091505b5050905080612ad9576040517f08c379a0000000000000000000000000000000000000000000000000000000008152600401612ad090615004565b60405180910390fd5b3373ffffffffffffffffffffffffffffffffffffffff167f566e45b1c8057e725bf62796a7f1d37ae294393cab069725a09daddd1af98b7983604051612b1f919061421e565b60405180910390a250612b3061367a565b50565b612b3b6135b2565b60008111612b7e576040517f08c379a0000000000000000000000000000000000000000000000000000000008152600401612b7590614a33565b60405180910390fd5b80600260003373ffffffffffffffffffffffffffffffffffffffff1673ffffffffffffffffffffffffffffffffffffffff16815260200190815260200160002060008473ffffffffffffffffffffffffffffffffffffffff1673ffffffffffffffffffffffffffffffffffffffff168152602001908152602001600020541015612c3d576040517f08c379a0000000000000000000000000000000000000000000000000000000008152600401612c3490614e7a565b60405180910390fd5b80600260003373ffffffffffffffffffffffffffffffffffffffff1673ffffffffffffffffffffffffffffffffffffffff16815260200190815260200160002060008473ffffffffffffffffffffffffffffffffffffffff1673ffffffffffffffffffffffffffffffffffffffff1681526020019081526020016000206000828254612cc9919061478c565b92505081905550612cfb33828473ffffffffffffffffffffffffffffffffffffffff166135339092919063ffffffff16565b8173ffffffffffffffffffffffffffffffffffffffff163373ffffffffffffffffffffffffffffffffffffffff167f9b1bfa7fa9ee420a16e124f794c35ac9f90472acc99140eb2f6447c714cad8eb83604051612d58919061421e565b60405180910390a3612d6861367a565b5050565b612d746135b2565b60003411612db7576040517f08c379a0000000000000000000000000000000000000000000000000000000008152600401612dae90615070565b60405180910390fd5b7f000000000000000000000000000000000000000000000000000000000000000073ffffffffffffffffffffffffffffffffffffffff1663d0e30db0346040518263ffffffff1660e01b81526004016000604051808303818588803b158015612e1f57600080fd5b505af1158015612e33573d6000803e3d6000fd5b505050505034600260003373ffffffffffffffffffffffffffffffffffffffff1673ffffffffffffffffffffffffffffffffffffffff16815260200190815260200160002060007f000000000000000000000000000000000000000000000000000000000000000073ffffffffffffffffffffffffffffffffffffffff1673ffffffffffffffffffffffffffffffffffffffff1681526020019081526020016000206000828254612ee491906147c0565b925050819055503373ffffffffffffffffffffffffffffffffffffffff167fced5d8bf10823804603bba066e4f53aa6e8f6f4be68bf0114cf7a0e52183e4e934604051612f31919061421e565b60405180910390a2612f4161367a565b565b612f4b6135b2565b6000600260003373ffffffffffffffffffffffffffffffffffffffff1673ffffffffffffffffffffffffffffffffffffffff16815260200190815260200160002060008373ffffffffffffffffffffffffffffffffffffffff1673ffffffffffffffffffffffffffffffffffffffff1681526020019081526020016000205490506000811161300f576040517f08c379a0000000000000000000000000000000000000000000000000000000008152600401613006906150dc565b60405180910390fd5b6000600260003373ffffffffffffffffffffffffffffffffffffffff1673ffffffffffffffffffffffffffffffffffffffff16815260200190815260200160002060008473ffffffffffffffffffffffffffffffffffffffff1673ffffffffffffffffffffffffffffffffffffffff168152602001908152602001600020819055506130bc33828473ffffffffffffffffffffffffffffffffffffffff166135339092919063ffffffff16565b8173ffffffffffffffffffffffffffffffffffffffff163373ffffffffffffffffffffffffffffffffffffffff167f858f8be6acc95d7ac4177f157cb7c92a1d922bd948b968ce21df5b7b26a10a9583604051613119919061421e565b60405180910390a35061312a61367a565b50565b60008060008061313d8888613684565b5091509150600060066000848152602001908152602001600020905060008160020160009054906101000a90046fffffffffffffffffffffffffffffffff166fffffffffffffffffffffffffffffffff1614806131cc575060008160020160109054906101000a90046fffffffffffffffffffffffffffffffff166fffffffffffffffffffffffffffffffff16145b156131e0576000809450945050505061352a565b60008273ffffffffffffffffffffffffffffffffffffffff168a73ffffffffffffffffffffffffffffffffffffffff1614905060008082613262578360020160109054906101000a90046fffffffffffffffffffffffffffffffff168460020160009054906101000a90046fffffffffffffffffffffffffffffffff166132a5565b8360020160009054906101000a90046fffffffffffffffffffffffffffffffff168460020160109054906101000a90046fffffffffffffffffffffffffffffffff165b9150915060008460030160009054906101000a900461ffff1661ffff166127106132cf919061478c565b8b6fffffffffffffffffffffffffffffffff166132ec91906146ea565b9050600081836fffffffffffffffffffffffffffffffff1661330e91906146ea565b9050600082612710866fffffffffffffffffffffffffffffffff1661333391906146ea565b61333d91906147c0565b9050808261334b919061475b565b99508b6fffffffffffffffffffffffffffffffff168a101561337c576000809a509a5050505050505050505061352a565b8515613451578c8760020160008282829054906101000a90046fffffffffffffffffffffffffffffffff166133b19190614c6f565b92506101000a8154816fffffffffffffffffffffffffffffffff02191690836fffffffffffffffffffffffffffffffff160217905550898760020160108282829054906101000a90046fffffffffffffffffffffffffffffffff1661341691906150fc565b92506101000a8154816fffffffffffffffffffffffffffffffff02191690836fffffffffffffffffffffffffffffffff16021790555061351c565b898760020160008282829054906101000a90046fffffffffffffffffffffffffffffffff1661348091906150fc565b92506101000a8154816fffffffffffffffffffffffffffffffff02191690836fffffffffffffffffffffffffffffffff1602179055508c8760020160108282829054906101000a90046fffffffffffffffffffffffffffffffff166134e59190614c6f565b92506101000a8154816fffffffffffffffffffffffffffffffff02191690836fffffffffffffffffffffffffffffffff1602179055505b60019a505050505050505050505b94509492505050565b6135ad838473ffffffffffffffffffffffffffffffffffffffff1663a9059cbb8585604051602401613566929190615140565b604051602081830303815290604052915060e01b6020820180517bffffffffffffffffffffffffffffffffffffffffffffffffffffffff8381831617835250505050613c17565b505050565b6002600054036135ee576040517f3ee5aeb500000000000000000000000000000000000000000000000000000000815260040160405180910390fd5b6002600081905550565b613674848573ffffffffffffffffffffffffffffffffffffffff166323b872dd86868660405160240161362d93929190615169565b604051602081830303815290604052915060e01b6020820180517bffffffffffffffffffffffffffffffffffffffffffffffffffffffff8381831617835250505050613c17565b50505050565b6001600081905550565b60008060008373ffffffffffffffffffffffffffffffffffffffff168573ffffffffffffffffffffffffffffffffffffffff16106136c35783856136c6565b84845b809250819350505081816040516020016136e19291906151e8565b6040516020818303038152906040528051906020012092509250925092565b6000806000600660008a81526020019081526020016000209050858160050160003373ffffffffffffffffffffffffffffffffffffffff1673ffffffffffffffffffffffffffffffffffffffff16815260200190815260200160002054101561379e576040517f08c379a000000000000000000000000000000000000000000000000000000000815260040161379590615260565b60405180910390fd5b8673ffffffffffffffffffffffffffffffffffffffff168873ffffffffffffffffffffffffffffffffffffffff160361380c576040517f08c379a000000000000000000000000000000000000000000000000000000000815260040161380390614b0b565b60405180910390fd5b60008160040154878360020160009054906101000a90046fffffffffffffffffffffffffffffffff166fffffffffffffffffffffffffffffffff1661385191906146ea565b61385b919061475b565b905060008260040154888460020160109054906101000a90046fffffffffffffffffffffffffffffffff166fffffffffffffffffffffffffffffffff166138a291906146ea565b6138ac919061475b565b90508260000160009054906101000a900473ffffffffffffffffffffffffffffffffffffffff1673ffffffffffffffffffffffffffffffffffffffff168a73ffffffffffffffffffffffffffffffffffffffff160361391057819450809350613917565b8094508193505b8685101580156139275750858410155b613966576040517f08c379a000000000000000000000000000000000000000000000000000000000815260040161395d906152cc565b60405180910390fd5b818360020160008282829054906101000a90046fffffffffffffffffffffffffffffffff1661399591906150fc565b92506101000a8154816fffffffffffffffffffffffffffffffff02191690836fffffffffffffffffffffffffffffffff160217905550808360020160108282829054906101000a90046fffffffffffffffffffffffffffffffff166139fa91906150fc565b92506101000a8154816fffffffffffffffffffffffffffffffff02191690836fffffffffffffffffffffffffffffffff16021790555087836004016000828254613a44919061478c565b92505081905550878360050160003373ffffffffffffffffffffffffffffffffffffffff1673ffffffffffffffffffffffffffffffffffffffff1681526020019081526020016000206000828254613a9c919061478c565b92505081905550613af233838560000160009054906101000a900473ffffffffffffffffffffffffffffffffffffffff1673ffffffffffffffffffffffffffffffffffffffff166135339092919063ffffffff16565b613b4133828560010160009054906101000a900473ffffffffffffffffffffffffffffffffffffffff1673ffffffffffffffffffffffffffffffffffffffff166135339092919063ffffffff16565b8260010160009054906101000a900473ffffffffffffffffffffffffffffffffffffffff1673ffffffffffffffffffffffffffffffffffffffff168360000160009054906101000a900473ffffffffffffffffffffffffffffffffffffffff1673ffffffffffffffffffffffffffffffffffffffff163373ffffffffffffffffffffffffffffffffffffffff167fd765e08eef31c0983ecca03ecd166297ac485ecd5dd69e291c848f0a020333c185858d604051613c0193929190614cb3565b60405180910390a4505050965096945050505050565b600080602060008451602086016000885af180613c3a576040513d6000823e3d81fd5b3d925060005191505060008214613c55576001811415613c71565b60008473ffffffffffffffffffffffffffffffffffffffff163b145b15613cb357836040517f5274afe7000000000000000000000000000000000000000000000000000000008152600401613caa919061408b565b60405180910390fd5b50505050565b600080fd5b600080fd5b6000819050919050565b613cd681613cc3565b8114613ce157600080fd5b50565b600081359050613cf381613ccd565b92915050565b600060208284031215613d0f57613d0e613cb9565b5b6000613d1d84828501613ce4565b91505092915050565b600073ffffffffffffffffffffffffffffffffffffffff82169050919050565b6000819050919050565b6000613d6b613d66613d6184613d26565b613d46565b613d26565b9050919050565b6000613d7d82613d50565b9050919050565b6000613d8f82613d72565b9050919050565b613d9f81613d84565b82525050565b60006fffffffffffffffffffffffffffffffff82169050919050565b613dca81613da5565b82525050565b600061ffff82169050919050565b613de781613dd0565b82525050565b613df681613cc3565b82525050565b600060c082019050613e116000830189613d96565b613e1e6020830188613d96565b613e2b6040830187613dc1565b613e386060830186613dc1565b613e456080830185613dde565b613e5260a0830184613ded565b979650505050505050565b6000819050919050565b613e7081613e5d565b82525050565b6000602082019050613e8b6000830184613e67565b92915050565b613e9a81613e5d565b8114613ea557600080fd5b50565b600081359050613eb781613e91565b92915050565b600060208284031215613ed357613ed2613cb9565b5b6000613ee184828501613ea8565b91505092915050565b60008115159050919050565b613eff81613eea565b82525050565b6000602082019050613f1a6000830184613ef6565b92915050565b6000613f2b82613d26565b9050919050565b613f3b81613f20565b8114613f4657600080fd5b50565b600081359050613f5881613f32565b92915050565b600060208284031215613f7457613f73613cb9565b5b6000613f8284828501613f49565b91505092915050565b600067ffffffffffffffff82169050919050565b613fa881613f8b565b82525050565b6000602082019050613fc36000830184613f9f565b92915050565b600080fd5b600080fd5b600080fd5b60008083601f840112613fee57613fed613fc9565b5b8235905067ffffffffffffffff81111561400b5761400a613fce565b5b6020830191508361010082028301111561402857614027613fd3565b5b9250929050565b6000806020838503121561404657614045613cb9565b5b600083013567ffffffffffffffff81111561406457614063613cbe565b5b61407085828601613fd8565b92509250509250929050565b61408581613f20565b82525050565b60006020820190506140a0600083018461407c565b92915050565b60006140b182613f20565b9050919050565b6140c1816140a6565b81146140cc57600080fd5b50565b6000813590506140de816140b8565b92915050565b600080604083850312156140fb576140fa613cb9565b5b6000614109858286016140cf565b925050602061411a85828601613ce4565b9150509250929050565b60006020820190506141396000830184613dde565b92915050565b600081519050919050565b600082825260208201905092915050565b60005b8381101561417957808201518184015260208101905061415e565b60008484015250505050565b6000601f19601f8301169050919050565b60006141a18261413f565b6141ab818561414a565b93506141bb81856020860161415b565b6141c481614185565b840191505092915050565b600060208201905081810360008301526141e98184614196565b905092915050565b60006020828403121561420757614206613cb9565b5b6000614215848285016140cf565b91505092915050565b60006020820190506142336000830184613ded565b92915050565b600080604083850312156142505761424f613cb9565b5b600061425e858286016140cf565b925050602061426f858286016140cf565b9150509250929050565b600061428482613d72565b9050919050565b61429481614279565b82525050565b60006020820190506142af600083018461428b565b92915050565b6142be81613dd0565b81146142c957600080fd5b50565b6000813590506142db816142b5565b92915050565b600080600080600060a086880312156142fd576142fc613cb9565b5b600061430b888289016140cf565b955050602061431c888289016140cf565b945050604061432d88828901613ce4565b935050606061433e88828901613ce4565b925050608061434f888289016142cc565b9150509295509295909350565b6000806040838503121561437357614372613cb9565b5b600061438185828601613f49565b9250506020614392858286016140cf565b9150509250929050565b6000602082840312156143b2576143b1613cb9565b5b60006143c0848285016142cc565b91505092915050565b60006040820190506143de6000830185613dc1565b6143eb6020830184613dc1565b9392505050565b600080600080600060a0868803121561440e5761440d613cb9565b5b600061441c888289016140cf565b955050602061442d888289016140cf565b945050604061443e88828901613ce4565b935050606061444f88828901613ce4565b925050608061446088828901613ce4565b9150509295509295909350565b60006040820190506144826000830185613ded565b61448f6020830184613ded565b9392505050565b7f696e646578206f7574206f6620626f756e647300000000000000000000000000600082015250565b60006144cc60138361414a565b91506144d782614496565b602082019050919050565b600060208201905081810360008301526144fb816144bf565b9050919050565b7f4e487b7100000000000000000000000000000000000000000000000000000000600052603260045260246000fd5b7f2173657175656e63657200000000000000000000000000000000000000000000600082015250565b6000614567600a8361414a565b915061457282614531565b602082019050919050565b600060208201905081810360008301526145968161455a565b9050919050565b7f696e76616c696420626174636800000000000000000000000000000000000000600082015250565b60006145d3600d8361414a565b91506145de8261459d565b602082019050919050565b60006020820190508181036000830152614602816145c6565b9050919050565b61461281613f8b565b811461461d57600080fd5b50565b60008135905061462f81614609565b92915050565b60006020828403121561464b5761464a613cb9565b5b600061465984828501614620565b91505092915050565b61466b81613da5565b811461467657600080fd5b50565b60008135905061468881614662565b92915050565b6000602082840312156146a4576146a3613cb9565b5b60006146b284828501614679565b91505092915050565b7f4e487b7100000000000000000000000000000000000000000000000000000000600052601160045260246000fd5b60006146f582613cc3565b915061470083613cc3565b925082820261470e81613cc3565b91508282048414831517614725576147246146bb565b5b5092915050565b7f4e487b7100000000000000000000000000000000000000000000000000000000600052601260045260246000fd5b600061476682613cc3565b915061477183613cc3565b9250826147815761478061472c565b5b828204905092915050565b600061479782613cc3565b91506147a283613cc3565b92508282039050818111156147ba576147b96146bb565b5b92915050565b60006147cb82613cc3565b91506147d683613cc3565b92508282019050808211156147ee576147ed6146bb565b5b92915050565b6147fd81613eea565b811461480857600080fd5b50565b60008135905061481a816147f4565b92915050565b60006020828403121561483657614835613cb9565b5b60006148448482850161480b565b91505092915050565b600061485882613f8b565b915061486383613f8b565b9250828201905067ffffffffffffffff811115614883576148826146bb565b5b92915050565b60006148a461489f61489a84613da5565b613d46565b613cc3565b9050919050565b6148b481614889565b82525050565b600060a0820190506148cf60008301886148ab565b6148dc6020830187613ded565b6148e96040830186613ef6565b6148f66060830185613f9f565b6149036080830184613ded565b9695505050505050565b600061491882613cc3565b91507fffffffffffffffffffffffffffffffffffffffffffffffffffffffffffffffff820361494a576149496146bb565b5b600182019050919050565b7f4e487b7100000000000000000000000000000000000000000000000000000000600052602160045260246000fd5b6005811061499557614994614955565b5b50565b60008190506149a682614984565b919050565b60006149b682614998565b9050919050565b6149c6816149ab565b82525050565b60006020820190506149e160008301846149bd565b92915050565b7f7a65726f20616d6f756e74000000000000000000000000000000000000000000600082015250565b6000614a1d600b8361414a565b9150614a28826149e7565b602082019050919050565b60006020820190508181036000830152614a4c81614a10565b9050919050565b7f706f6f6c20646f65736e27742065786973740000000000000000000000000000600082015250565b6000614a8960128361414a565b9150614a9482614a53565b602082019050919050565b60006020820190508181036000830152614ab881614a7c565b9050919050565b7f6964656e746963616c20746f6b656e7300000000000000000000000000000000600082015250565b6000614af560108361414a565b9150614b0082614abf565b602082019050919050565b60006020820190508181036000830152614b2481614ae8565b9050919050565b7f66656520746f6f20686967680000000000000000000000000000000000000000600082015250565b6000614b61600c8361414a565b9150614b6c82614b2b565b602082019050919050565b60006020820190508181036000830152614b9081614b54565b9050919050565b7f666565206d69736d617463680000000000000000000000000000000000000000600082015250565b6000614bcd600c8361414a565b9150614bd882614b97565b602082019050919050565b60006020820190508181036000830152614bfc81614bc0565b9050919050565b7f756e62616c616e63656400000000000000000000000000000000000000000000600082015250565b6000614c39600a8361414a565b9150614c4482614c03565b602082019050919050565b60006020820190508181036000830152614c6881614c2c565b9050919050565b6000614c7a82613da5565b9150614c8583613da5565b925082820190506fffffffffffffffffffffffffffffffff811115614cad57614cac6146bb565b5b92915050565b6000606082019050614cc86000830186613ded565b614cd56020830185613ded565b614ce26040830184613ded565b949350505050565b7f21677561726469616e0000000000000000000000000000000000000000000000600082015250565b6000614d2060098361414a565b9150614d2b82614cea565b602082019050919050565b60006020820190508181036000830152614d4f81614d13565b9050919050565b7f666565425020746f6f2068696768000000000000000000000000000000000000600082015250565b6000614d8c600e8361414a565b9150614d9782614d56565b602082019050919050565b60006020820190508181036000830152614dbb81614d7f565b9050919050565b7f2174726561737572790000000000000000000000000000000000000000000000600082015250565b6000614df860098361414a565b9150614e0382614dc2565b602082019050919050565b60006020820190508181036000830152614e2781614deb565b9050919050565b7f696e73756666696369656e742062616c616e6365000000000000000000000000600082015250565b6000614e6460148361414a565b9150614e6f82614e2e565b602082019050919050565b60006020820190508181036000830152614e9381614e57565b9050919050565b7f7a65726f20736861726500000000000000000000000000000000000000000000600082015250565b6000614ed0600a8361414a565b9150614edb82614e9a565b602082019050919050565b60006020820190508181036000830152614eff81614ec3565b9050919050565b7f6e6f20726576656e756500000000000000000000000000000000000000000000600082015250565b6000614f3c600a8361414a565b9150614f4782614f06565b602082019050919050565b60006020820190508181036000830152614f6b81614f2f565b9050919050565b600081905092915050565b50565b6000614f8d600083614f72565b9150614f9882614f7d565b600082019050919050565b6000614fae82614f80565b9150819050919050565b7f455448207472616e73666572206661696c656400000000000000000000000000600082015250565b6000614fee60138361414a565b9150614ff982614fb8565b602082019050919050565b6000602082019050818103600083015261501d81614fe1565b9050919050565b7f7a65726f20455448000000000000000000000000000000000000000000000000600082015250565b600061505a60088361414a565b915061506582615024565b602082019050919050565b600060208201905081810360008301526150898161504d565b9050919050565b7f6e6f2062616c616e636500000000000000000000000000000000000000000000600082015250565b60006150c6600a8361414a565b91506150d182615090565b602082019050919050565b600060208201905081810360008301526150f5816150b9565b9050919050565b600061510782613da5565b915061511283613da5565b925082820390506fffffffffffffffffffffffffffffffff81111561513a576151396146bb565b5b92915050565b6000604082019050615155600083018561407c565b6151626020830184613ded565b9392505050565b600060608201905061517e600083018661407c565b61518b602083018561407c565b6151986040830184613ded565b949350505050565b60008160601b9050919050565b60006151b8826151a0565b9050919050565b60006151ca826151ad565b9050919050565b6151e26151dd82613f20565b6151bf565b82525050565b60006151f482856151d1565b60148201915061520482846151d1565b6014820191508190509392505050565b7f696e73756666696369656e742073686172657300000000000000000000000000600082015250565b600061524a60138361414a565b915061525582615214565b602082019050919050565b600060208201905081810360008301526152798161523d565b9050919050565b7f736c697070616765000000000000000000000000000000000000000000000000600082015250565b60006152b660088361414a565b91506152c182615280565b602082019050919050565b600060208201905081810360008301526152e5816152a9565b905091905056fea2646970667358221220ec928183986179103ed1705829cf5bcbecd311a42852d70ac12599c2ed9d328c64736f6c634300081c0033",
    "linkReferences": {},
    "deployedLinkReferences": {}
}