{
  "_format": "hh-sol-artifact-1",
  "contractName": "YourAMM",
  "sourceName": "contracts/YourAMM.sol",
  "abi": [
    {
      "inputs": [],
      "name": "depositETH",
      "outputs": [],
      "stateMutability": "payable",
      "type": "function"
    },
    {
      "inputs": [
        {
          "internalType": "uint256",
          "name": "amount",
          "type": "uint256"
        }
      ],
      "name": "withdrawETH",
      "outputs": [],
      "stateMutability": "nonpayable",
      "type": "function"
    }
  ],
  "bytecode": "0x6080806040523460145760f6908161001a8239f35b600080fdfe6080806040526004361015601257600080fd5b60003560e01c908163f14210a6146044575063f6326fb314603257600080fd5b6000366003190112603f57005b600080fd5b34603f576020366003190112603f5760043590814710608757600080808085818115607f575b3390f115607357005b6040513d6000823e3d90fd5b506108fc606a565b62461bcd60e51b8152602060048201526014602482015273496e73756666696369656e742062616c616e636560601b6044820152606490fdfea264697066735822122044e61454c8b2d7e0e12286843f0055ee0eb4a8f5df157e173183907934ce93df64736f6c634300081c0033",
  "linkReferences": {},
  "deployedLinkReferences": {}
}