{
    "_format": "hh-sol-artifact-1",
    "contractName": "SequencedAMM",
    "sourceName": "contracts/SequencedAMM.sol",
    "abi": [
        {
            "inputs": [
                {
                    "internalType": "address",
                    "name": "initialOwner",
                    "type": "address"
                },
                {
                    "internalType": "address",
                    "name": "tokenAddress",
                    "type": "address"
                }
            ],
            "stateMutability": "nonpayable",
            "type": "constructor"
        },
        {
            "inputs": [
                {
                    "internalType": "address",
                    "name": "owner",
                    "type": "address"
                }
            ],
            "name": "OwnableInvalidOwner",
            "type": "error"
        },
        {
            "inputs": [
                {
                    "internalType": "address",
                    "name": "account",
                    "type": "address"
                }
            ],
            "name": "OwnableUnauthorizedAccount",
            "type": "error"
        },
        {
            "inputs": [],
            "name": "ReentrancyGuardReentrantCall",
            "type": "error"
        },
        {
            "anonymous": false,
            "inputs": [
                {
                    "indexed": false,
                    "internalType": "uint256",
                    "name": "batchId",
                    "type": "uint256"
                },
                {
                    "indexed": false,
                    "internalType": "bytes32",
                    "name": "intentRoot",
                    "type": "bytes32"
                },
                {
                    "indexed": false,
                    "internalType": "uint256",
                    "name": "batchSize",
                    "type": "uint256"
                }
            ],
            "name": "BatchCommitted",
            "type": "event"
        },
        {
            "anonymous": false,
            "inputs": [
                {
                    "indexed": false,
                    "internalType": "uint256",
                    "name": "batchId",
                    "type": "uint256"
                },
                {
                    "indexed": false,
                    "internalType": "uint256",
                    "name": "swapCount",
                    "type": "uint256"
                }
            ],
            "name": "BatchSwap",
            "type": "event"
        },
        {
            "anonymous": false,
            "inputs": [
                {
                    "indexed": false,
                    "internalType": "uint256",
                    "name": "batchId",
                    "type": "uint256"
                },
                {
                    "indexed": false,
                    "internalType": "uint256",
                    "name": "swapCount",
                    "type": "uint256"
                },
                {
                    "indexed": false,
                    "internalType": "uint256",
                    "name": "successCount",
                    "type": "uint256"
                }
            ],
            "name": "BatchSwapExecuted",
            "type": "event"
        },
        {
            "anonymous": false,
            "inputs": [
                {
                    "indexed": true,
                    "internalType": "address",
                    "name": "user",
                    "type": "address"
                },
                {
                    "indexed": false,
                    "internalType": "uint256",
                    "name": "amount",
                    "type": "uint256"
                },
                {
                    "indexed": false,
                    "internalType": "bool",
                    "name": "isEth",
                    "type": "bool"
                },
                {
                    "indexed": false,
                    "internalType": "uint256",
                    "name": "timestamp",
                    "type": "uint256"
                }
            ],
            "name": "Deposit",
            "type": "event"
        },
        {
            "anonymous": false,
            "inputs": [
                {
                    "indexed": true,
                    "internalType": "address",
                    "name": "user",
                    "type": "address"
                },
                {
                    "indexed": false,
                    "internalType": "uint256",
                    "name": "amountIn",
                    "type": "uint256"
                },
                {
                    "indexed": false,
                    "internalType": "uint256",
                    "name": "amountOut",
                    "type": "uint256"
                },
                {
                    "indexed": false,
                    "internalType": "bool",
                    "name": "ethToToken",
                    "type": "bool"
                }
            ],
            "name": "FallbackSwap",
            "type": "event"
        },
        {
            "anonymous": false,
            "inputs": [
                {
                    "indexed": true,
                    "internalType": "address",
                    "name": "provider",
                    "type": "address"
                },
                {
                    "indexed": false,
                    "internalType": "uint256",
                    "name": "ethAmount",
                    "type": "uint256"
                },
                {
                    "indexed": false,
                    "internalType": "uint256",
                    "name": "tokenAmount",
                    "type": "uint256"
                }
            ],
            "name": "LiquidityAdded",
            "type": "event"
        },
        {
            "anonymous": false,
            "inputs": [
                {
                    "indexed": true,
                    "internalType": "address",
                    "name": "provider",
                    "type": "address"
                },
                {
                    "indexed": false,
                    "internalType": "uint256",
                    "name": "ethAmount",
                    "type": "uint256"
                },
                {
                    "indexed": false,
                    "internalType": "uint256",
                    "name": "tokenAmount",
                    "type": "uint256"
                }
            ],
            "name": "LiquidityRemoved",
            "type": "event"
        },
        {
            "anonymous": false,
            "inputs": [
                {
                    "indexed": true,
                    "internalType": "address",
                    "name": "previousOwner",
                    "type": "address"
                },
                {
                    "indexed": true,
                    "internalType": "address",
                    "name": "newOwner",
                    "type": "address"
                }
            ],
            "name": "OwnershipTransferred",
            "type": "event"
        },
        {
            "anonymous": false,
            "inputs": [
                {
                    "indexed": true,
                    "internalType": "address",
                    "name": "oldSequencer",
                    "type": "address"
                },
                {
                    "indexed": true,
                    "internalType": "address",
                    "name": "newSequencer",
                    "type": "address"
                }
            ],
            "name": "SequencerChanged",
            "type": "event"
        },
        {
            "anonymous": false,
            "inputs": [
                {
                    "indexed": false,
                    "internalType": "bool",
                    "name": "sequencerOnly",
                    "type": "bool"
                }
            ],
            "name": "SequencerModeChanged",
            "type": "event"
        },
        {
            "anonymous": false,
            "inputs": [
                {
                    "indexed": true,
                    "internalType": "address",
                    "name": "user",
                    "type": "address"
                },
                {
                    "indexed": false,
                    "internalType": "uint256",
                    "name": "amount",
                    "type": "uint256"
                },
                {
                    "indexed": false,
                    "internalType": "bool",
                    "name": "isEth",
                    "type": "bool"
                }
            ],
            "name": "Withdrawal",
            "type": "event"
        },
        {
            "inputs": [],
            "name": "FEE_DENOMINATOR",
            "outputs": [
                {
                    "internalType": "uint256",
                    "name": "",
                    "type": "uint256"
                }
            ],
            "stateMutability": "view",
            "type": "function"
        },
        {
            "inputs": [
                {
                    "internalType": "uint256",
                    "name": "ethAmount",
                    "type": "uint256"
                },
                {
                    "internalType": "uint256",
                    "name": "tokenAmount",
                    "type": "uint256"
                }
            ],
            "name": "addLiquidity",
            "outputs": [],
            "stateMutability": "nonpayable",
            "type": "function"
        },
        {
            "inputs": [
                {
                    "internalType": "uint256",
                    "name": "",
                    "type": "uint256"
                }
            ],
            "name": "batchIntentRoots",
            "outputs": [
                {
                    "internalType": "bytes32",
                    "name": "",
                    "type": "bytes32"
                }
            ],
            "stateMutability": "view",
            "type": "function"
        },
        {
            "inputs": [
                {
                    "internalType": "uint256",
                    "name": "",
                    "type": "uint256"
                }
            ],
            "name": "batchResults",
            "outputs": [
                {
                    "internalType": "uint256",
                    "name": "successCount",
                    "type": "uint256"
                }
            ],
            "stateMutability": "view",
            "type": "function"
        },
        {
            "inputs": [
                {
                    "internalType": "uint256",
                    "name": "",
                    "type": "uint256"
                }
            ],
            "name": "batchSubmissionTimes",
            "outputs": [
                {
                    "internalType": "uint256",
                    "name": "",
                    "type": "uint256"
                }
            ],
            "stateMutability": "view",
            "type": "function"
        },
        {
            "inputs": [
                {
                    "internalType": "uint256",
                    "name": "batchId",
                    "type": "uint256"
                },
                {
                    "internalType": "address[]",
                    "name": "users",
                    "type": "address[]"
                },
                {
                    "internalType": "bool[]",
                    "name": "ethToTokenFlags",
                    "type": "bool[]"
                },
                {
                    "internalType": "uint256[]",
                    "name": "amountsIn",
                    "type": "uint256[]"
                },
                {
                    "internalType": "uint256[]",
                    "name": "minAmountsOut",
                    "type": "uint256[]"
                },
                {
                    "internalType": "bytes32[][]",
                    "name": "proofs",
                    "type": "bytes32[][]"
                }
            ],
            "name": "batchSwap",
            "outputs": [],
            "stateMutability": "nonpayable",
            "type": "function"
        },
        {
            "inputs": [
                {
                    "internalType": "bytes32",
                    "name": "intentRoot",
                    "type": "bytes32"
                },
                {
                    "internalType": "uint256",
                    "name": "batchSize",
                    "type": "uint256"
                }
            ],
            "name": "commitBatchIntents",
            "outputs": [],
            "stateMutability": "nonpayable",
            "type": "function"
        },
        {
            "inputs": [],
            "name": "commitRevealDelay",
            "outputs": [
                {
                    "internalType": "uint256",
                    "name": "",
                    "type": "uint256"
                }
            ],
            "stateMutability": "view",
            "type": "function"
        },
        {
            "inputs": [],
            "name": "depositETH",
            "outputs": [],
            "stateMutability": "payable",
            "type": "function"
        },
        {
            "inputs": [
                {
                    "internalType": "uint256",
                    "name": "amount",
                    "type": "uint256"
                }
            ],
            "name": "depositToken",
            "outputs": [],
            "stateMutability": "nonpayable",
            "type": "function"
        },
        {
            "inputs": [],
            "name": "emergencyDisableSequencer",
            "outputs": [],
            "stateMutability": "nonpayable",
            "type": "function"
        },
        {
            "inputs": [
                {
                    "internalType": "address",
                    "name": "",
                    "type": "address"
                }
            ],
            "name": "ethBalances",
            "outputs": [
                {
                    "internalType": "uint256",
                    "name": "",
                    "type": "uint256"
                }
            ],
            "stateMutability": "view",
            "type": "function"
        },
        {
            "inputs": [],
            "name": "ethReserve",
            "outputs": [
                {
                    "internalType": "uint256",
                    "name": "",
                    "type": "uint256"
                }
            ],
            "stateMutability": "view",
            "type": "function"
        },
        {
            "inputs": [
                {
                    "internalType": "address",
                    "name": "user",
                    "type": "address"
                },
                {
                    "internalType": "bool",
                    "name": "ethToToken",
                    "type": "bool"
                },
                {
                    "internalType": "uint256",
                    "name": "amountIn",
                    "type": "uint256"
                },
                {
                    "internalType": "uint256",
                    "name": "minAmountOut",
                    "type": "uint256"
                }
            ],
            "name": "executeSwap",
            "outputs": [
                {
                    "internalType": "uint256",
                    "name": "amountOut",
                    "type": "uint256"
                }
            ],
            "stateMutability": "nonpayable",
            "type": "function"
        },
        {
            "inputs": [
                {
                    "internalType": "bool",
                    "name": "ethToToken",
                    "type": "bool"
                },
                {
                    "internalType": "uint256",
                    "name": "amountIn",
                    "type": "uint256"
                },
                {
                    "internalType": "uint256",
                    "name": "minAmountOut",
                    "type": "uint256"
                }
            ],
            "name": "fallbackSwap",
            "outputs": [
                {
                    "internalType": "uint256",
                    "name": "amountOut",
                    "type": "uint256"
                }
            ],
            "stateMutability": "nonpayable",
            "type": "function"
        },
        {
            "inputs": [],
            "name": "feeRate",
            "outputs": [
                {
                    "internalType": "uint256",
                    "name": "",
                    "type": "uint256"
                }
            ],
            "stateMutability": "view",
            "type": "function"
        },
        {
            "inputs": [
                {
                    "internalType": "bool",
                    "name": "ethToToken",
                    "type": "bool"
                },
                {
                    "internalType": "uint256",
                    "name": "amountIn",
                    "type": "uint256"
                }
            ],
            "name": "getAmountOut",
            "outputs": [
                {
                    "internalType": "uint256",
                    "name": "",
                    "type": "uint256"
                }
            ],
            "stateMutability": "view",
            "type": "function"
        },
        {
            "inputs": [
                {
                    "internalType": "uint256",
                    "name": "batchId",
                    "type": "uint256"
                },
                {
                    "internalType": "uint256",
                    "name": "swapIndex",
                    "type": "uint256"
                }
            ],
            "name": "getSwapResult",
            "outputs": [
                {
                    "internalType": "bool",
                    "name": "success",
                    "type": "bool"
                },
                {
                    "internalType": "string",
                    "name": "failureReason",
                    "type": "string"
                },
                {
                    "internalType": "uint256",
                    "name": "outputAmount",
                    "type": "uint256"
                }
            ],
            "stateMutability": "view",
            "type": "function"
        },
        {
            "inputs": [],
            "name": "lastBatchTimestamp",
            "outputs": [
                {
                    "internalType": "uint256",
                    "name": "",
                    "type": "uint256"
                }
            ],
            "stateMutability": "view",
            "type": "function"
        },
        {
            "inputs": [
                {
                    "internalType": "address",
                    "name": "",
                    "type": "address"
                }
            ],
            "name": "liquidityShares",
            "outputs": [
                {
                    "internalType": "uint256",
                    "name": "",
                    "type": "uint256"
                }
            ],
            "stateMutability": "view",
            "type": "function"
        },
        {
            "inputs": [],
            "name": "maxBatchDelay",
            "outputs": [
                {
                    "internalType": "uint256",
                    "name": "",
                    "type": "uint256"
                }
            ],
            "stateMutability": "view",
            "type": "function"
        },
        {
            "inputs": [],
            "name": "nextBatchId",
            "outputs": [
                {
                    "internalType": "uint256",
                    "name": "",
                    "type": "uint256"
                }
            ],
            "stateMutability": "view",
            "type": "function"
        },
        {
            "inputs": [],
            "name": "owner",
            "outputs": [
                {
                    "internalType": "address",
                    "name": "",
                    "type": "address"
                }
            ],
            "stateMutability": "view",
            "type": "function"
        },
        {
            "inputs": [
                {
                    "internalType": "uint256",
                    "name": "shareAmount",
                    "type": "uint256"
                }
            ],
            "name": "removeLiquidity",
            "outputs": [],
            "stateMutability": "nonpayable",
            "type": "function"
        },
        {
            "inputs": [],
            "name": "renounceOwnership",
            "outputs": [],
            "stateMutability": "nonpayable",
            "type": "function"
        },
        {
            "inputs": [],
            "name": "sequencer",
            "outputs": [
                {
                    "internalType": "address",
                    "name": "",
                    "type": "address"
                }
            ],
            "stateMutability": "view",
            "type": "function"
        },
        {
            "inputs": [],
            "name": "sequencerOnly",
            "outputs": [
                {
                    "internalType": "bool",
                    "name": "",
                    "type": "bool"
                }
            ],
            "stateMutability": "view",
            "type": "function"
        },
        {
            "inputs": [
                {
                    "internalType": "uint256",
                    "name": "_delay",
                    "type": "uint256"
                }
            ],
            "name": "setCommitRevealDelay",
            "outputs": [],
            "stateMutability": "nonpayable",
            "type": "function"
        },
        {
            "inputs": [
                {
                    "internalType": "uint256",
                    "name": "_feeRate",
                    "type": "uint256"
                }
            ],
            "name": "setFeeRate",
            "outputs": [],
            "stateMutability": "nonpayable",
            "type": "function"
        },
        {
            "inputs": [
                {
                    "internalType": "address",
                    "name": "newSequencer",
                    "type": "address"
                }
            ],
            "name": "setSequencer",
            "outputs": [],
            "stateMutability": "nonpayable",
            "type": "function"
        },
        {
            "inputs": [
                {
                    "internalType": "bool",
                    "name": "_sequencerOnly",
                    "type": "bool"
                }
            ],
            "name": "setSequencerOnly",
            "outputs": [],
            "stateMutability": "nonpayable",
            "type": "function"
        },
        {
            "inputs": [],
            "name": "token",
            "outputs": [
                {
                    "internalType": "contract IERC20",
                    "name": "",
                    "type": "address"
                }
            ],
            "stateMutability": "view",
            "type": "function"
        },
        {
            "inputs": [
                {
                    "internalType": "address",
                    "name": "",
                    "type": "address"
                }
            ],
            "name": "tokenBalances",
            "outputs": [
                {
                    "internalType": "uint256",
                    "name": "",
                    "type": "uint256"
                }
            ],
            "stateMutability": "view",
            "type": "function"
        },
        {
            "inputs": [],
            "name": "tokenReserve",
            "outputs": [
                {
                    "internalType": "uint256",
                    "name": "",
                    "type": "uint256"
                }
            ],
            "stateMutability": "view",
            "type": "function"
        },
        {
            "inputs": [],
            "name": "totalLiquidityShares",
            "outputs": [
                {
                    "internalType": "uint256",
                    "name": "",
                    "type": "uint256"
                }
            ],
            "stateMutability": "view",
            "type": "function"
        },
        {
            "inputs": [
                {
                    "internalType": "address",
                    "name": "newOwner",
                    "type": "address"
                }
            ],
            "name": "transferOwnership",
            "outputs": [],
            "stateMutability": "nonpayable",
            "type": "function"
        },
        {
            "inputs": [
                {
                    "internalType": "uint256",
                    "name": "batchId",
                    "type": "uint256"
                },
                {
                    "internalType": "address",
                    "name": "user",
                    "type": "address"
                },
                {
                    "internalType": "bool",
                    "name": "ethToToken",
                    "type": "bool"
                },
                {
                    "internalType": "uint256",
                    "name": "amountIn",
                    "type": "uint256"
                },
                {
                    "internalType": "uint256",
                    "name": "minAmountOut",
                    "type": "uint256"
                },
                {
                    "internalType": "bytes32[]",
                    "name": "proof",
                    "type": "bytes32[]"
                }
            ],
            "name": "verifySwapInclusion",
            "outputs": [
                {
                    "internalType": "bool",
                    "name": "",
                    "type": "bool"
                }
            ],
            "stateMutability": "view",
            "type": "function"
        },
        {
            "inputs": [
                {
                    "internalType": "uint256",
                    "name": "amount",
                    "type": "uint256"
                }
            ],
            "name": "withdrawETH",
            "outputs": [],
            "stateMutability": "nonpayable",
            "type": "function"
        },
        {
            "inputs": [
                {
                    "internalType": "uint256",
                    "name": "amount",
                    "type": "uint256"
                }
            ],
            "name": "withdrawToken",
            "outputs": [],
            "stateMutability": "nonpayable",
            "type": "function"
        }
    ],
    "bytecode": "0x60803461011957601f6123aa38819003918201601f19168301916001600160401b0383118484101761011e57808492604094855283398101031261011957610052602061004b83610134565b9201610134565b6001600160a01b0390911690811561010357600080546001600160a01b031981168417825560405193916001600160a01b03909116907f8be0079c531659141344cd1fd0a4f28419497f9722a3daafe3b4186f6b6457e09080a360018080556002805460ff60a01b1916600160a01b17905560146003818155600a55600d91909155600e55600780546001600160a01b0319166001600160a01b039290921691909117905561226190816101498239f35b631e4fbdf760e01b600052600060045260246000fd5b600080fd5b634e487b7160e01b600052604160045260246000fd5b51906001600160a01b03821682036101195756fe608080604052600436101561001357600080fd5b60003560e01c90816317d6263f14611d1a575080632547fa3e14611cb15780633cfba0e314611c7757806345596e2e14611c1a5780634db484e2146119f857806350baa62214611921578063523fba7f146118e757806354cc3c74146118bb5780635c1bba38146118925780636215be77146117ab5780636868bab51461111d5780636b27e2bb146110bd578063715018a61461106457806380a4f6df14610fce5780638290d9b814610f9f5780638462a7f814610f8157806387cd5b2014610f6357806388da2b2d14610f375780638da5cb5b14610f0e5780639729cc0514610ef0578063978bbdb914610ed25780639c8f9f2314610d365780639cd441da14610b1c5780639db4aa0414610ae2578063a03fd9c214610a2e578063b0b9b66a146108db578063b7afe9be146108bd578063c13c0ea514610891578063c901510b14610829578063cb29fdc71461071a578063cbcb3171146106fc578063d5e1070814610464578063d62ccb3f14610446578063d73792a914610429578063e71bfdc01461040b578063f14210a6146102e5578063f2fde38b1461025c578063f6326fb3146101fa5763fc0c546a146101cc57600080fd5b346101f55760003660031901126101f5576007546040516001600160a01b039091168152602090f35b600080fd5b60003660031901126101f557336000526005602052604060002061021f348254611e14565b9055604051348152600160208201524260408201527ffa430e490a18c9d02a4c0bf501c1b5821a600e09249e983f8491c6575dd5e42060603392a2005b346101f55760203660031901126101f557610275611d3d565b61027d61218f565b6001600160a01b031680156102cf57600080546001600160a01b03198116831782556001600160a01b0316907f8be0079c531659141344cd1fd0a4f28419497f9722a3daafe3b4186f6b6457e09080a3005b631e4fbdf760e01b600052600060045260246000fd5b346101f55760203660031901126101f5576004356103016121b8565b33600052600560205261031b816040600020541015611e81565b3360005260056020526040600020610334828254611df4565b9055600080808084335af13d15610406573d6001600160401b0381116103f0576040519061036c601f8201601f191660200183611ee8565b8152600060203d92013e5b156103b557604051908152600160208201527f06e0c61e7e9f4912ee1f3ce060b59207b98f9a232d711462af3166aeeed1250a60403392a260018055005b60405162461bcd60e51b8152602060048201526013602482015272115512081d1c985b9cd9995c8819985a5b1959606a1b6044820152606490fd5b634e487b7160e01b600052604160045260246000fd5b610377565b346101f55760003660031901126101f5576020600e54604051908152f35b346101f55760003660031901126101f55760206040516103e88152f35b346101f55760003660031901126101f5576020600854604051908152f35b346101f55760603660031901126101f55761047d611d53565b60443560243561048b6121b8565b600060ff60025460a01c166106b75783156105cb57503360005260056020526104bb816040600020541015611e81565b600a546103e8036103e881116105b5576104d59082611e01565b926104e284600954611e01565b93600854906103e88202918083046103e814901517156105b55760209561050f6105159261051e94611e14565b90611e21565b93841015611e41565b33600052600584526040600020610536838254611df4565b905533600052600684526040600020610550848254611e14565b905561055e82600854611e14565b60085561056d83600954611df4565b6009555b6040519182528284830152151560408201527faafe03bb75a5a17474aa34c7aa7923939142dcc00fad86ba2217a698e589053160603392a260018055604051908152f35b634e487b7160e01b600052601160045260246000fd5b9233845260066020526105e48260408620541015611da8565b600a546103e8036103e881116106a3576105fe9083611e01565b61060a81600854611e01565b94600954906103e88202918083046103e8149015171561068f575060209561050f6106389361051593611e14565b33600052600684526040600020610650838254611df4565b90553360005260058452604060002061066a848254611e14565b905561067882600954611e14565b60095561068783600854611df4565b600855610571565b634e487b7160e01b81526011600452602490fd5b634e487b7160e01b85526011600452602485fd5b60405162461bcd60e51b815260206004820152601860248201527f446972656374207377617073206e6f7420616c6c6f77656400000000000000006044820152606490fd5b346101f55760003660031901126101f5576020600954604051908152f35b346101f55760c03660031901126101f5576024356001600160a01b038116908190036101f5576044358015158091036101f55760a435906001600160401b0382116101f55760209261081a61077661081f943690600401611d62565b9290936040519161078683611ecd565b82528682015260643560408201526084356060820152600060808201526040516107fe816107f0898201948591909160808060a083019460018060a01b03815116845260208101511515602085015260408101516040850152606081015160608501520151910152565b03601f198101835282611ee8565b51902092600435600052600b8652604060002054923691611fe2565b6121da565b6040519015158152f35b346101f55760203660031901126101f5577f33d081570f4871cfc13364650930f27efe5e1be344da69c94d4e75c06fa02f046020610865611d53565b61086d61218f565b151560025460ff60a01b8260a01b169060ff60a01b191617600255604051908152a1005b346101f55760203660031901126101f557600435600052600b6020526020604060002054604051908152f35b346101f55760003660031901126101f5576020600454604051908152f35b346101f5576108e936611d92565b90600052600f6020526040600020908060005260018201602052600360ff60406000205416928260005260028101602052604060002092600052016020526040600020546040519182600082549261094084612037565b8084529360018116908115610a0c57506001146109c5575b5061096892509492940383611ee8565b604051928391151582526060602083015282519283606084015260005b8481106109ad5750509160809260008483850101526040830152601f80199101168101030190f35b60208282018101516080888401015286945001610985565b90506000929192526020600020906000915b8183106109f05750509060206109689282010186610958565b60209193508060019154838589010152019101909184926109d7565b90506020925061096894915060ff191682840152151560051b82010186610958565b346101f55760003660031901126101f557610a4e60045460035490611e14565b421115610a8f5760ff60a01b19600254166002557f33d081570f4871cfc13364650930f27efe5e1be344da69c94d4e75c06fa02f04602060405160008152a1005b60405162461bcd60e51b815260206004820152602560248201527f53657175656e636572206e6f7420636f6e7369646572656420696e616374697660448201526419481e595d60da1b6064820152608490fd5b346101f55760203660031901126101f5576001600160a01b03610b03611d3d565b1660005260106020526020604060002054604051908152f35b346101f557610b2a36611d92565b610b326121b8565b336000526005602052610b4c826040600020541015611e81565b336000526006602052610b66816040600020541015611da8565b60115480610cc45750815b8015610c8c57610bf2903360005260056020526040600020610b94858254611df4565b90553360005260066020526040600020610baf848254611df4565b9055610bbd84600854611e14565b600855610bcc83600954611e14565b6009553360005260106020526040600020610be8828254611e14565b9055601154611e14565b60115560405191825260208201527fac1d76749e5447b7b16f5ab61447e1bd502f3bb4807af3b28e620d1700a6ee4560403392a2600854151580610c81575b15610c3c5760018055005b60405162461bcd60e51b815260206004820152601760248201527f52657365727665732063616e6e6f74206265207a65726f0000000000000000006044820152606490fd5b506009541515610c31565b60405162461bcd60e51b815260206004820152601060248201526f139bc81cda185c995cc81b5a5b9d195960821b6044820152606490fd5b610cd060095484611e01565b60085490610cde8285611e01565b03610cfa57610cf0610cf59285611e01565b611e21565b610b71565b60405162461bcd60e51b8152602060048201526014602482015273556e62616c616e636564206c697175696469747960601b6044820152606490fd5b346101f55760203660031901126101f557600435610d526121b8565b3360005260106020528060406000205410610e9757610d7360085482611e01565b90610d91610d846011548094611e21565b92610cf060095484611e01565b9082151580610e8e575b15610e5557610dc7903360005260106020526040600020610dbd828254611df4565b9055601154611df4565b601155610dd682600854611df4565b600855610de581600954611df4565b6009553360005260056020526040600020610e01838254611e14565b90553360005260066020526040600020610e1c828254611e14565b905560405191825260208201527f96cd817c6329656790ef8fba7675405193677d39619571282f5e21f3a98cd05960403392a260018055005b60405162461bcd60e51b8152602060048201526011602482015270105b5bdd5b9d1cc81d1bdbc81cdb585b1b607a1b6044820152606490fd5b50811515610d9b565b60405162461bcd60e51b8152602060048201526013602482015272496e73756666696369656e742073686172657360681b6044820152606490fd5b346101f55760003660031901126101f5576020600a54604051908152f35b346101f55760003660031901126101f5576020600354604051908152f35b346101f55760003660031901126101f5576000546040516001600160a01b039091168152602090f35b346101f55760203660031901126101f557600435600052600f6020526020604060002054604051908152f35b346101f55760003660031901126101f5576020601154604051908152f35b346101f55760003660031901126101f5576020600d54604051908152f35b346101f55760403660031901126101f5576020610fc6610fbd611d53565b6024359061210d565b604051908152f35b346101f55760403660031901126101f55761105f600435610ffa60018060a01b03600254163314611f65565b600d54600052600b60205280604060002055600d54600052600c602052426040600020557fd94095e772153bc53343941705b59e466d4e8aca1062afe01193089d27ff3a7f6060600d54926040519084825260208201526024356040820152a1612088565b600d55005b346101f55760003660031901126101f55761107d61218f565b600080546001600160a01b0319811682556001600160a01b03167f8be0079c531659141344cd1fd0a4f28419497f9722a3daafe3b4186f6b6457e08280a3005b346101f55760203660031901126101f5576004356110d961218f565b610e1081116110e757600e55005b60405162461bcd60e51b815260206004820152600e60248201526d44656c617920746f6f206c6f6e6760901b6044820152606490fd5b346101f55760c03660031901126101f5576024356001600160401b0381116101f55761114d903690600401611d62565b906044356001600160401b0381116101f55761116d903690600401611d62565b91906064356001600160401b0381116101f55761118e903690600401611d62565b6084356001600160401b0381116101f5576111ad903690600401611d62565b909160a4356001600160401b0381116101f5576111ce903690600401611d62565b9790966111e660018060a01b03600254163314611f65565b6111ee6121b8565b600435600052600c60205261120b604060002054600e5490611e14565b421061176d57600435600052600b6020526040600020541561173257818a1480611729575b80611720575b80611717575b156116da57600435600052600f60205260406000209860005b8b81106112a0577fd4c22493e0aaec761df8f89beac249a28e68282a4c072c247156d6ce537618c960608d8d426004555460405191600435835260208301526040820152a160018055005b6112b36112ae828e86611fb1565b611fc1565b6112c66112c183878d611fb1565b611fd5565b6112d183888c611fb1565b356112dd848a8c611fb1565b3591604051936112ec85611ecd565b6001600160a01b03168085529015156020808601918252604080870194855260608088019687526000608098890190815282519384019586529351151591830191909152935193810193909352925193820193909352905160a08201526113568160c081016107f0565b519020828210156116c4578160051b8b0135601e198c3603018112156101f5578b016001600160401b038135116101f557803560051b360360208201136101f5578d916113bf91600435600052600b60205261081a604060002054913690602081359101611fe2565b15611648576112ae826113d29286611fb1565b6113e06112c183878d611fb1565b6113eb83888c611fb1565b356113f7848a8c611fb1565b6040516326da427160e11b81526001600160a01b039094166004850152911515602484015260448301523560648201526020816084816000305af160009181611612575b506115d357506001600060033d116115c5575b6308c379a014611473575b611467576001905b01611255565b6040513d6000823e3d90fd5b61147b612097565b80611487575b50611459565b905060009082825260018d016020526040822060ff19815416905582825260028d0160205260408220908051906001600160401b0382116115b15781906114ce8454612037565b601f8111611576575b50602090601f8311600114611513578592611508575b50508160011b916000199060031b1c19161790555b8d611481565b0151905038806114ed565b8486528186209250601f198416865b81811061155e5750908460019594939210611545575b505050811b019055611502565b015160001960f88460031b161c19169055388080611538565b92936020600181928786015181550195019301611522565b6115a19085875260208720601f850160051c810191602086106115a7575b601f0160051c0190612071565b386114d7565b9091508190611594565b634e487b7160e01b84526041600452602484fd5b600481803e5160e01c61144e565b9060019181600052828d0160205260406000208360ff198254161790556115fa8d54612088565b8d558160005260038d01602052604060002055611461565b90916020823d8211611640575b8161162c60209383611ee8565b8101031261163d575051908e61143b565b80fd5b3d915061161f565b5080600191600052818c01602052604060002060ff1981541690558060005260028c01602052604060002061167d8154612037565b601f81116116a2575b50601a6c24b73b30b634b210383937b7b360991b019055611461565b6116be9082600052601f6020600020910160051c810190612071565b8e611686565b634e487b7160e01b600052603260045260246000fd5b60405162461bcd60e51b8152602060048201526015602482015274082e4e4c2f240d8cadccee8d040dad2e6dac2e8c6d605b1b6044820152606490fd5b50888a1461123c565b50838a14611236565b50828a14611230565b60405162461bcd60e51b815260206004820152601360248201527210985d18da081b9bdd0818dbdb5b5a5d1d1959606a1b6044820152606490fd5b60405162461bcd60e51b8152602060048201526016602482015275135d5cdd081dd85a5d0818599d195c8818dbdb5b5a5d60521b6044820152606490fd5b346101f55760203660031901126101f5576004356000602060018060a01b03600754166064604051809481936323b872dd60e01b83523360048401523060248401528760448401525af180156114675761180d91600091611863575b50611f21565b3360005260066020526040600020611826828254611e14565b9055604051908152600060208201524260408201527ffa430e490a18c9d02a4c0bf501c1b5821a600e09249e983f8491c6575dd5e42060603392a2005b611885915060203d60201161188b575b61187d8183611ee8565b810190611f09565b83611807565b503d611873565b346101f55760003660031901126101f5576002546040516001600160a01b039091168152602090f35b346101f55760203660031901126101f557600435600052600c6020526020604060002054604051908152f35b346101f55760203660031901126101f5576001600160a01b03611908611d3d565b1660005260066020526020604060002054604051908152f35b346101f55760203660031901126101f55760043561193d6121b8565b336000526006602052611957816040600020541015611da8565b3360005260066020526040600020611970828254611df4565b905560075460405163a9059cbb60e01b81523360048201526024810183905290602090829060449082906000906001600160a01b03165af18015611467576119bf916000916118635750611f21565b604051908152600060208201527f06e0c61e7e9f4912ee1f3ce060b59207b98f9a232d711462af3166aeeed1250a60403392a260018055005b346101f55760803660031901126101f557611a11611d3d565b60243580151581036101f5576044359160643591303303611bd55715611b09576001600160a01b0316600081815260056020526040902054611a5590841115611e81565b600a546103e8036103e881116105b557611a6f9084611e01565b92611a7c84600954611e01565b916008546103e88102908082046103e814901517156105b557611aab611aef9461050f602098611ab494611e14565b94851015611e41565b80600052600585526040600020611acc838254611df4565b9055600052600684526040600020611ae5848254611e14565b9055600854611e14565b600855611afe81600954611df4565b600955604051908152f35b6001600160a01b0316600081815260066020526040902054611b2d90841115611da8565b600a546103e8036103e881116105b557611b479084611e01565b92611b5484600854611e01565b916009546103e88102908082046103e814901517156105b557611aab611bbe9461050f602098611b8394611e14565b80600052600685526040600020611b9b838254611df4565b9055600052600584526040600020611bb4848254611e14565b9055600954611e14565b600955611bcd81600854611df4565b600855610fc6565b60405162461bcd60e51b815260206004820152601860248201527f4f6e6c792063616c6c61626c6520696e7465726e616c6c7900000000000000006044820152606490fd5b346101f55760203660031901126101f557600435611c3661218f565b60328111611c4357600a55005b60405162461bcd60e51b815260206004820152600c60248201526b08ccaca40e8dede40d0d2ced60a31b6044820152606490fd5b346101f55760203660031901126101f5576001600160a01b03611c98611d3d565b1660005260056020526020604060002054604051908152f35b346101f55760203660031901126101f557611cca611d3d565b611cd261218f565b6002546001600160a01b0391821691829082167f6ec88bae255aa7e73521c3beb17e9bc7940169e669440c5531733c0d2e91110d600080a36001600160a01b03191617600255005b346101f55760003660031901126101f55760209060ff60025460a01c1615158152f35b600435906001600160a01b03821682036101f557565b6004359081151582036101f557565b9181601f840112156101f5578235916001600160401b0383116101f5576020808501948460051b0101116101f557565b60409060031901126101f5576004359060243590565b15611daf57565b60405162461bcd60e51b815260206004820152601a60248201527f496e73756666696369656e7420746f6b656e2062616c616e63650000000000006044820152606490fd5b919082039182116105b557565b818102929181159184041417156105b557565b919082018092116105b557565b8115611e2b570490565b634e487b7160e01b600052601260045260246000fd5b15611e4857565b60405162461bcd60e51b81526020600482015260116024820152700a6d8d2e0e0c2ceca40e8dede40d0d2ced607b1b6044820152606490fd5b15611e8857565b60405162461bcd60e51b815260206004820152601860248201527f496e73756666696369656e74204554482062616c616e636500000000000000006044820152606490fd5b60a081019081106001600160401b038211176103f057604052565b90601f801991011681019081106001600160401b038211176103f057604052565b908160209103126101f5575180151581036101f55790565b15611f2857565b60405162461bcd60e51b8152602060048201526015602482015274151bdad95b881d1c985b9cd9995c8819985a5b1959605a1b6044820152606490fd5b15611f6c57565b60405162461bcd60e51b815260206004820152601760248201527f4f6e6c792073657175656e6365722063616e2063616c6c0000000000000000006044820152606490fd5b91908110156116c45760051b0190565b356001600160a01b03811681036101f55790565b3580151581036101f55790565b929190926001600160401b0384116103f0578360051b90602060405161200a82850182611ee8565b80968152019181019283116101f557905b82821061202757505050565b813581526020918201910161201b565b90600182811c92168015612067575b602083101461205157565b634e487b7160e01b600052602260045260246000fd5b91607f1691612046565b81811061207c575050565b60008155600101612071565b60001981146105b55760010190565b600060443d106120fc576040513d600319016004823e8051913d60248401116001600160401b0384111761210757828201928351916001600160401b0383116120ff573d840160031901858401602001116120ff57506120fc92910160200190611ee8565b90565b949350505050565b92915050565b90600a546103e8036103e881116105b55761212791611e01565b901561215e5761213981600954611e01565b6008546103e88102908082046103e814901517156105b5576120fc9261050f91611e14565b61216a81600854611e01565b6009546103e88102908082046103e814901517156105b5576120fc9261050f91611e14565b6000546001600160a01b031633036121a357565b63118cdaa760e01b6000523360045260246000fd5b6002600154146121c9576002600155565b633ee5aeb560e01b60005260046000fd5b929091906000915b845183101561222357604060019160009060208660051b8901015190818110600014612217578252602052205b9201916121e2565b9082526020522061220f565b91509250149056fea26469706673582212201eb7333889633f945c58a5efaa546a34c0e2b08a0d03665695ea0df33e6e579964736f6c634300081c0033",
    "linkReferences": {},
    "deployedLinkReferences": {}
}