{"contracts/SequencedAMM.sol":{"SequencedAMM":{"abi":[{"inputs":[{"internalType":"address","name":"initialOwner","type":"address"},{"internalType":"address","name":"tokenAddress","type":"address"}],"stateMutability":"nonpayable","type":"constructor"},{"inputs":[{"internalType":"address","name":"owner","type":"address"}],"name":"OwnableInvalidOwner","type":"error"},{"inputs":[{"internalType":"address","name":"account","type":"address"}],"name":"OwnableUnauthorizedAccount","type":"error"},{"inputs":[],"name":"ReentrancyGuardReentrantCall","type":"error"},{"anonymous":false,"inputs":[{"indexed":false,"internalType":"uint256","name":"batchId","type":"uint256"},{"indexed":false,"internalType":"bytes32","name":"intentRoot","type":"bytes32"},{"indexed":false,"internalType":"uint256","name":"batchSize","type":"uint256"}],"name":"BatchCommitted","type":"event"},{"anonymous":false,"inputs":[{"indexed":false,"internalType":"uint256","name":"batchId","type":"uint256"},{"indexed":false,"internalType":"uint256","name":"swapCount","type":"uint256"}],"name":"BatchSwap","type":"event"},{"anonymous":false,"inputs":[{"indexed":false,"internalType":"uint256","name":"batchId","type":"uint256"},{"indexed":false,"internalType":"uint256","name":"swapCount","type":"uint256"},{"indexed":false,"internalType":"uint256","name":"successCount","type":"uint256"}],"name":"BatchSwapExecuted","type":"event"},{"anonymous":false,"inputs":[{"indexed":true,"internalType":"address","name":"user","type":"address"},{"indexed":false,"internalType":"uint256","name":"amount","type":"uint256"},{"indexed":false,"internalType":"bool","name":"isEth","type":"bool"},{"indexed":false,"internalType":"uint256","name":"timestamp","type":"uint256"}],"name":"Deposit","type":"event"},{"anonymous":false,"inputs":[{"indexed":true,"internalType":"address","name":"user","type":"address"},{"indexed":false,"internalType":"uint256","name":"amountIn","type":"uint256"},{"indexed":false,"internalType":"uint256","name":"amountOut","type":"uint256"},{"indexed":false,"internalType":"bool","name":"ethToToken","type":"bool"}],"name":"FallbackSwap","type":"event"},{"anonymous":false,"inputs":[{"indexed":true,"internalType":"address","name":"provider","type":"address"},{"indexed":false,"internalType":"uint256","name":"ethAmount","type":"uint256"},{"indexed":false,"internalType":"uint256","name":"tokenAmount","type":"uint256"}],"name":"LiquidityAdded","type":"event"},{"anonymous":false,"inputs":[{"indexed":true,"internalType":"address","name":"provider","type":"address"},{"indexed":false,"internalType":"uint256","name":"ethAmount","type":"uint256"},{"indexed":false,"internalType":"uint256","name":"tokenAmount","type":"uint256"}],"name":"LiquidityRemoved","type":"event"},{"anonymous":false,"inputs":[{"indexed":true,"internalType":"address","name":"previousOwner","type":"address"},{"indexed":true,"internalType":"address","name":"newOwner","type":"address"}],"name":"OwnershipTransferred","type":"event"},{"anonymous":false,"inputs":[{"indexed":true,"internalType":"address","name":"oldSequencer","type":"address"},{"indexed":true,"internalType":"address","name":"newSequencer","type":"address"}],"name":"SequencerChanged","type":"event"},{"anonymous":false,"inputs":[{"indexed":false,"internalType":"bool","name":"sequencerOnly","type":"bool"}],"name":"SequencerModeChanged","type":"event"},{"anonymous":false,"inputs":[{"indexed":true,"internalType":"address","name":"user","type":"address"},{"indexed":false,"internalType":"uint256","name":"amount","type":"uint256"},{"indexed":false,"internalType":"bool","name":"isEth","type":"bool"}],"name":"Withdrawal","type":"event"},{"inputs":[],"name":"FEE_DENOMINATOR","outputs":[{"internalType":"uint256","name":"","type":"uint256"}],"stateMutability":"view","type":"function"},{"inputs":[{"internalType":"uint256","name":"ethAmount","type":"uint256"},{"internalType":"uint256","name":"tokenAmount","type":"uint256"}],"name":"addLiquidity","outputs":[],"stateMutability":"nonpayable","type":"function"},{"inputs":[{"internalType":"uint256","name":"","type":"uint256"}],"name":"batchIntentRoots","outputs":[{"internalType":"bytes32","name":"","type":"bytes32"}],"stateMutability":"view","type":"function"},{"inputs":[{"internalType":"uint256","name":"","type":"uint256"}],"name":"batchResults","outputs":[{"internalType":"uint256","name":"successCount","type":"uint256"}],"stateMutability":"view","type":"function"},{"inputs":[{"internalType":"uint256","name":"","type":"uint256"}],"name":"batchSubmissionTimes","outputs":[{"internalType":"uint256","name":"","type":"uint256"}],"stateMutability":"view","type":"function"},{"inputs":[{"internalType":"uint256","name":"batchId","type":"uint256"},{"internalType":"address[]","name":"users","type":"address[]"},{"internalType":"bool[]","name":"ethToTokenFlags","type":"bool[]"},{"internalType":"uint256[]","name":"amountsIn","type":"uint256[]"},{"internalType":"uint256[]","name":"minAmountsOut","type":"uint256[]"},{"internalType":"bytes32[][]","name":"proofs","type":"bytes32[][]"}],"name":"batchSwap","outputs":[],"stateMutability":"nonpayable","type":"function"},{"inputs":[{"internalType":"bytes32","name":"intentRoot","type":"bytes32"},{"internalType":"uint256","name":"batchSize","type":"uint256"}],"name":"commitBatchIntents","outputs":[],"stateMutability":"nonpayable","type":"function"},{"inputs":[],"name":"commitRevealDelay","outputs":[{"internalType":"uint256","name":"","type":"uint256"}],"stateMutability":"view","type":"function"},{"inputs":[],"name":"depositETH","outputs":[],"stateMutability":"payable","type":"function"},{"inputs":[{"internalType":"uint256","name":"amount","type":"uint256"}],"name":"depositToken","outputs":[],"stateMutability":"nonpayable","type":"function"},{"inputs":[],"name":"emergencyDisableSequencer","outputs":[],"stateMutability":"nonpayable","type":"function"},{"inputs":[{"internalType":"address","name":"","type":"address"}],"name":"ethBalances","outputs":[{"internalType":"uint256","name":"","type":"uint256"}],"stateMutability":"view","type":"function"},{"inputs":[],"name":"ethReserve","outputs":[{"internalType":"uint256","name":"","type":"uint256"}],"stateMutability":"view","type":"function"},{"inputs":[{"internalType":"address","name":"user","type":"address"},{"internalType":"bool","name":"ethToToken","type":"bool"},{"internalType":"uint256","name":"amountIn","type":"uint256"},{"internalType":"uint256","name":"minAmountOut","type":"uint256"}],"name":"executeSwap","outputs":[{"internalType":"uint256","name":"amountOut","type":"uint256"}],"stateMutability":"nonpayable","type":"function"},{"inputs":[{"internalType":"bool","name":"ethToToken","type":"bool"},{"internalType":"uint256","name":"amountIn","type":"uint256"},{"internalType":"uint256","name":"minAmountOut","type":"uint256"}],"name":"fallbackSwap","outputs":[{"internalType":"uint256","name":"amountOut","type":"uint256"}],"stateMutability":"nonpayable","type":"function"},{"inputs":[],"name":"feeRate","outputs":[{"internalType":"uint256","name":"","type":"uint256"}],"stateMutability":"view","type":"function"},{"inputs":[{"internalType":"bool","name":"ethToToken","type":"bool"},{"internalType":"uint256","name":"amountIn","type":"uint256"}],"name":"getAmountOut","outputs":[{"internalType":"uint256","name":"","type":"uint256"}],"stateMutability":"view","type":"function"},{"inputs":[{"internalType":"uint256","name":"batchId","type":"uint256"},{"internalType":"uint256","name":"swapIndex","type":"uint256"}],"name":"getSwapResult","outputs":[{"internalType":"bool","name":"success","type":"bool"},{"internalType":"string","name":"failureReason","type":"string"}],"stateMutability":"view","type":"function"},{"inputs":[],"name":"lastBatchTimestamp","outputs":[{"internalType":"uint256","name":"","type":"uint256"}],"stateMutability":"view","type":"function"},{"inputs":[{"internalType":"address","name":"","type":"address"}],"name":"liquidityShares","outputs":[{"internalType":"uint256","name":"","type":"uint256"}],"stateMutability":"view","type":"function"},{"inputs":[],"name":"maxBatchDelay","outputs":[{"internalType":"uint256","name":"","type":"uint256"}],"stateMutability":"view","type":"function"},{"inputs":[],"name":"nextBatchId","outputs":[{"internalType":"uint256","name":"","type":"uint256"}],"stateMutability":"view","type":"function"},{"inputs":[],"name":"owner","outputs":[{"internalType":"address","name":"","type":"address"}],"stateMutability":"view","type":"function"},{"inputs":[{"internalType":"uint256","name":"shareAmount","type":"uint256"}],"name":"removeLiquidity","outputs":[],"stateMutability":"nonpayable","type":"function"},{"inputs":[],"name":"renounceOwnership","outputs":[],"stateMutability":"nonpayable","type":"function"},{"inputs":[],"name":"sequencer","outputs":[{"internalType":"address","name":"","type":"address"}],"stateMutability":"view","type":"function"},{"inputs":[],"name":"sequencerOnly","outputs":[{"internalType":"bool","name":"","type":"bool"}],"stateMutability":"view","type":"function"},{"inputs":[{"internalType":"uint256","name":"_delay","type":"uint256"}],"name":"setCommitRevealDelay","outputs":[],"stateMutability":"nonpayable","type":"function"},{"inputs":[{"internalType":"uint256","name":"_feeRate","type":"uint256"}],"name":"setFeeRate","outputs":[],"stateMutability":"nonpayable","type":"function"},{"inputs":[{"internalType":"address","name":"newSequencer","type":"address"}],"name":"setSequencer","outputs":[],"stateMutability":"nonpayable","type":"function"},{"inputs":[{"internalType":"bool","name":"_sequencerOnly","type":"bool"}],"name":"setSequencerOnly","outputs":[],"stateMutability":"nonpayable","type":"function"},{"inputs":[],"name":"token","outputs":[{"internalType":"contract IERC20","name":"","type":"address"}],"stateMutability":"view","type":"function"},{"inputs":[{"internalType":"address","name":"","type":"address"}],"name":"tokenBalances","outputs":[{"internalType":"uint256","name":"","type":"uint256"}],"stateMutability":"view","type":"function"},{"inputs":[],"name":"tokenReserve","outputs":[{"internalType":"uint256","name":"","type":"uint256"}],"stateMutability":"view","type":"function"},{"inputs":[],"name":"totalLiquidityShares","outputs":[{"internalType":"uint256","name":"","type":"uint256"}],"stateMutability":"view","type":"function"},{"inputs":[{"internalType":"address","name":"newOwner","type":"address"}],"name":"transferOwnership","outputs":[],"stateMutability":"nonpayable","type":"function"},{"inputs":[{"internalType":"uint256","name":"batchId","type":"uint256"},{"internalType":"address","name":"user","type":"address"},{"internalType":"bool","name":"ethToToken","type":"bool"},{"internalType":"uint256","name":"amountIn","type":"uint256"},{"internalType":"uint256","name":"minAmountOut","type":"uint256"},{"internalType":"bytes32[]","name":"proof","type":"bytes32[]"}],"name":"verifySwapInclusion","outputs":[{"internalType":"bool","name":"","type":"bool"}],"stateMutability":"view","type":"function"},{"inputs":[{"internalType":"uint256","name":"amount","type":"uint256"}],"name":"withdrawETH","outputs":[],"stateMutability":"nonpayable","type":"function"},{"inputs":[{"internalType":"uint256","name":"amount","type":"uint256"}],"name":"withdrawToken","outputs":[],"stateMutability":"nonpayable","type":"function"}],"evm":{"bytecode":{"linkReferences":{},"object":"60803461011957601f61237838819003918201601f19168301916001600160401b0383118484101761011e57808492604094855283398101031261011957610052602061004b83610134565b9201610134565b6001600160a01b0390911690811561010357600080546001600160a01b031981168417825560405193916001600160a01b03909116907f8be0079c531659141344cd1fd0a4f28419497f9722a3daafe3b4186f6b6457e09080a360018080556002805460ff60a01b1916600160a01b17905561012c6003908155600a55600d5560b4600e55600780546001600160a01b0319166001600160a01b039290921691909117905561222f90816101498239f35b631e4fbdf760e01b600052600060045260246000fd5b600080fd5b634e487b7160e01b600052604160045260246000fd5b51906001600160a01b03821682036101195756fe608080604052600436101561001357600080fd5b60003560e01c90816317d6263f14611ce8575080632547fa3e14611c7f5780633cfba0e314611c4557806345596e2e14611be85780634db484e2146119c657806350baa622146118ef578063523fba7f146118b557806354cc3c74146118895780635c1bba38146118605780636215be77146117795780636868bab5146111005780636b27e2bb146110a0578063715018a61461104757806380a4f6df14610fb15780638290d9b814610f825780638462a7f814610f6457806387cd5b2014610f4657806388da2b2d14610f1a5780638da5cb5b14610ef15780639729cc0514610ed3578063978bbdb914610eb55780639c8f9f2314610d195780639cd441da14610aff5780639db4aa0414610ac5578063a03fd9c214610a11578063b0b9b66a146108db578063b7afe9be146108bd578063c13c0ea514610891578063c901510b14610829578063cb29fdc71461071a578063cbcb3171146106fc578063d5e1070814610464578063d62ccb3f14610446578063d73792a914610429578063e71bfdc01461040b578063f14210a6146102e5578063f2fde38b1461025c578063f6326fb3146101fa5763fc0c546a146101cc57600080fd5b346101f55760003660031901126101f5576007546040516001600160a01b039091168152602090f35b600080fd5b60003660031901126101f557336000526005602052604060002061021f348254611de2565b9055604051348152600160208201524260408201527ffa430e490a18c9d02a4c0bf501c1b5821a600e09249e983f8491c6575dd5e42060603392a2005b346101f55760203660031901126101f557610275611d0b565b61027d61215d565b6001600160a01b031680156102cf57600080546001600160a01b03198116831782556001600160a01b0316907f8be0079c531659141344cd1fd0a4f28419497f9722a3daafe3b4186f6b6457e09080a3005b631e4fbdf760e01b600052600060045260246000fd5b346101f55760203660031901126101f557600435610301612186565b33600052600560205261031b816040600020541015611e4f565b3360005260056020526040600020610334828254611dc2565b9055600080808084335af13d15610406573d6001600160401b0381116103f0576040519061036c601f8201601f191660200183611eb6565b8152600060203d92013e5b156103b557604051908152600160208201527f06e0c61e7e9f4912ee1f3ce060b59207b98f9a232d711462af3166aeeed1250a60403392a260018055005b60405162461bcd60e51b8152602060048201526013602482015272115512081d1c985b9cd9995c8819985a5b1959606a1b6044820152606490fd5b634e487b7160e01b600052604160045260246000fd5b610377565b346101f55760003660031901126101f5576020600e54604051908152f35b346101f55760003660031901126101f55760206040516103e88152f35b346101f55760003660031901126101f5576020600854604051908152f35b346101f55760603660031901126101f55761047d611d21565b60443560243561048b612186565b600060ff60025460a01c166106b75783156105cb57503360005260056020526104bb816040600020541015611e4f565b600a546103e8036103e881116105b5576104d59082611dcf565b926104e284600954611dcf565b93600854906103e88202918083046103e814901517156105b55760209561050f6105159261051e94611de2565b90611def565b93841015611e0f565b33600052600584526040600020610536838254611dc2565b905533600052600684526040600020610550848254611de2565b905561055e82600854611de2565b60085561056d83600954611dc2565b6009555b6040519182528284830152151560408201527faafe03bb75a5a17474aa34c7aa7923939142dcc00fad86ba2217a698e589053160603392a260018055604051908152f35b634e487b7160e01b600052601160045260246000fd5b9233845260066020526105e48260408620541015611d76565b600a546103e8036103e881116106a3576105fe9083611dcf565b61060a81600854611dcf565b94600954906103e88202918083046103e8149015171561068f575060209561050f6106389361051593611de2565b33600052600684526040600020610650838254611dc2565b90553360005260058452604060002061066a848254611de2565b905561067882600954611de2565b60095561068783600854611dc2565b600855610571565b634e487b7160e01b81526011600452602490fd5b634e487b7160e01b85526011600452602485fd5b60405162461bcd60e51b815260206004820152601860248201527f446972656374207377617073206e6f7420616c6c6f77656400000000000000006044820152606490fd5b346101f55760003660031901126101f5576020600954604051908152f35b346101f55760c03660031901126101f5576024356001600160a01b038116908190036101f5576044358015158091036101f55760a435906001600160401b0382116101f55760209261081a61077661081f943690600401611d30565b9290936040519161078683611e9b565b82528682015260643560408201526084356060820152600060808201526040516107fe816107f0898201948591909160808060a083019460018060a01b03815116845260208101511515602085015260408101516040850152606081015160608501520151910152565b03601f198101835282611eb6565b51902092600435600052600b8652604060002054923691611fb0565b6121a8565b6040519015158152f35b346101f55760203660031901126101f5577f33d081570f4871cfc13364650930f27efe5e1be344da69c94d4e75c06fa02f046020610865611d21565b61086d61215d565b151560025460ff60a01b8260a01b169060ff60a01b191617600255604051908152a1005b346101f55760203660031901126101f557600435600052600b6020526020604060002054604051908152f35b346101f55760003660031901126101f5576020600454604051908152f35b346101f5576108e936611d60565b90600052600f60205260026040600020826000526001810160205260ff60406000205416926000520160205260406000206040519081600082549261092d84612005565b80845293600181169081156109ef57506001146109a8575b5061095292500382611eb6565b6040519115158252604060208301528181519182604083015260005b8381106109905750508160006060809484010152601f80199101168101030190f35b6020828201810151606087840101528593500161096e565b90506000929192526020600020906000915b8183106109d35750509060206109529282010185610945565b60209193508060019154838588010152019101909183926109ba565b90506020925061095294915060ff191682840152151560051b82010185610945565b346101f55760003660031901126101f557610a3160045460035490611de2565b421115610a725760ff60a01b19600254166002557f33d081570f4871cfc13364650930f27efe5e1be344da69c94d4e75c06fa02f04602060405160008152a1005b60405162461bcd60e51b815260206004820152602560248201527f53657175656e636572206e6f7420636f6e7369646572656420696e616374697660448201526419481e595d60da1b6064820152608490fd5b346101f55760203660031901126101f5576001600160a01b03610ae6611d0b565b1660005260106020526020604060002054604051908152f35b346101f557610b0d36611d60565b610b15612186565b336000526005602052610b2f826040600020541015611e4f565b336000526006602052610b49816040600020541015611d76565b60115480610ca75750815b8015610c6f57610bd5903360005260056020526040600020610b77858254611dc2565b90553360005260066020526040600020610b92848254611dc2565b9055610ba084600854611de2565b600855610baf83600954611de2565b6009553360005260106020526040600020610bcb828254611de2565b9055601154611de2565b60115560405191825260208201527fac1d76749e5447b7b16f5ab61447e1bd502f3bb4807af3b28e620d1700a6ee4560403392a2600854151580610c64575b15610c1f5760018055005b60405162461bcd60e51b815260206004820152601760248201527f52657365727665732063616e6e6f74206265207a65726f0000000000000000006044820152606490fd5b506009541515610c14565b60405162461bcd60e51b815260206004820152601060248201526f139bc81cda185c995cc81b5a5b9d195960821b6044820152606490fd5b610cb360095484611dcf565b60085490610cc18285611dcf565b03610cdd57610cd3610cd89285611dcf565b611def565b610b54565b60405162461bcd60e51b8152602060048201526014602482015273556e62616c616e636564206c697175696469747960601b6044820152606490fd5b346101f55760203660031901126101f557600435610d35612186565b3360005260106020528060406000205410610e7a57610d5660085482611dcf565b90610d74610d676011548094611def565b92610cd360095484611dcf565b9082151580610e71575b15610e3857610daa903360005260106020526040600020610da0828254611dc2565b9055601154611dc2565b601155610db982600854611dc2565b600855610dc881600954611dc2565b6009553360005260056020526040600020610de4838254611de2565b90553360005260066020526040600020610dff828254611de2565b905560405191825260208201527f96cd817c6329656790ef8fba7675405193677d39619571282f5e21f3a98cd05960403392a260018055005b60405162461bcd60e51b8152602060048201526011602482015270105b5bdd5b9d1cc81d1bdbc81cdb585b1b607a1b6044820152606490fd5b50811515610d7e565b60405162461bcd60e51b8152602060048201526013602482015272496e73756666696369656e742073686172657360681b6044820152606490fd5b346101f55760003660031901126101f5576020600a54604051908152f35b346101f55760003660031901126101f5576020600354604051908152f35b346101f55760003660031901126101f5576000546040516001600160a01b039091168152602090f35b346101f55760203660031901126101f557600435600052600f6020526020604060002054604051908152f35b346101f55760003660031901126101f5576020601154604051908152f35b346101f55760003660031901126101f5576020600d54604051908152f35b346101f55760403660031901126101f5576020610fa9610fa0611d21565b602435906120db565b604051908152f35b346101f55760403660031901126101f557611042600435610fdd60018060a01b03600254163314611f33565b600d54600052600b60205280604060002055600d54600052600c602052426040600020557fd94095e772153bc53343941705b59e466d4e8aca1062afe01193089d27ff3a7f6060600d54926040519084825260208201526024356040820152a1612056565b600d55005b346101f55760003660031901126101f55761106061215d565b600080546001600160a01b0319811682556001600160a01b03167f8be0079c531659141344cd1fd0a4f28419497f9722a3daafe3b4186f6b6457e08280a3005b346101f55760203660031901126101f5576004356110bc61215d565b610e1081116110ca57600e55005b60405162461bcd60e51b815260206004820152600e60248201526d44656c617920746f6f206c6f6e6760901b6044820152606490fd5b346101f55760c03660031901126101f5576024356001600160401b0381116101f557611130903690600401611d30565b906044356001600160401b0381116101f557611150903690600401611d30565b91906064356001600160401b0381116101f557611171903690600401611d30565b6084356001600160401b0381116101f557611190903690600401611d30565b909160a4356001600160401b0381116101f5576111b1903690600401611d30565b9790966111c960018060a01b03600254163314611f33565b6111d1612186565b600435600052600c6020526111ee604060002054600e5490611de2565b421061173b57600435600052600b6020526040600020541561170057818a14806116f7575b806116ee575b806116e5575b156116a857600435600052600f60205260406000209860005b8b8110611283577fd4c22493e0aaec761df8f89beac249a28e68282a4c072c247156d6ce537618c960608d8d426004555460405191600435835260208301526040820152a160018055005b611296611291828e86611f7f565b611f8f565b6112a96112a483878d611f7f565b611fa3565b6112b483888c611f7f565b356112c0848a8c611f7f565b3591604051936112cf85611e9b565b6001600160a01b03168085529015156020808601918252604080870194855260608088019687526000608098890190815282519384019586529351151591830191909152935193810193909352925193820193909352905160a08201526113398160c081016107f0565b51902082821015611692578160051b8b0135601e198c3603018112156101f5578b016001600160401b038135116101f557803560051b360360208201136101f5578d916113a291600435600052600b60205261081a604060002054913690602081359101611fb0565b1561161657611291826113b59286611f7f565b6113c36112a483878d611f7f565b6113ce83888c611f7f565b356113da848a8c611f7f565b6040516326da427160e11b81526001600160a01b039094166004850152911515602484015260448301523560648201526020816084816000305af1906000826115e3575b50506115b6576001600060033d116115a8575b6308c379a014611456575b61144a576001905b01611238565b6040513d6000823e3d90fd5b61145e612065565b8061146a575b5061143c565b905060009082825260018d016020526040822060ff19815416905582825260028d0160205260408220908051906001600160401b0382116115945781906114b18454612005565b601f8111611559575b50602090601f83116001146114f65785926114eb575b50508160011b916000199060031b1c19161790555b8d611464565b0151905038806114d0565b8486528186209250601f198416865b8181106115415750908460019594939210611528575b505050811b0190556114e5565b015160001960f88460031b161c1916905538808061151b565b92936020600181928786015181550195019301611505565b6115849085875260208720601f850160051c8101916020861061158a575b601f0160051c019061203f565b386114ba565b9091508190611577565b634e487b7160e01b84526041600452602484fd5b600481803e5160e01c611431565b80600191600052818c0160205260406000208260ff198254161790556115dc8c54612056565b8c55611444565b6020823d821161160e575b816115fb60209383611eb6565b8101031261160b5750518e61141e565b80fd5b3d91506115ee565b5080600191600052818c01602052604060002060ff1981541690558060005260028c01602052604060002061164b8154612005565b601f8111611670575b50601a6c24b73b30b634b210383937b7b360991b019055611444565b61168c9082600052601f6020600020910160051c81019061203f565b8e611654565b634e487b7160e01b600052603260045260246000fd5b60405162461bcd60e51b8152602060048201526015602482015274082e4e4c2f240d8cadccee8d040dad2e6dac2e8c6d605b1b6044820152606490fd5b50888a1461121f565b50838a14611219565b50828a14611213565b60405162461bcd60e51b815260206004820152601360248201527210985d18da081b9bdd0818dbdb5b5a5d1d1959606a1b6044820152606490fd5b60405162461bcd60e51b8152602060048201526016602482015275135d5cdd081dd85a5d0818599d195c8818dbdb5b5a5d60521b6044820152606490fd5b346101f55760203660031901126101f5576004356000602060018060a01b03600754166064604051809481936323b872dd60e01b83523360048401523060248401528760448401525af1801561144a576117db91600091611831575b50611eef565b33600052600660205260406000206117f4828254611de2565b9055604051908152600060208201524260408201527ffa430e490a18c9d02a4c0bf501c1b5821a600e09249e983f8491c6575dd5e42060603392a2005b611853915060203d602011611859575b61184b8183611eb6565b810190611ed7565b836117d5565b503d611841565b346101f55760003660031901126101f5576002546040516001600160a01b039091168152602090f35b346101f55760203660031901126101f557600435600052600c6020526020604060002054604051908152f35b346101f55760203660031901126101f5576001600160a01b036118d6611d0b565b1660005260066020526020604060002054604051908152f35b346101f55760203660031901126101f55760043561190b612186565b336000526006602052611925816040600020541015611d76565b336000526006602052604060002061193e828254611dc2565b905560075460405163a9059cbb60e01b81523360048201526024810183905290602090829060449082906000906001600160a01b03165af1801561144a5761198d916000916118315750611eef565b604051908152600060208201527f06e0c61e7e9f4912ee1f3ce060b59207b98f9a232d711462af3166aeeed1250a60403392a260018055005b346101f55760803660031901126101f5576119df611d0b565b60243580151581036101f5576044359160643591303303611ba35715611ad7576001600160a01b0316600081815260056020526040902054611a2390841115611e4f565b600a546103e8036103e881116105b557611a3d9084611dcf565b92611a4a84600954611dcf565b916008546103e88102908082046103e814901517156105b557611a79611abd9461050f602098611a8294611de2565b94851015611e0f565b80600052600585526040600020611a9a838254611dc2565b9055600052600684526040600020611ab3848254611de2565b9055600854611de2565b600855611acc81600954611dc2565b600955604051908152f35b6001600160a01b0316600081815260066020526040902054611afb90841115611d76565b600a546103e8036103e881116105b557611b159084611dcf565b92611b2284600854611dcf565b916009546103e88102908082046103e814901517156105b557611a79611b8c9461050f602098611b5194611de2565b80600052600685526040600020611b69838254611dc2565b9055600052600584526040600020611b82848254611de2565b9055600954611de2565b600955611b9b81600854611dc2565b600855610fa9565b60405162461bcd60e51b815260206004820152601860248201527f4f6e6c792063616c6c61626c6520696e7465726e616c6c7900000000000000006044820152606490fd5b346101f55760203660031901126101f557600435611c0461215d565b60328111611c1157600a55005b60405162461bcd60e51b815260206004820152600c60248201526b08ccaca40e8dede40d0d2ced60a31b6044820152606490fd5b346101f55760203660031901126101f5576001600160a01b03611c66611d0b565b1660005260056020526020604060002054604051908152f35b346101f55760203660031901126101f557611c98611d0b565b611ca061215d565b6002546001600160a01b0391821691829082167f6ec88bae255aa7e73521c3beb17e9bc7940169e669440c5531733c0d2e91110d600080a36001600160a01b03191617600255005b346101f55760003660031901126101f55760209060ff60025460a01c1615158152f35b600435906001600160a01b03821682036101f557565b6004359081151582036101f557565b9181601f840112156101f5578235916001600160401b0383116101f5576020808501948460051b0101116101f557565b60409060031901126101f5576004359060243590565b15611d7d57565b60405162461bcd60e51b815260206004820152601a60248201527f496e73756666696369656e7420746f6b656e2062616c616e63650000000000006044820152606490fd5b919082039182116105b557565b818102929181159184041417156105b557565b919082018092116105b557565b8115611df9570490565b634e487b7160e01b600052601260045260246000fd5b15611e1657565b60405162461bcd60e51b81526020600482015260116024820152700a6d8d2e0e0c2ceca40e8dede40d0d2ced607b1b6044820152606490fd5b15611e5657565b60405162461bcd60e51b815260206004820152601860248201527f496e73756666696369656e74204554482062616c616e636500000000000000006044820152606490fd5b60a081019081106001600160401b038211176103f057604052565b90601f801991011681019081106001600160401b038211176103f057604052565b908160209103126101f5575180151581036101f55790565b15611ef657565b60405162461bcd60e51b8152602060048201526015602482015274151bdad95b881d1c985b9cd9995c8819985a5b1959605a1b6044820152606490fd5b15611f3a57565b60405162461bcd60e51b815260206004820152601760248201527f4f6e6c792073657175656e6365722063616e2063616c6c0000000000000000006044820152606490fd5b91908110156116925760051b0190565b356001600160a01b03811681036101f55790565b3580151581036101f55790565b929190926001600160401b0384116103f0578360051b906020604051611fd882850182611eb6565b80968152019181019283116101f557905b828210611ff557505050565b8135815260209182019101611fe9565b90600182811c92168015612035575b602083101461201f57565b634e487b7160e01b600052602260045260246000fd5b91607f1691612014565b81811061204a575050565b6000815560010161203f565b60001981146105b55760010190565b600060443d106120ca576040513d600319016004823e8051913d60248401116001600160401b038411176120d557828201928351916001600160401b0383116120cd573d840160031901858401602001116120cd57506120ca92910160200190611eb6565b90565b949350505050565b92915050565b90600a546103e8036103e881116105b5576120f591611dcf565b901561212c5761210781600954611dcf565b6008546103e88102908082046103e814901517156105b5576120ca9261050f91611de2565b61213881600854611dcf565b6009546103e88102908082046103e814901517156105b5576120ca9261050f91611de2565b6000546001600160a01b0316330361217157565b63118cdaa760e01b6000523360045260246000fd5b600260015414612197576002600155565b633ee5aeb560e01b60005260046000fd5b929091906000915b84518310156121f157604060019160009060208660051b89010151908181106000146121e5578252602052205b9201916121b0565b908252602052206121dd565b91509250149056fea2646970667358221220a6cc605f9f1362659e6477770d35cdb7f26172a8773ccf769b9e1f0eb0c0e03864736f6c634300081c0033","opcodes":"PUSH1 0x80 CALLVALUE PUSH2 0x119 JUMPI PUSH1 0x1F PUSH2 0x2378 CODESIZE DUP2 SWAP1 SUB SWAP2 DUP3 ADD PUSH1 0x1F NOT AND DUP4 ADD SWAP2 PUSH1 0x1 PUSH1 0x1 PUSH1 0x40 SHL SUB DUP4 GT DUP5 DUP5 LT OR PUSH2 0x11E JUMPI DUP1 DUP5 SWAP3 PUSH1 0x40 SWAP5 DUP6 MSTORE DUP4 CODECOPY DUP2 ADD SUB SLT PUSH2 0x119 JUMPI PUSH2 0x52 PUSH1 0x20 PUSH2 0x4B DUP4 PUSH2 0x134 JUMP JUMPDEST SWAP3 ADD PUSH2 0x134 JUMP JUMPDEST PUSH1 0x1 PUSH1 0x1 PUSH1 0xA0 SHL SUB SWAP1 SWAP2 AND SWAP1 DUP2 ISZERO PUSH2 0x103 JUMPI PUSH1 0x0 DUP1 SLOAD PUSH1 0x1 PUSH1 0x1 PUSH1 0xA0 SHL SUB NOT DUP2 AND DUP5 OR DUP3 SSTORE PUSH1 0x40 MLOAD SWAP4 SWAP2 PUSH1 0x1 PUSH1 0x1 PUSH1 0xA0 SHL SUB SWAP1 SWAP2 AND SWAP1 PUSH32 0x8BE0079C531659141344CD1FD0A4F28419497F9722A3DAAFE3B4186F6B6457E0 SWAP1 DUP1 LOG3 PUSH1 0x1 DUP1 DUP1 SSTORE PUSH1 0x2 DUP1 SLOAD PUSH1 0xFF PUSH1 0xA0 SHL NOT AND PUSH1 0x1 PUSH1 0xA0 SHL OR SWAP1 SSTORE PUSH2 0x12C PUSH1 0x3 SWAP1 DUP2 SSTORE PUSH1 0xA SSTORE PUSH1 0xD SSTORE PUSH1 0xB4 PUSH1 0xE SSTORE PUSH1 0x7 DUP1 SLOAD PUSH1 0x1 PUSH1 0x1 PUSH1 0xA0 SHL SUB NOT AND PUSH1 0x1 PUSH1 0x1 PUSH1 0xA0 SHL SUB SWAP3 SWAP1 SWAP3 AND SWAP2 SWAP1 SWAP2 OR SWAP1 SSTORE PUSH2 0x222F SWAP1 DUP2 PUSH2 0x149 DUP3 CODECOPY RETURN JUMPDEST PUSH4 0x1E4FBDF7 PUSH1 0xE0 SHL PUSH1 0x0 MSTORE PUSH1 0x0 PUSH1 0x4 MSTORE PUSH1 0x24 PUSH1 0x0 REVERT JUMPDEST PUSH1 0x0 DUP1 REVERT JUMPDEST PUSH4 0x4E487B71 PUSH1 0xE0 SHL PUSH1 0x0 MSTORE PUSH1 0x41 PUSH1 0x4 MSTORE PUSH1 0x24 PUSH1 0x0 REVERT JUMPDEST MLOAD SWAP1 PUSH1 0x1 PUSH1 0x1 PUSH1 0xA0 SHL SUB DUP3 AND DUP3 SUB PUSH2 0x119 JUMPI JUMP INVALID PUSH1 0x80 DUP1 PUSH1 0x40 MSTORE PUSH1 0x4 CALLDATASIZE LT ISZERO PUSH2 0x13 JUMPI PUSH1 0x0 DUP1 REVERT JUMPDEST PUSH1 0x0 CALLDATALOAD PUSH1 0xE0 SHR SWAP1 DUP2 PUSH4 0x17D6263F EQ PUSH2 0x1CE8 JUMPI POP DUP1 PUSH4 0x2547FA3E EQ PUSH2 0x1C7F JUMPI DUP1 PUSH4 0x3CFBA0E3 EQ PUSH2 0x1C45 JUMPI DUP1 PUSH4 0x45596E2E EQ PUSH2 0x1BE8 JUMPI DUP1 PUSH4 0x4DB484E2 EQ PUSH2 0x19C6 JUMPI DUP1 PUSH4 0x50BAA622 EQ PUSH2 0x18EF JUMPI DUP1 PUSH4 0x523FBA7F EQ PUSH2 0x18B5 JUMPI DUP1 PUSH4 0x54CC3C74 EQ PUSH2 0x1889 JUMPI DUP1 PUSH4 0x5C1BBA38 EQ PUSH2 0x1860 JUMPI DUP1 PUSH4 0x6215BE77 EQ PUSH2 0x1779 JUMPI DUP1 PUSH4 0x6868BAB5 EQ PUSH2 0x1100 JUMPI DUP1 PUSH4 0x6B27E2BB EQ PUSH2 0x10A0 JUMPI DUP1 PUSH4 0x715018A6 EQ PUSH2 0x1047 JUMPI DUP1 PUSH4 0x80A4F6DF EQ PUSH2 0xFB1 JUMPI DUP1 PUSH4 0x8290D9B8 EQ PUSH2 0xF82 JUMPI DUP1 PUSH4 0x8462A7F8 EQ PUSH2 0xF64 JUMPI DUP1 PUSH4 0x87CD5B20 EQ PUSH2 0xF46 JUMPI DUP1 PUSH4 0x88DA2B2D EQ PUSH2 0xF1A JUMPI DUP1 PUSH4 0x8DA5CB5B EQ PUSH2 0xEF1 JUMPI DUP1 PUSH4 0x9729CC05 EQ PUSH2 0xED3 JUMPI DUP1 PUSH4 0x978BBDB9 EQ PUSH2 0xEB5 JUMPI DUP1 PUSH4 0x9C8F9F23 EQ PUSH2 0xD19 JUMPI DUP1 PUSH4 0x9CD441DA EQ PUSH2 0xAFF JUMPI DUP1 PUSH4 0x9DB4AA04 EQ PUSH2 0xAC5 JUMPI DUP1 PUSH4 0xA03FD9C2 EQ PUSH2 0xA11 JUMPI DUP1 PUSH4 0xB0B9B66A EQ PUSH2 0x8DB JUMPI DUP1 PUSH4 0xB7AFE9BE EQ PUSH2 0x8BD JUMPI DUP1 PUSH4 0xC13C0EA5 EQ PUSH2 0x891 JUMPI DUP1 PUSH4 0xC901510B EQ PUSH2 0x829 JUMPI DUP1 PUSH4 0xCB29FDC7 EQ PUSH2 0x71A JUMPI DUP1 PUSH4 0xCBCB3171 EQ PUSH2 0x6FC JUMPI DUP1 PUSH4 0xD5E10708 EQ PUSH2 0x464 JUMPI DUP1 PUSH4 0xD62CCB3F EQ PUSH2 0x446 JUMPI DUP1 PUSH4 0xD73792A9 EQ PUSH2 0x429 JUMPI DUP1 PUSH4 0xE71BFDC0 EQ PUSH2 0x40B JUMPI DUP1 PUSH4 0xF14210A6 EQ PUSH2 0x2E5 JUMPI DUP1 PUSH4 0xF2FDE38B EQ PUSH2 0x25C JUMPI DUP1 PUSH4 0xF6326FB3 EQ PUSH2 0x1FA JUMPI PUSH4 0xFC0C546A EQ PUSH2 0x1CC JUMPI PUSH1 0x0 DUP1 REVERT JUMPDEST CALLVALUE PUSH2 0x1F5 JUMPI PUSH1 0x0 CALLDATASIZE PUSH1 0x3 NOT ADD SLT PUSH2 0x1F5 JUMPI PUSH1 0x7 SLOAD PUSH1 0x40 MLOAD PUSH1 0x1 PUSH1 0x1 PUSH1 0xA0 SHL SUB SWAP1 SWAP2 AND DUP2 MSTORE PUSH1 0x20 SWAP1 RETURN JUMPDEST PUSH1 0x0 DUP1 REVERT JUMPDEST PUSH1 0x0 CALLDATASIZE PUSH1 0x3 NOT ADD SLT PUSH2 0x1F5 JUMPI CALLER PUSH1 0x0 MSTORE PUSH1 0x5 PUSH1 0x20 MSTORE PUSH1 0x40 PUSH1 0x0 KECCAK256 PUSH2 0x21F CALLVALUE DUP3 SLOAD PUSH2 0x1DE2 JUMP JUMPDEST SWAP1 SSTORE PUSH1 0x40 MLOAD CALLVALUE DUP2 MSTORE PUSH1 0x1 PUSH1 0x20 DUP3 ADD MSTORE TIMESTAMP PUSH1 0x40 DUP3 ADD MSTORE PUSH32 0xFA430E490A18C9D02A4C0BF501C1B5821A600E09249E983F8491C6575DD5E420 PUSH1 0x60 CALLER SWAP3 LOG2 STOP JUMPDEST CALLVALUE PUSH2 0x1F5 JUMPI PUSH1 0x20 CALLDATASIZE PUSH1 0x3 NOT ADD SLT PUSH2 0x1F5 JUMPI PUSH2 0x275 PUSH2 0x1D0B JUMP JUMPDEST PUSH2 0x27D PUSH2 0x215D JUMP JUMPDEST PUSH1 0x1 PUSH1 0x1 PUSH1 0xA0 SHL SUB AND DUP1 ISZERO PUSH2 0x2CF JUMPI PUSH1 0x0 DUP1 SLOAD PUSH1 0x1 PUSH1 0x1 PUSH1 0xA0 SHL SUB NOT DUP2 AND DUP4 OR DUP3 SSTORE PUSH1 0x1 PUSH1 0x1 PUSH1 0xA0 SHL SUB AND SWAP1 PUSH32 0x8BE0079C531659141344CD1FD0A4F28419497F9722A3DAAFE3B4186F6B6457E0 SWAP1 DUP1 LOG3 STOP JUMPDEST PUSH4 0x1E4FBDF7 PUSH1 0xE0 SHL PUSH1 0x0 MSTORE PUSH1 0x0 PUSH1 0x4 MSTORE PUSH1 0x24 PUSH1 0x0 REVERT JUMPDEST CALLVALUE PUSH2 0x1F5 JUMPI PUSH1 0x20 CALLDATASIZE PUSH1 0x3 NOT ADD SLT PUSH2 0x1F5 JUMPI PUSH1 0x4 CALLDATALOAD PUSH2 0x301 PUSH2 0x2186 JUMP JUMPDEST CALLER PUSH1 0x0 MSTORE PUSH1 0x5 PUSH1 0x20 MSTORE PUSH2 0x31B DUP2 PUSH1 0x40 PUSH1 0x0 KECCAK256 SLOAD LT ISZERO PUSH2 0x1E4F JUMP JUMPDEST CALLER PUSH1 0x0 MSTORE PUSH1 0x5 PUSH1 0x20 MSTORE PUSH1 0x40 PUSH1 0x0 KECCAK256 PUSH2 0x334 DUP3 DUP3 SLOAD PUSH2 0x1DC2 JUMP JUMPDEST SWAP1 SSTORE PUSH1 0x0 DUP1 DUP1 DUP1 DUP5 CALLER GAS CALL RETURNDATASIZE ISZERO PUSH2 0x406 JUMPI RETURNDATASIZE PUSH1 0x1 PUSH1 0x1 PUSH1 0x40 SHL SUB DUP2 GT PUSH2 0x3F0 JUMPI PUSH1 0x40 MLOAD SWAP1 PUSH2 0x36C PUSH1 0x1F DUP3 ADD PUSH1 0x1F NOT AND PUSH1 0x20 ADD DUP4 PUSH2 0x1EB6 JUMP JUMPDEST DUP2 MSTORE PUSH1 0x0 PUSH1 0x20 RETURNDATASIZE SWAP3 ADD RETURNDATACOPY JUMPDEST ISZERO PUSH2 0x3B5 JUMPI PUSH1 0x40 MLOAD SWAP1 DUP2 MSTORE PUSH1 0x1 PUSH1 0x20 DUP3 ADD MSTORE PUSH32 0x6E0C61E7E9F4912EE1F3CE060B59207B98F9A232D711462AF3166AEEED1250A PUSH1 0x40 CALLER SWAP3 LOG2 PUSH1 0x1 DUP1 SSTORE STOP JUMPDEST PUSH1 0x40 MLOAD PUSH3 0x461BCD PUSH1 0xE5 SHL DUP2 MSTORE PUSH1 0x20 PUSH1 0x4 DUP3 ADD MSTORE PUSH1 0x13 PUSH1 0x24 DUP3 ADD MSTORE PUSH19 0x115512081D1C985B9CD9995C8819985A5B1959 PUSH1 0x6A SHL PUSH1 0x44 DUP3 ADD MSTORE PUSH1 0x64 SWAP1 REVERT JUMPDEST PUSH4 0x4E487B71 PUSH1 0xE0 SHL PUSH1 0x0 MSTORE PUSH1 0x41 PUSH1 0x4 MSTORE PUSH1 0x24 PUSH1 0x0 REVERT JUMPDEST PUSH2 0x377 JUMP JUMPDEST CALLVALUE PUSH2 0x1F5 JUMPI PUSH1 0x0 CALLDATASIZE PUSH1 0x3 NOT ADD SLT PUSH2 0x1F5 JUMPI PUSH1 0x20 PUSH1 0xE SLOAD PUSH1 0x40 MLOAD SWAP1 DUP2 MSTORE RETURN JUMPDEST CALLVALUE PUSH2 0x1F5 JUMPI PUSH1 0x0 CALLDATASIZE PUSH1 0x3 NOT ADD SLT PUSH2 0x1F5 JUMPI PUSH1 0x20 PUSH1 0x40 MLOAD PUSH2 0x3E8 DUP2 MSTORE RETURN JUMPDEST CALLVALUE PUSH2 0x1F5 JUMPI PUSH1 0x0 CALLDATASIZE PUSH1 0x3 NOT ADD SLT PUSH2 0x1F5 JUMPI PUSH1 0x20 PUSH1 0x8 SLOAD PUSH1 0x40 MLOAD SWAP1 DUP2 MSTORE RETURN JUMPDEST CALLVALUE PUSH2 0x1F5 JUMPI PUSH1 0x60 CALLDATASIZE PUSH1 0x3 NOT ADD SLT PUSH2 0x1F5 JUMPI PUSH2 0x47D PUSH2 0x1D21 JUMP JUMPDEST PUSH1 0x44 CALLDATALOAD PUSH1 0x24 CALLDATALOAD PUSH2 0x48B PUSH2 0x2186 JUMP JUMPDEST PUSH1 0x0 PUSH1 0xFF PUSH1 0x2 SLOAD PUSH1 0xA0 SHR AND PUSH2 0x6B7 JUMPI DUP4 ISZERO PUSH2 0x5CB JUMPI POP CALLER PUSH1 0x0 MSTORE PUSH1 0x5 PUSH1 0x20 MSTORE PUSH2 0x4BB DUP2 PUSH1 0x40 PUSH1 0x0 KECCAK256 SLOAD LT ISZERO PUSH2 0x1E4F JUMP JUMPDEST PUSH1 0xA SLOAD PUSH2 0x3E8 SUB PUSH2 0x3E8 DUP2 GT PUSH2 0x5B5 JUMPI PUSH2 0x4D5 SWAP1 DUP3 PUSH2 0x1DCF JUMP JUMPDEST SWAP3 PUSH2 0x4E2 DUP5 PUSH1 0x9 SLOAD PUSH2 0x1DCF JUMP JUMPDEST SWAP4 PUSH1 0x8 SLOAD SWAP1 PUSH2 0x3E8 DUP3 MUL SWAP2 DUP1 DUP4 DIV PUSH2 0x3E8 EQ SWAP1 ISZERO OR ISZERO PUSH2 0x5B5 JUMPI PUSH1 0x20 SWAP6 PUSH2 0x50F PUSH2 0x515 SWAP3 PUSH2 0x51E SWAP5 PUSH2 0x1DE2 JUMP JUMPDEST SWAP1 PUSH2 0x1DEF JUMP JUMPDEST SWAP4 DUP5 LT ISZERO PUSH2 0x1E0F JUMP JUMPDEST CALLER PUSH1 0x0 MSTORE PUSH1 0x5 DUP5 MSTORE PUSH1 0x40 PUSH1 0x0 KECCAK256 PUSH2 0x536 DUP4 DUP3 SLOAD PUSH2 0x1DC2 JUMP JUMPDEST SWAP1 SSTORE CALLER PUSH1 0x0 MSTORE PUSH1 0x6 DUP5 MSTORE PUSH1 0x40 PUSH1 0x0 KECCAK256 PUSH2 0x550 DUP5 DUP3 SLOAD PUSH2 0x1DE2 JUMP JUMPDEST SWAP1 SSTORE PUSH2 0x55E DUP3 PUSH1 0x8 SLOAD PUSH2 0x1DE2 JUMP JUMPDEST PUSH1 0x8 SSTORE PUSH2 0x56D DUP4 PUSH1 0x9 SLOAD PUSH2 0x1DC2 JUMP JUMPDEST PUSH1 0x9 SSTORE JUMPDEST PUSH1 0x40 MLOAD SWAP2 DUP3 MSTORE DUP3 DUP5 DUP4 ADD MSTORE ISZERO ISZERO PUSH1 0x40 DUP3 ADD MSTORE PUSH32 0xAAFE03BB75A5A17474AA34C7AA7923939142DCC00FAD86BA2217A698E5890531 PUSH1 0x60 CALLER SWAP3 LOG2 PUSH1 0x1 DUP1 SSTORE PUSH1 0x40 MLOAD SWAP1 DUP2 MSTORE RETURN JUMPDEST PUSH4 0x4E487B71 PUSH1 0xE0 SHL PUSH1 0x0 MSTORE PUSH1 0x11 PUSH1 0x4 MSTORE PUSH1 0x24 PUSH1 0x0 REVERT JUMPDEST SWAP3 CALLER DUP5 MSTORE PUSH1 0x6 PUSH1 0x20 MSTORE PUSH2 0x5E4 DUP3 PUSH1 0x40 DUP7 KECCAK256 SLOAD LT ISZERO PUSH2 0x1D76 JUMP JUMPDEST PUSH1 0xA SLOAD PUSH2 0x3E8 SUB PUSH2 0x3E8 DUP2 GT PUSH2 0x6A3 JUMPI PUSH2 0x5FE SWAP1 DUP4 PUSH2 0x1DCF JUMP JUMPDEST PUSH2 0x60A DUP2 PUSH1 0x8 SLOAD PUSH2 0x1DCF JUMP JUMPDEST SWAP5 PUSH1 0x9 SLOAD SWAP1 PUSH2 0x3E8 DUP3 MUL SWAP2 DUP1 DUP4 DIV PUSH2 0x3E8 EQ SWAP1 ISZERO OR ISZERO PUSH2 0x68F JUMPI POP PUSH1 0x20 SWAP6 PUSH2 0x50F PUSH2 0x638 SWAP4 PUSH2 0x515 SWAP4 PUSH2 0x1DE2 JUMP JUMPDEST CALLER PUSH1 0x0 MSTORE PUSH1 0x6 DUP5 MSTORE PUSH1 0x40 PUSH1 0x0 KECCAK256 PUSH2 0x650 DUP4 DUP3 SLOAD PUSH2 0x1DC2 JUMP JUMPDEST SWAP1 SSTORE CALLER PUSH1 0x0 MSTORE PUSH1 0x5 DUP5 MSTORE PUSH1 0x40 PUSH1 0x0 KECCAK256 PUSH2 0x66A DUP5 DUP3 SLOAD PUSH2 0x1DE2 JUMP JUMPDEST SWAP1 SSTORE PUSH2 0x678 DUP3 PUSH1 0x9 SLOAD PUSH2 0x1DE2 JUMP JUMPDEST PUSH1 0x9 SSTORE PUSH2 0x687 DUP4 PUSH1 0x8 SLOAD PUSH2 0x1DC2 JUMP JUMPDEST PUSH1 0x8 SSTORE PUSH2 0x571 JUMP JUMPDEST PUSH4 0x4E487B71 PUSH1 0xE0 SHL DUP2 MSTORE PUSH1 0x11 PUSH1 0x4 MSTORE PUSH1 0x24 SWAP1 REVERT JUMPDEST PUSH4 0x4E487B71 PUSH1 0xE0 SHL DUP6 MSTORE PUSH1 0x11 PUSH1 0x4 MSTORE PUSH1 0x24 DUP6 REVERT JUMPDEST PUSH1 0x40 MLOAD PUSH3 0x461BCD PUSH1 0xE5 SHL DUP2 MSTORE PUSH1 0x20 PUSH1 0x4 DUP3 ADD MSTORE PUSH1 0x18 PUSH1 0x24 DUP3 ADD MSTORE PUSH32 0x446972656374207377617073206E6F7420616C6C6F7765640000000000000000 PUSH1 0x44 DUP3 ADD MSTORE PUSH1 0x64 SWAP1 REVERT JUMPDEST CALLVALUE PUSH2 0x1F5 JUMPI PUSH1 0x0 CALLDATASIZE PUSH1 0x3 NOT ADD SLT PUSH2 0x1F5 JUMPI PUSH1 0x20 PUSH1 0x9 SLOAD PUSH1 0x40 MLOAD SWAP1 DUP2 MSTORE RETURN JUMPDEST CALLVALUE PUSH2 0x1F5 JUMPI PUSH1 0xC0 CALLDATASIZE PUSH1 0x3 NOT ADD SLT PUSH2 0x1F5 JUMPI PUSH1 0x24 CALLDATALOAD PUSH1 0x1 PUSH1 0x1 PUSH1 0xA0 SHL SUB DUP2 AND SWAP1 DUP2 SWAP1 SUB PUSH2 0x1F5 JUMPI PUSH1 0x44 CALLDATALOAD DUP1 ISZERO ISZERO DUP1 SWAP2 SUB PUSH2 0x1F5 JUMPI PUSH1 0xA4 CALLDATALOAD SWAP1 PUSH1 0x1 PUSH1 0x1 PUSH1 0x40 SHL SUB DUP3 GT PUSH2 0x1F5 JUMPI PUSH1 0x20 SWAP3 PUSH2 0x81A PUSH2 0x776 PUSH2 0x81F SWAP5 CALLDATASIZE SWAP1 PUSH1 0x4 ADD PUSH2 0x1D30 JUMP JUMPDEST SWAP3 SWAP1 SWAP4 PUSH1 0x40 MLOAD SWAP2 PUSH2 0x786 DUP4 PUSH2 0x1E9B JUMP JUMPDEST DUP3 MSTORE DUP7 DUP3 ADD MSTORE PUSH1 0x64 CALLDATALOAD PUSH1 0x40 DUP3 ADD MSTORE PUSH1 0x84 CALLDATALOAD PUSH1 0x60 DUP3 ADD MSTORE PUSH1 0x0 PUSH1 0x80 DUP3 ADD MSTORE PUSH1 0x40 MLOAD PUSH2 0x7FE DUP2 PUSH2 0x7F0 DUP10 DUP3 ADD SWAP5 DUP6 SWAP2 SWAP1 SWAP2 PUSH1 0x80 DUP1 PUSH1 0xA0 DUP4 ADD SWAP5 PUSH1 0x1 DUP1 PUSH1 0xA0 SHL SUB DUP2 MLOAD AND DUP5 MSTORE PUSH1 0x20 DUP2 ADD MLOAD ISZERO ISZERO PUSH1 0x20 DUP6 ADD MSTORE PUSH1 0x40 DUP2 ADD MLOAD PUSH1 0x40 DUP6 ADD MSTORE PUSH1 0x60 DUP2 ADD MLOAD PUSH1 0x60 DUP6 ADD MSTORE ADD MLOAD SWAP2 ADD MSTORE JUMP JUMPDEST SUB PUSH1 0x1F NOT DUP2 ADD DUP4 MSTORE DUP3 PUSH2 0x1EB6 JUMP JUMPDEST MLOAD SWAP1 KECCAK256 SWAP3 PUSH1 0x4 CALLDATALOAD PUSH1 0x0 MSTORE PUSH1 0xB DUP7 MSTORE PUSH1 0x40 PUSH1 0x0 KECCAK256 SLOAD SWAP3 CALLDATASIZE SWAP2 PUSH2 0x1FB0 JUMP JUMPDEST PUSH2 0x21A8 JUMP JUMPDEST PUSH1 0x40 MLOAD SWAP1 ISZERO ISZERO DUP2 MSTORE RETURN JUMPDEST CALLVALUE PUSH2 0x1F5 JUMPI PUSH1 0x20 CALLDATASIZE PUSH1 0x3 NOT ADD SLT PUSH2 0x1F5 JUMPI PUSH32 0x33D081570F4871CFC13364650930F27EFE5E1BE344DA69C94D4E75C06FA02F04 PUSH1 0x20 PUSH2 0x865 PUSH2 0x1D21 JUMP JUMPDEST PUSH2 0x86D PUSH2 0x215D JUMP JUMPDEST ISZERO ISZERO PUSH1 0x2 SLOAD PUSH1 0xFF PUSH1 0xA0 SHL DUP3 PUSH1 0xA0 SHL AND SWAP1 PUSH1 0xFF PUSH1 0xA0 SHL NOT AND OR PUSH1 0x2 SSTORE PUSH1 0x40 MLOAD SWAP1 DUP2 MSTORE LOG1 STOP JUMPDEST CALLVALUE PUSH2 0x1F5 JUMPI PUSH1 0x20 CALLDATASIZE PUSH1 0x3 NOT ADD SLT PUSH2 0x1F5 JUMPI PUSH1 0x4 CALLDATALOAD PUSH1 0x0 MSTORE PUSH1 0xB PUSH1 0x20 MSTORE PUSH1 0x20 PUSH1 0x40 PUSH1 0x0 KECCAK256 SLOAD PUSH1 0x40 MLOAD SWAP1 DUP2 MSTORE RETURN JUMPDEST CALLVALUE PUSH2 0x1F5 JUMPI PUSH1 0x0 CALLDATASIZE PUSH1 0x3 NOT ADD SLT PUSH2 0x1F5 JUMPI PUSH1 0x20 PUSH1 0x4 SLOAD PUSH1 0x40 MLOAD SWAP1 DUP2 MSTORE RETURN JUMPDEST CALLVALUE PUSH2 0x1F5 JUMPI PUSH2 0x8E9 CALLDATASIZE PUSH2 0x1D60 JUMP JUMPDEST SWAP1 PUSH1 0x0 MSTORE PUSH1 0xF PUSH1 0x20 MSTORE PUSH1 0x2 PUSH1 0x40 PUSH1 0x0 KECCAK256 DUP3 PUSH1 0x0 MSTORE PUSH1 0x1 DUP2 ADD PUSH1 0x20 MSTORE PUSH1 0xFF PUSH1 0x40 PUSH1 0x0 KECCAK256 SLOAD AND SWAP3 PUSH1 0x0 MSTORE ADD PUSH1 0x20 MSTORE PUSH1 0x40 PUSH1 0x0 KECCAK256 PUSH1 0x40 MLOAD SWAP1 DUP2 PUSH1 0x0 DUP3 SLOAD SWAP3 PUSH2 0x92D DUP5 PUSH2 0x2005 JUMP JUMPDEST DUP1 DUP5 MSTORE SWAP4 PUSH1 0x1 DUP2 AND SWAP1 DUP2 ISZERO PUSH2 0x9EF JUMPI POP PUSH1 0x1 EQ PUSH2 0x9A8 JUMPI JUMPDEST POP PUSH2 0x952 SWAP3 POP SUB DUP3 PUSH2 0x1EB6 JUMP JUMPDEST PUSH1 0x40 MLOAD SWAP2 ISZERO ISZERO DUP3 MSTORE PUSH1 0x40 PUSH1 0x20 DUP4 ADD MSTORE DUP2 DUP2 MLOAD SWAP2 DUP3 PUSH1 0x40 DUP4 ADD MSTORE PUSH1 0x0 JUMPDEST DUP4 DUP2 LT PUSH2 0x990 JUMPI POP POP DUP2 PUSH1 0x0 PUSH1 0x60 DUP1 SWAP5 DUP5 ADD ADD MSTORE PUSH1 0x1F DUP1 NOT SWAP2 ADD AND DUP2 ADD SUB ADD SWAP1 RETURN JUMPDEST PUSH1 0x20 DUP3 DUP3 ADD DUP2 ADD MLOAD PUSH1 0x60 DUP8 DUP5 ADD ADD MSTORE DUP6 SWAP4 POP ADD PUSH2 0x96E JUMP JUMPDEST SWAP1 POP PUSH1 0x0 SWAP3 SWAP2 SWAP3 MSTORE PUSH1 0x20 PUSH1 0x0 KECCAK256 SWAP1 PUSH1 0x0 SWAP2 JUMPDEST DUP2 DUP4 LT PUSH2 0x9D3 JUMPI POP POP SWAP1 PUSH1 0x20 PUSH2 0x952 SWAP3 DUP3 ADD ADD DUP6 PUSH2 0x945 JUMP JUMPDEST PUSH1 0x20 SWAP2 SWAP4 POP DUP1 PUSH1 0x1 SWAP2 SLOAD DUP4 DUP6 DUP9 ADD ADD MSTORE ADD SWAP2 ADD SWAP1 SWAP2 DUP4 SWAP3 PUSH2 0x9BA JUMP JUMPDEST SWAP1 POP PUSH1 0x20 SWAP3 POP PUSH2 0x952 SWAP5 SWAP2 POP PUSH1 0xFF NOT AND DUP3 DUP5 ADD MSTORE ISZERO ISZERO PUSH1 0x5 SHL DUP3 ADD ADD DUP6 PUSH2 0x945 JUMP JUMPDEST CALLVALUE PUSH2 0x1F5 JUMPI PUSH1 0x0 CALLDATASIZE PUSH1 0x3 NOT ADD SLT PUSH2 0x1F5 JUMPI PUSH2 0xA31 PUSH1 0x4 SLOAD PUSH1 0x3 SLOAD SWAP1 PUSH2 0x1DE2 JUMP JUMPDEST TIMESTAMP GT ISZERO PUSH2 0xA72 JUMPI PUSH1 0xFF PUSH1 0xA0 SHL NOT PUSH1 0x2 SLOAD AND PUSH1 0x2 SSTORE PUSH32 0x33D081570F4871CFC13364650930F27EFE5E1BE344DA69C94D4E75C06FA02F04 PUSH1 0x20 PUSH1 0x40 MLOAD PUSH1 0x0 DUP2 MSTORE LOG1 STOP JUMPDEST PUSH1 0x40 MLOAD PUSH3 0x461BCD PUSH1 0xE5 SHL DUP2 MSTORE PUSH1 0x20 PUSH1 0x4 DUP3 ADD MSTORE PUSH1 0x25 PUSH1 0x24 DUP3 ADD MSTORE PUSH32 0x53657175656E636572206E6F7420636F6E7369646572656420696E6163746976 PUSH1 0x44 DUP3 ADD MSTORE PUSH5 0x19481E595D PUSH1 0xDA SHL PUSH1 0x64 DUP3 ADD MSTORE PUSH1 0x84 SWAP1 REVERT JUMPDEST CALLVALUE PUSH2 0x1F5 JUMPI PUSH1 0x20 CALLDATASIZE PUSH1 0x3 NOT ADD SLT PUSH2 0x1F5 JUMPI PUSH1 0x1 PUSH1 0x1 PUSH1 0xA0 SHL SUB PUSH2 0xAE6 PUSH2 0x1D0B JUMP JUMPDEST AND PUSH1 0x0 MSTORE PUSH1 0x10 PUSH1 0x20 MSTORE PUSH1 0x20 PUSH1 0x40 PUSH1 0x0 KECCAK256 SLOAD PUSH1 0x40 MLOAD SWAP1 DUP2 MSTORE RETURN JUMPDEST CALLVALUE PUSH2 0x1F5 JUMPI PUSH2 0xB0D CALLDATASIZE PUSH2 0x1D60 JUMP JUMPDEST PUSH2 0xB15 PUSH2 0x2186 JUMP JUMPDEST CALLER PUSH1 0x0 MSTORE PUSH1 0x5 PUSH1 0x20 MSTORE PUSH2 0xB2F DUP3 PUSH1 0x40 PUSH1 0x0 KECCAK256 SLOAD LT ISZERO PUSH2 0x1E4F JUMP JUMPDEST CALLER PUSH1 0x0 MSTORE PUSH1 0x6 PUSH1 0x20 MSTORE PUSH2 0xB49 DUP2 PUSH1 0x40 PUSH1 0x0 KECCAK256 SLOAD LT ISZERO PUSH2 0x1D76 JUMP JUMPDEST PUSH1 0x11 SLOAD DUP1 PUSH2 0xCA7 JUMPI POP DUP2 JUMPDEST DUP1 ISZERO PUSH2 0xC6F JUMPI PUSH2 0xBD5 SWAP1 CALLER PUSH1 0x0 MSTORE PUSH1 0x5 PUSH1 0x20 MSTORE PUSH1 0x40 PUSH1 0x0 KECCAK256 PUSH2 0xB77 DUP6 DUP3 SLOAD PUSH2 0x1DC2 JUMP JUMPDEST SWAP1 SSTORE CALLER PUSH1 0x0 MSTORE PUSH1 0x6 PUSH1 0x20 MSTORE PUSH1 0x40 PUSH1 0x0 KECCAK256 PUSH2 0xB92 DUP5 DUP3 SLOAD PUSH2 0x1DC2 JUMP JUMPDEST SWAP1 SSTORE PUSH2 0xBA0 DUP5 PUSH1 0x8 SLOAD PUSH2 0x1DE2 JUMP JUMPDEST PUSH1 0x8 SSTORE PUSH2 0xBAF DUP4 PUSH1 0x9 SLOAD PUSH2 0x1DE2 JUMP JUMPDEST PUSH1 0x9 SSTORE CALLER PUSH1 0x0 MSTORE PUSH1 0x10 PUSH1 0x20 MSTORE PUSH1 0x40 PUSH1 0x0 KECCAK256 PUSH2 0xBCB DUP3 DUP3 SLOAD PUSH2 0x1DE2 JUMP JUMPDEST SWAP1 SSTORE PUSH1 0x11 SLOAD PUSH2 0x1DE2 JUMP JUMPDEST PUSH1 0x11 SSTORE PUSH1 0x40 MLOAD SWAP2 DUP3 MSTORE PUSH1 0x20 DUP3 ADD MSTORE PUSH32 0xAC1D76749E5447B7B16F5AB61447E1BD502F3BB4807AF3B28E620D1700A6EE45 PUSH1 0x40 CALLER SWAP3 LOG2 PUSH1 0x8 SLOAD ISZERO ISZERO DUP1 PUSH2 0xC64 JUMPI JUMPDEST ISZERO PUSH2 0xC1F JUMPI PUSH1 0x1 DUP1 SSTORE STOP JUMPDEST PUSH1 0x40 MLOAD PUSH3 0x461BCD PUSH1 0xE5 SHL DUP2 MSTORE PUSH1 0x20 PUSH1 0x4 DUP3 ADD MSTORE PUSH1 0x17 PUSH1 0x24 DUP3 ADD MSTORE PUSH32 0x52657365727665732063616E6E6F74206265207A65726F000000000000000000 PUSH1 0x44 DUP3 ADD MSTORE PUSH1 0x64 SWAP1 REVERT JUMPDEST POP PUSH1 0x9 SLOAD ISZERO ISZERO PUSH2 0xC14 JUMP JUMPDEST PUSH1 0x40 MLOAD PUSH3 0x461BCD PUSH1 0xE5 SHL DUP2 MSTORE PUSH1 0x20 PUSH1 0x4 DUP3 ADD MSTORE PUSH1 0x10 PUSH1 0x24 DUP3 ADD MSTORE PUSH16 0x139BC81CDA185C995CC81B5A5B9D1959 PUSH1 0x82 SHL PUSH1 0x44 DUP3 ADD MSTORE PUSH1 0x64 SWAP1 REVERT JUMPDEST PUSH2 0xCB3 PUSH1 0x9 SLOAD DUP5 PUSH2 0x1DCF JUMP JUMPDEST PUSH1 0x8 SLOAD SWAP1 PUSH2 0xCC1 DUP3 DUP6 PUSH2 0x1DCF JUMP JUMPDEST SUB PUSH2 0xCDD JUMPI PUSH2 0xCD3 PUSH2 0xCD8 SWAP3 DUP6 PUSH2 0x1DCF JUMP JUMPDEST PUSH2 0x1DEF JUMP JUMPDEST PUSH2 0xB54 JUMP JUMPDEST PUSH1 0x40 MLOAD PUSH3 0x461BCD PUSH1 0xE5 SHL DUP2 MSTORE PUSH1 0x20 PUSH1 0x4 DUP3 ADD MSTORE PUSH1 0x14 PUSH1 0x24 DUP3 ADD MSTORE PUSH20 0x556E62616C616E636564206C6971756964697479 PUSH1 0x60 SHL PUSH1 0x44 DUP3 ADD MSTORE PUSH1 0x64 SWAP1 REVERT JUMPDEST CALLVALUE PUSH2 0x1F5 JUMPI PUSH1 0x20 CALLDATASIZE PUSH1 0x3 NOT ADD SLT PUSH2 0x1F5 JUMPI PUSH1 0x4 CALLDATALOAD PUSH2 0xD35 PUSH2 0x2186 JUMP JUMPDEST CALLER PUSH1 0x0 MSTORE PUSH1 0x10 PUSH1 0x20 MSTORE DUP1 PUSH1 0x40 PUSH1 0x0 KECCAK256 SLOAD LT PUSH2 0xE7A JUMPI PUSH2 0xD56 PUSH1 0x8 SLOAD DUP3 PUSH2 0x1DCF JUMP JUMPDEST SWAP1 PUSH2 0xD74 PUSH2 0xD67 PUSH1 0x11 SLOAD DUP1 SWAP5 PUSH2 0x1DEF JUMP JUMPDEST SWAP3 PUSH2 0xCD3 PUSH1 0x9 SLOAD DUP5 PUSH2 0x1DCF JUMP JUMPDEST SWAP1 DUP3 ISZERO ISZERO DUP1 PUSH2 0xE71 JUMPI JUMPDEST ISZERO PUSH2 0xE38 JUMPI PUSH2 0xDAA SWAP1 CALLER PUSH1 0x0 MSTORE PUSH1 0x10 PUSH1 0x20 MSTORE PUSH1 0x40 PUSH1 0x0 KECCAK256 PUSH2 0xDA0 DUP3 DUP3 SLOAD PUSH2 0x1DC2 JUMP JUMPDEST SWAP1 SSTORE PUSH1 0x11 SLOAD PUSH2 0x1DC2 JUMP JUMPDEST PUSH1 0x11 SSTORE PUSH2 0xDB9 DUP3 PUSH1 0x8 SLOAD PUSH2 0x1DC2 JUMP JUMPDEST PUSH1 0x8 SSTORE PUSH2 0xDC8 DUP2 PUSH1 0x9 SLOAD PUSH2 0x1DC2 JUMP JUMPDEST PUSH1 0x9 SSTORE CALLER PUSH1 0x0 MSTORE PUSH1 0x5 PUSH1 0x20 MSTORE PUSH1 0x40 PUSH1 0x0 KECCAK256 PUSH2 0xDE4 DUP4 DUP3 SLOAD PUSH2 0x1DE2 JUMP JUMPDEST SWAP1 SSTORE CALLER PUSH1 0x0 MSTORE PUSH1 0x6 PUSH1 0x20 MSTORE PUSH1 0x40 PUSH1 0x0 KECCAK256 PUSH2 0xDFF DUP3 DUP3 SLOAD PUSH2 0x1DE2 JUMP JUMPDEST SWAP1 SSTORE PUSH1 0x40 MLOAD SWAP2 DUP3 MSTORE PUSH1 0x20 DUP3 ADD MSTORE PUSH32 0x96CD817C6329656790EF8FBA7675405193677D39619571282F5E21F3A98CD059 PUSH1 0x40 CALLER SWAP3 LOG2 PUSH1 0x1 DUP1 SSTORE STOP JUMPDEST PUSH1 0x40 MLOAD PUSH3 0x461BCD PUSH1 0xE5 SHL DUP2 MSTORE PUSH1 0x20 PUSH1 0x4 DUP3 ADD MSTORE PUSH1 0x11 PUSH1 0x24 DUP3 ADD MSTORE PUSH17 0x105B5BDD5B9D1CC81D1BDBC81CDB585B1B PUSH1 0x7A SHL PUSH1 0x44 DUP3 ADD MSTORE PUSH1 0x64 SWAP1 REVERT JUMPDEST POP DUP2 ISZERO ISZERO PUSH2 0xD7E JUMP JUMPDEST PUSH1 0x40 MLOAD PUSH3 0x461BCD PUSH1 0xE5 SHL DUP2 MSTORE PUSH1 0x20 PUSH1 0x4 DUP3 ADD MSTORE PUSH1 0x13 PUSH1 0x24 DUP3 ADD MSTORE PUSH19 0x496E73756666696369656E7420736861726573 PUSH1 0x68 SHL PUSH1 0x44 DUP3 ADD MSTORE PUSH1 0x64 SWAP1 REVERT JUMPDEST CALLVALUE PUSH2 0x1F5 JUMPI PUSH1 0x0 CALLDATASIZE PUSH1 0x3 NOT ADD SLT PUSH2 0x1F5 JUMPI PUSH1 0x20 PUSH1 0xA SLOAD PUSH1 0x40 MLOAD SWAP1 DUP2 MSTORE RETURN JUMPDEST CALLVALUE PUSH2 0x1F5 JUMPI PUSH1 0x0 CALLDATASIZE PUSH1 0x3 NOT ADD SLT PUSH2 0x1F5 JUMPI PUSH1 0x20 PUSH1 0x3 SLOAD PUSH1 0x40 MLOAD SWAP1 DUP2 MSTORE RETURN JUMPDEST CALLVALUE PUSH2 0x1F5 JUMPI PUSH1 0x0 CALLDATASIZE PUSH1 0x3 NOT ADD SLT PUSH2 0x1F5 JUMPI PUSH1 0x0 SLOAD PUSH1 0x40 MLOAD PUSH1 0x1 PUSH1 0x1 PUSH1 0xA0 SHL SUB SWAP1 SWAP2 AND DUP2 MSTORE PUSH1 0x20 SWAP1 RETURN JUMPDEST CALLVALUE PUSH2 0x1F5 JUMPI PUSH1 0x20 CALLDATASIZE PUSH1 0x3 NOT ADD SLT PUSH2 0x1F5 JUMPI PUSH1 0x4 CALLDATALOAD PUSH1 0x0 MSTORE PUSH1 0xF PUSH1 0x20 MSTORE PUSH1 0x20 PUSH1 0x40 PUSH1 0x0 KECCAK256 SLOAD PUSH1 0x40 MLOAD SWAP1 DUP2 MSTORE RETURN JUMPDEST CALLVALUE PUSH2 0x1F5 JUMPI PUSH1 0x0 CALLDATASIZE PUSH1 0x3 NOT ADD SLT PUSH2 0x1F5 JUMPI PUSH1 0x20 PUSH1 0x11 SLOAD PUSH1 0x40 MLOAD SWAP1 DUP2 MSTORE RETURN JUMPDEST CALLVALUE PUSH2 0x1F5 JUMPI PUSH1 0x0 CALLDATASIZE PUSH1 0x3 NOT ADD SLT PUSH2 0x1F5 JUMPI PUSH1 0x20 PUSH1 0xD SLOAD PUSH1 0x40 MLOAD SWAP1 DUP2 MSTORE RETURN JUMPDEST CALLVALUE PUSH2 0x1F5 JUMPI PUSH1 0x40 CALLDATASIZE PUSH1 0x3 NOT ADD SLT PUSH2 0x1F5 JUMPI PUSH1 0x20 PUSH2 0xFA9 PUSH2 0xFA0 PUSH2 0x1D21 JUMP JUMPDEST PUSH1 0x24 CALLDATALOAD SWAP1 PUSH2 0x20DB JUMP JUMPDEST PUSH1 0x40 MLOAD SWAP1 DUP2 MSTORE RETURN JUMPDEST CALLVALUE PUSH2 0x1F5 JUMPI PUSH1 0x40 CALLDATASIZE PUSH1 0x3 NOT ADD SLT PUSH2 0x1F5 JUMPI PUSH2 0x1042 PUSH1 0x4 CALLDATALOAD PUSH2 0xFDD PUSH1 0x1 DUP1 PUSH1 0xA0 SHL SUB PUSH1 0x2 SLOAD AND CALLER EQ PUSH2 0x1F33 JUMP JUMPDEST PUSH1 0xD SLOAD PUSH1 0x0 MSTORE PUSH1 0xB PUSH1 0x20 MSTORE DUP1 PUSH1 0x40 PUSH1 0x0 KECCAK256 SSTORE PUSH1 0xD SLOAD PUSH1 0x0 MSTORE PUSH1 0xC PUSH1 0x20 MSTORE TIMESTAMP PUSH1 0x40 PUSH1 0x0 KECCAK256 SSTORE PUSH32 0xD94095E772153BC53343941705B59E466D4E8ACA1062AFE01193089D27FF3A7F PUSH1 0x60 PUSH1 0xD SLOAD SWAP3 PUSH1 0x40 MLOAD SWAP1 DUP5 DUP3 MSTORE PUSH1 0x20 DUP3 ADD MSTORE PUSH1 0x24 CALLDATALOAD PUSH1 0x40 DUP3 ADD MSTORE LOG1 PUSH2 0x2056 JUMP JUMPDEST PUSH1 0xD SSTORE STOP JUMPDEST CALLVALUE PUSH2 0x1F5 JUMPI PUSH1 0x0 CALLDATASIZE PUSH1 0x3 NOT ADD SLT PUSH2 0x1F5 JUMPI PUSH2 0x1060 PUSH2 0x215D JUMP JUMPDEST PUSH1 0x0 DUP1 SLOAD PUSH1 0x1 PUSH1 0x1 PUSH1 0xA0 SHL SUB NOT DUP2 AND DUP3 SSTORE PUSH1 0x1 PUSH1 0x1 PUSH1 0xA0 SHL SUB AND PUSH32 0x8BE0079C531659141344CD1FD0A4F28419497F9722A3DAAFE3B4186F6B6457E0 DUP3 DUP1 LOG3 STOP JUMPDEST CALLVALUE PUSH2 0x1F5 JUMPI PUSH1 0x20 CALLDATASIZE PUSH1 0x3 NOT ADD SLT PUSH2 0x1F5 JUMPI PUSH1 0x4 CALLDATALOAD PUSH2 0x10BC PUSH2 0x215D JUMP JUMPDEST PUSH2 0xE10 DUP2 GT PUSH2 0x10CA JUMPI PUSH1 0xE SSTORE STOP JUMPDEST PUSH1 0x40 MLOAD PUSH3 0x461BCD PUSH1 0xE5 SHL DUP2 MSTORE PUSH1 0x20 PUSH1 0x4 DUP3 ADD MSTORE PUSH1 0xE PUSH1 0x24 DUP3 ADD MSTORE PUSH14 0x44656C617920746F6F206C6F6E67 PUSH1 0x90 SHL PUSH1 0x44 DUP3 ADD MSTORE PUSH1 0x64 SWAP1 REVERT JUMPDEST CALLVALUE PUSH2 0x1F5 JUMPI PUSH1 0xC0 CALLDATASIZE PUSH1 0x3 NOT ADD SLT PUSH2 0x1F5 JUMPI PUSH1 0x24 CALLDATALOAD PUSH1 0x1 PUSH1 0x1 PUSH1 0x40 SHL SUB DUP2 GT PUSH2 0x1F5 JUMPI PUSH2 0x1130 SWAP1 CALLDATASIZE SWAP1 PUSH1 0x4 ADD PUSH2 0x1D30 JUMP JUMPDEST SWAP1 PUSH1 0x44 CALLDATALOAD PUSH1 0x1 PUSH1 0x1 PUSH1 0x40 SHL SUB DUP2 GT PUSH2 0x1F5 JUMPI PUSH2 0x1150 SWAP1 CALLDATASIZE SWAP1 PUSH1 0x4 ADD PUSH2 0x1D30 JUMP JUMPDEST SWAP2 SWAP1 PUSH1 0x64 CALLDATALOAD PUSH1 0x1 PUSH1 0x1 PUSH1 0x40 SHL SUB DUP2 GT PUSH2 0x1F5 JUMPI PUSH2 0x1171 SWAP1 CALLDATASIZE SWAP1 PUSH1 0x4 ADD PUSH2 0x1D30 JUMP JUMPDEST PUSH1 0x84 CALLDATALOAD PUSH1 0x1 PUSH1 0x1 PUSH1 0x40 SHL SUB DUP2 GT PUSH2 0x1F5 JUMPI PUSH2 0x1190 SWAP1 CALLDATASIZE SWAP1 PUSH1 0x4 ADD PUSH2 0x1D30 JUMP JUMPDEST SWAP1 SWAP2 PUSH1 0xA4 CALLDATALOAD PUSH1 0x1 PUSH1 0x1 PUSH1 0x40 SHL SUB DUP2 GT PUSH2 0x1F5 JUMPI PUSH2 0x11B1 SWAP1 CALLDATASIZE SWAP1 PUSH1 0x4 ADD PUSH2 0x1D30 JUMP JUMPDEST SWAP8 SWAP1 SWAP7 PUSH2 0x11C9 PUSH1 0x1 DUP1 PUSH1 0xA0 SHL SUB PUSH1 0x2 SLOAD AND CALLER EQ PUSH2 0x1F33 JUMP JUMPDEST PUSH2 0x11D1 PUSH2 0x2186 JUMP JUMPDEST PUSH1 0x4 CALLDATALOAD PUSH1 0x0 MSTORE PUSH1 0xC PUSH1 0x20 MSTORE PUSH2 0x11EE PUSH1 0x40 PUSH1 0x0 KECCAK256 SLOAD PUSH1 0xE SLOAD SWAP1 PUSH2 0x1DE2 JUMP JUMPDEST TIMESTAMP LT PUSH2 0x173B JUMPI PUSH1 0x4 CALLDATALOAD PUSH1 0x0 MSTORE PUSH1 0xB PUSH1 0x20 MSTORE PUSH1 0x40 PUSH1 0x0 KECCAK256 SLOAD ISZERO PUSH2 0x1700 JUMPI DUP2 DUP11 EQ DUP1 PUSH2 0x16F7 JUMPI JUMPDEST DUP1 PUSH2 0x16EE JUMPI JUMPDEST DUP1 PUSH2 0x16E5 JUMPI JUMPDEST ISZERO PUSH2 0x16A8 JUMPI PUSH1 0x4 CALLDATALOAD PUSH1 0x0 MSTORE PUSH1 0xF PUSH1 0x20 MSTORE PUSH1 0x40 PUSH1 0x0 KECCAK256 SWAP9 PUSH1 0x0 JUMPDEST DUP12 DUP2 LT PUSH2 0x1283 JUMPI PUSH32 0xD4C22493E0AAEC761DF8F89BEAC249A28E68282A4C072C247156D6CE537618C9 PUSH1 0x60 DUP14 DUP14 TIMESTAMP PUSH1 0x4 SSTORE SLOAD PUSH1 0x40 MLOAD SWAP2 PUSH1 0x4 CALLDATALOAD DUP4 MSTORE PUSH1 0x20 DUP4 ADD MSTORE PUSH1 0x40 DUP3 ADD MSTORE LOG1 PUSH1 0x1 DUP1 SSTORE STOP JUMPDEST PUSH2 0x1296 PUSH2 0x1291 DUP3 DUP15 DUP7 PUSH2 0x1F7F JUMP JUMPDEST PUSH2 0x1F8F JUMP JUMPDEST PUSH2 0x12A9 PUSH2 0x12A4 DUP4 DUP8 DUP14 PUSH2 0x1F7F JUMP JUMPDEST PUSH2 0x1FA3 JUMP JUMPDEST PUSH2 0x12B4 DUP4 DUP9 DUP13 PUSH2 0x1F7F JUMP JUMPDEST CALLDATALOAD PUSH2 0x12C0 DUP5 DUP11 DUP13 PUSH2 0x1F7F JUMP JUMPDEST CALLDATALOAD SWAP2 PUSH1 0x40 MLOAD SWAP4 PUSH2 0x12CF DUP6 PUSH2 0x1E9B JUMP JUMPDEST PUSH1 0x1 PUSH1 0x1 PUSH1 0xA0 SHL SUB AND DUP1 DUP6 MSTORE SWAP1 ISZERO ISZERO PUSH1 0x20 DUP1 DUP7 ADD SWAP2 DUP3 MSTORE PUSH1 0x40 DUP1 DUP8 ADD SWAP5 DUP6 MSTORE PUSH1 0x60 DUP1 DUP9 ADD SWAP7 DUP8 MSTORE PUSH1 0x0 PUSH1 0x80 SWAP9 DUP10 ADD SWAP1 DUP2 MSTORE DUP3 MLOAD SWAP4 DUP5 ADD SWAP6 DUP7 MSTORE SWAP4 MLOAD ISZERO ISZERO SWAP2 DUP4 ADD SWAP2 SWAP1 SWAP2 MSTORE SWAP4 MLOAD SWAP4 DUP2 ADD SWAP4 SWAP1 SWAP4 MSTORE SWAP3 MLOAD SWAP4 DUP3 ADD SWAP4 SWAP1 SWAP4 MSTORE SWAP1 MLOAD PUSH1 0xA0 DUP3 ADD MSTORE PUSH2 0x1339 DUP2 PUSH1 0xC0 DUP2 ADD PUSH2 0x7F0 JUMP JUMPDEST MLOAD SWAP1 KECCAK256 DUP3 DUP3 LT ISZERO PUSH2 0x1692 JUMPI DUP2 PUSH1 0x5 SHL DUP12 ADD CALLDATALOAD PUSH1 0x1E NOT DUP13 CALLDATASIZE SUB ADD DUP2 SLT ISZERO PUSH2 0x1F5 JUMPI DUP12 ADD PUSH1 0x1 PUSH1 0x1 PUSH1 0x40 SHL SUB DUP2 CALLDATALOAD GT PUSH2 0x1F5 JUMPI DUP1 CALLDATALOAD PUSH1 0x5 SHL CALLDATASIZE SUB PUSH1 0x20 DUP3 ADD SGT PUSH2 0x1F5 JUMPI DUP14 SWAP2 PUSH2 0x13A2 SWAP2 PUSH1 0x4 CALLDATALOAD PUSH1 0x0 MSTORE PUSH1 0xB PUSH1 0x20 MSTORE PUSH2 0x81A PUSH1 0x40 PUSH1 0x0 KECCAK256 SLOAD SWAP2 CALLDATASIZE SWAP1 PUSH1 0x20 DUP2 CALLDATALOAD SWAP2 ADD PUSH2 0x1FB0 JUMP JUMPDEST ISZERO PUSH2 0x1616 JUMPI PUSH2 0x1291 DUP3 PUSH2 0x13B5 SWAP3 DUP7 PUSH2 0x1F7F JUMP JUMPDEST PUSH2 0x13C3 PUSH2 0x12A4 DUP4 DUP8 DUP14 PUSH2 0x1F7F JUMP JUMPDEST PUSH2 0x13CE DUP4 DUP9 DUP13 PUSH2 0x1F7F JUMP JUMPDEST CALLDATALOAD PUSH2 0x13DA DUP5 DUP11 DUP13 PUSH2 0x1F7F JUMP JUMPDEST PUSH1 0x40 MLOAD PUSH4 0x26DA4271 PUSH1 0xE1 SHL DUP2 MSTORE PUSH1 0x1 PUSH1 0x1 PUSH1 0xA0 SHL SUB SWAP1 SWAP5 AND PUSH1 0x4 DUP6 ADD MSTORE SWAP2 ISZERO ISZERO PUSH1 0x24 DUP5 ADD MSTORE PUSH1 0x44 DUP4 ADD MSTORE CALLDATALOAD PUSH1 0x64 DUP3 ADD MSTORE PUSH1 0x20 DUP2 PUSH1 0x84 DUP2 PUSH1 0x0 ADDRESS GAS CALL SWAP1 PUSH1 0x0 DUP3 PUSH2 0x15E3 JUMPI JUMPDEST POP POP PUSH2 0x15B6 JUMPI PUSH1 0x1 PUSH1 0x0 PUSH1 0x3 RETURNDATASIZE GT PUSH2 0x15A8 JUMPI JUMPDEST PUSH4 0x8C379A0 EQ PUSH2 0x1456 JUMPI JUMPDEST PUSH2 0x144A JUMPI PUSH1 0x1 SWAP1 JUMPDEST ADD PUSH2 0x1238 JUMP JUMPDEST PUSH1 0x40 MLOAD RETURNDATASIZE PUSH1 0x0 DUP3 RETURNDATACOPY RETURNDATASIZE SWAP1 REVERT JUMPDEST PUSH2 0x145E PUSH2 0x2065 JUMP JUMPDEST DUP1 PUSH2 0x146A JUMPI JUMPDEST POP PUSH2 0x143C JUMP JUMPDEST SWAP1 POP PUSH1 0x0 SWAP1 DUP3 DUP3 MSTORE PUSH1 0x1 DUP14 ADD PUSH1 0x20 MSTORE PUSH1 0x40 DUP3 KECCAK256 PUSH1 0xFF NOT DUP2 SLOAD AND SWAP1 SSTORE DUP3 DUP3 MSTORE PUSH1 0x2 DUP14 ADD PUSH1 0x20 MSTORE PUSH1 0x40 DUP3 KECCAK256 SWAP1 DUP1 MLOAD SWAP1 PUSH1 0x1 PUSH1 0x1 PUSH1 0x40 SHL SUB DUP3 GT PUSH2 0x1594 JUMPI DUP2 SWAP1 PUSH2 0x14B1 DUP5 SLOAD PUSH2 0x2005 JUMP JUMPDEST PUSH1 0x1F DUP2 GT PUSH2 0x1559 JUMPI JUMPDEST POP PUSH1 0x20 SWAP1 PUSH1 0x1F DUP4 GT PUSH1 0x1 EQ PUSH2 0x14F6 JUMPI DUP6 SWAP3 PUSH2 0x14EB JUMPI JUMPDEST POP POP DUP2 PUSH1 0x1 SHL SWAP2 PUSH1 0x0 NOT SWAP1 PUSH1 0x3 SHL SHR NOT AND OR SWAP1 SSTORE JUMPDEST DUP14 PUSH2 0x1464 JUMP JUMPDEST ADD MLOAD SWAP1 POP CODESIZE DUP1 PUSH2 0x14D0 JUMP JUMPDEST DUP5 DUP7 MSTORE DUP2 DUP7 KECCAK256 SWAP3 POP PUSH1 0x1F NOT DUP5 AND DUP7 JUMPDEST DUP2 DUP2 LT PUSH2 0x1541 JUMPI POP SWAP1 DUP5 PUSH1 0x1 SWAP6 SWAP5 SWAP4 SWAP3 LT PUSH2 0x1528 JUMPI JUMPDEST POP POP POP DUP2 SHL ADD SWAP1 SSTORE PUSH2 0x14E5 JUMP JUMPDEST ADD MLOAD PUSH1 0x0 NOT PUSH1 0xF8 DUP5 PUSH1 0x3 SHL AND SHR NOT AND SWAP1 SSTORE CODESIZE DUP1 DUP1 PUSH2 0x151B JUMP JUMPDEST SWAP3 SWAP4 PUSH1 0x20 PUSH1 0x1 DUP2 SWAP3 DUP8 DUP7 ADD MLOAD DUP2 SSTORE ADD SWAP6 ADD SWAP4 ADD PUSH2 0x1505 JUMP JUMPDEST PUSH2 0x1584 SWAP1 DUP6 DUP8 MSTORE PUSH1 0x20 DUP8 KECCAK256 PUSH1 0x1F DUP6 ADD PUSH1 0x5 SHR DUP2 ADD SWAP2 PUSH1 0x20 DUP7 LT PUSH2 0x158A JUMPI JUMPDEST PUSH1 0x1F ADD PUSH1 0x5 SHR ADD SWAP1 PUSH2 0x203F JUMP JUMPDEST CODESIZE PUSH2 0x14BA JUMP JUMPDEST SWAP1 SWAP2 POP DUP2 SWAP1 PUSH2 0x1577 JUMP JUMPDEST PUSH4 0x4E487B71 PUSH1 0xE0 SHL DUP5 MSTORE PUSH1 0x41 PUSH1 0x4 MSTORE PUSH1 0x24 DUP5 REVERT JUMPDEST PUSH1 0x4 DUP2 DUP1 RETURNDATACOPY MLOAD PUSH1 0xE0 SHR PUSH2 0x1431 JUMP JUMPDEST DUP1 PUSH1 0x1 SWAP2 PUSH1 0x0 MSTORE DUP2 DUP13 ADD PUSH1 0x20 MSTORE PUSH1 0x40 PUSH1 0x0 KECCAK256 DUP3 PUSH1 0xFF NOT DUP3 SLOAD AND OR SWAP1 SSTORE PUSH2 0x15DC DUP13 SLOAD PUSH2 0x2056 JUMP JUMPDEST DUP13 SSTORE PUSH2 0x1444 JUMP JUMPDEST PUSH1 0x20 DUP3 RETURNDATASIZE DUP3 GT PUSH2 0x160E JUMPI JUMPDEST DUP2 PUSH2 0x15FB PUSH1 0x20 SWAP4 DUP4 PUSH2 0x1EB6 JUMP JUMPDEST DUP2 ADD SUB SLT PUSH2 0x160B JUMPI POP MLOAD DUP15 PUSH2 0x141E JUMP JUMPDEST DUP1 REVERT JUMPDEST RETURNDATASIZE SWAP2 POP PUSH2 0x15EE JUMP JUMPDEST POP DUP1 PUSH1 0x1 SWAP2 PUSH1 0x0 MSTORE DUP2 DUP13 ADD PUSH1 0x20 MSTORE PUSH1 0x40 PUSH1 0x0 KECCAK256 PUSH1 0xFF NOT DUP2 SLOAD AND SWAP1 SSTORE DUP1 PUSH1 0x0 MSTORE PUSH1 0x2 DUP13 ADD PUSH1 0x20 MSTORE PUSH1 0x40 PUSH1 0x0 KECCAK256 PUSH2 0x164B DUP2 SLOAD PUSH2 0x2005 JUMP JUMPDEST PUSH1 0x1F DUP2 GT PUSH2 0x1670 JUMPI JUMPDEST POP PUSH1 0x1A PUSH13 0x24B73B30B634B210383937B7B3 PUSH1 0x99 SHL ADD SWAP1 SSTORE PUSH2 0x1444 JUMP JUMPDEST PUSH2 0x168C SWAP1 DUP3 PUSH1 0x0 MSTORE PUSH1 0x1F PUSH1 0x20 PUSH1 0x0 KECCAK256 SWAP2 ADD PUSH1 0x5 SHR DUP2 ADD SWAP1 PUSH2 0x203F JUMP JUMPDEST DUP15 PUSH2 0x1654 JUMP JUMPDEST PUSH4 0x4E487B71 PUSH1 0xE0 SHL PUSH1 0x0 MSTORE PUSH1 0x32 PUSH1 0x4 MSTORE PUSH1 0x24 PUSH1 0x0 REVERT JUMPDEST PUSH1 0x40 MLOAD PUSH3 0x461BCD PUSH1 0xE5 SHL DUP2 MSTORE PUSH1 0x20 PUSH1 0x4 DUP3 ADD MSTORE PUSH1 0x15 PUSH1 0x24 DUP3 ADD MSTORE PUSH21 0x82E4E4C2F240D8CADCCEE8D040DAD2E6DAC2E8C6D PUSH1 0x5B SHL PUSH1 0x44 DUP3 ADD MSTORE PUSH1 0x64 SWAP1 REVERT JUMPDEST POP DUP9 DUP11 EQ PUSH2 0x121F JUMP JUMPDEST POP DUP4 DUP11 EQ PUSH2 0x1219 JUMP JUMPDEST POP DUP3 DUP11 EQ PUSH2 0x1213 JUMP JUMPDEST PUSH1 0x40 MLOAD PUSH3 0x461BCD PUSH1 0xE5 SHL DUP2 MSTORE PUSH1 0x20 PUSH1 0x4 DUP3 ADD MSTORE PUSH1 0x13 PUSH1 0x24 DUP3 ADD MSTORE PUSH19 0x10985D18DA081B9BDD0818DBDB5B5A5D1D1959 PUSH1 0x6A SHL PUSH1 0x44 DUP3 ADD MSTORE PUSH1 0x64 SWAP1 REVERT JUMPDEST PUSH1 0x40 MLOAD PUSH3 0x461BCD PUSH1 0xE5 SHL DUP2 MSTORE PUSH1 0x20 PUSH1 0x4 DUP3 ADD MSTORE PUSH1 0x16 PUSH1 0x24 DUP3 ADD MSTORE PUSH22 0x135D5CDD081DD85A5D0818599D195C8818DBDB5B5A5D PUSH1 0x52 SHL PUSH1 0x44 DUP3 ADD MSTORE PUSH1 0x64 SWAP1 REVERT JUMPDEST CALLVALUE PUSH2 0x1F5 JUMPI PUSH1 0x20 CALLDATASIZE PUSH1 0x3 NOT ADD SLT PUSH2 0x1F5 JUMPI PUSH1 0x4 CALLDATALOAD PUSH1 0x0 PUSH1 0x20 PUSH1 0x1 DUP1 PUSH1 0xA0 SHL SUB PUSH1 0x7 SLOAD AND PUSH1 0x64 PUSH1 0x40 MLOAD DUP1 SWAP5 DUP2 SWAP4 PUSH4 0x23B872DD PUSH1 0xE0 SHL DUP4 MSTORE CALLER PUSH1 0x4 DUP5 ADD MSTORE ADDRESS PUSH1 0x24 DUP5 ADD MSTORE DUP8 PUSH1 0x44 DUP5 ADD MSTORE GAS CALL DUP1 ISZERO PUSH2 0x144A JUMPI PUSH2 0x17DB SWAP2 PUSH1 0x0 SWAP2 PUSH2 0x1831 JUMPI JUMPDEST POP PUSH2 0x1EEF JUMP JUMPDEST CALLER PUSH1 0x0 MSTORE PUSH1 0x6 PUSH1 0x20 MSTORE PUSH1 0x40 PUSH1 0x0 KECCAK256 PUSH2 0x17F4 DUP3 DUP3 SLOAD PUSH2 0x1DE2 JUMP JUMPDEST SWAP1 SSTORE PUSH1 0x40 MLOAD SWAP1 DUP2 MSTORE PUSH1 0x0 PUSH1 0x20 DUP3 ADD MSTORE TIMESTAMP PUSH1 0x40 DUP3 ADD MSTORE PUSH32 0xFA430E490A18C9D02A4C0BF501C1B5821A600E09249E983F8491C6575DD5E420 PUSH1 0x60 CALLER SWAP3 LOG2 STOP JUMPDEST PUSH2 0x1853 SWAP2 POP PUSH1 0x20 RETURNDATASIZE PUSH1 0x20 GT PUSH2 0x1859 JUMPI JUMPDEST PUSH2 0x184B DUP2 DUP4 PUSH2 0x1EB6 JUMP JUMPDEST DUP2 ADD SWAP1 PUSH2 0x1ED7 JUMP JUMPDEST DUP4 PUSH2 0x17D5 JUMP JUMPDEST POP RETURNDATASIZE PUSH2 0x1841 JUMP JUMPDEST CALLVALUE PUSH2 0x1F5 JUMPI PUSH1 0x0 CALLDATASIZE PUSH1 0x3 NOT ADD SLT PUSH2 0x1F5 JUMPI PUSH1 0x2 SLOAD PUSH1 0x40 MLOAD PUSH1 0x1 PUSH1 0x1 PUSH1 0xA0 SHL SUB SWAP1 SWAP2 AND DUP2 MSTORE PUSH1 0x20 SWAP1 RETURN JUMPDEST CALLVALUE PUSH2 0x1F5 JUMPI PUSH1 0x20 CALLDATASIZE PUSH1 0x3 NOT ADD SLT PUSH2 0x1F5 JUMPI PUSH1 0x4 CALLDATALOAD PUSH1 0x0 MSTORE PUSH1 0xC PUSH1 0x20 MSTORE PUSH1 0x20 PUSH1 0x40 PUSH1 0x0 KECCAK256 SLOAD PUSH1 0x40 MLOAD SWAP1 DUP2 MSTORE RETURN JUMPDEST CALLVALUE PUSH2 0x1F5 JUMPI PUSH1 0x20 CALLDATASIZE PUSH1 0x3 NOT ADD SLT PUSH2 0x1F5 JUMPI PUSH1 0x1 PUSH1 0x1 PUSH1 0xA0 SHL SUB PUSH2 0x18D6 PUSH2 0x1D0B JUMP JUMPDEST AND PUSH1 0x0 MSTORE PUSH1 0x6 PUSH1 0x20 MSTORE PUSH1 0x20 PUSH1 0x40 PUSH1 0x0 KECCAK256 SLOAD PUSH1 0x40 MLOAD SWAP1 DUP2 MSTORE RETURN JUMPDEST CALLVALUE PUSH2 0x1F5 JUMPI PUSH1 0x20 CALLDATASIZE PUSH1 0x3 NOT ADD SLT PUSH2 0x1F5 JUMPI PUSH1 0x4 CALLDATALOAD PUSH2 0x190B PUSH2 0x2186 JUMP JUMPDEST CALLER PUSH1 0x0 MSTORE PUSH1 0x6 PUSH1 0x20 MSTORE PUSH2 0x1925 DUP2 PUSH1 0x40 PUSH1 0x0 KECCAK256 SLOAD LT ISZERO PUSH2 0x1D76 JUMP JUMPDEST CALLER PUSH1 0x0 MSTORE PUSH1 0x6 PUSH1 0x20 MSTORE PUSH1 0x40 PUSH1 0x0 KECCAK256 PUSH2 0x193E DUP3 DUP3 SLOAD PUSH2 0x1DC2 JUMP JUMPDEST SWAP1 SSTORE PUSH1 0x7 SLOAD PUSH1 0x40 MLOAD PUSH4 0xA9059CBB PUSH1 0xE0 SHL DUP2 MSTORE CALLER PUSH1 0x4 DUP3 ADD MSTORE PUSH1 0x24 DUP2 ADD DUP4 SWAP1 MSTORE SWAP1 PUSH1 0x20 SWAP1 DUP3 SWAP1 PUSH1 0x44 SWAP1 DUP3 SWAP1 PUSH1 0x0 SWAP1 PUSH1 0x1 PUSH1 0x1 PUSH1 0xA0 SHL SUB AND GAS CALL DUP1 ISZERO PUSH2 0x144A JUMPI PUSH2 0x198D SWAP2 PUSH1 0x0 SWAP2 PUSH2 0x1831 JUMPI POP PUSH2 0x1EEF JUMP JUMPDEST PUSH1 0x40 MLOAD SWAP1 DUP2 MSTORE PUSH1 0x0 PUSH1 0x20 DUP3 ADD MSTORE PUSH32 0x6E0C61E7E9F4912EE1F3CE060B59207B98F9A232D711462AF3166AEEED1250A PUSH1 0x40 CALLER SWAP3 LOG2 PUSH1 0x1 DUP1 SSTORE STOP JUMPDEST CALLVALUE PUSH2 0x1F5 JUMPI PUSH1 0x80 CALLDATASIZE PUSH1 0x3 NOT ADD SLT PUSH2 0x1F5 JUMPI PUSH2 0x19DF PUSH2 0x1D0B JUMP JUMPDEST PUSH1 0x24 CALLDATALOAD DUP1 ISZERO ISZERO DUP2 SUB PUSH2 0x1F5 JUMPI PUSH1 0x44 CALLDATALOAD SWAP2 PUSH1 0x64 CALLDATALOAD SWAP2 ADDRESS CALLER SUB PUSH2 0x1BA3 JUMPI ISZERO PUSH2 0x1AD7 JUMPI PUSH1 0x1 PUSH1 0x1 PUSH1 0xA0 SHL SUB AND PUSH1 0x0 DUP2 DUP2 MSTORE PUSH1 0x5 PUSH1 0x20 MSTORE PUSH1 0x40 SWAP1 KECCAK256 SLOAD PUSH2 0x1A23 SWAP1 DUP5 GT ISZERO PUSH2 0x1E4F JUMP JUMPDEST PUSH1 0xA SLOAD PUSH2 0x3E8 SUB PUSH2 0x3E8 DUP2 GT PUSH2 0x5B5 JUMPI PUSH2 0x1A3D SWAP1 DUP5 PUSH2 0x1DCF JUMP JUMPDEST SWAP3 PUSH2 0x1A4A DUP5 PUSH1 0x9 SLOAD PUSH2 0x1DCF JUMP JUMPDEST SWAP2 PUSH1 0x8 SLOAD PUSH2 0x3E8 DUP2 MUL SWAP1 DUP1 DUP3 DIV PUSH2 0x3E8 EQ SWAP1 ISZERO OR ISZERO PUSH2 0x5B5 JUMPI PUSH2 0x1A79 PUSH2 0x1ABD SWAP5 PUSH2 0x50F PUSH1 0x20 SWAP9 PUSH2 0x1A82 SWAP5 PUSH2 0x1DE2 JUMP JUMPDEST SWAP5 DUP6 LT ISZERO PUSH2 0x1E0F JUMP JUMPDEST DUP1 PUSH1 0x0 MSTORE PUSH1 0x5 DUP6 MSTORE PUSH1 0x40 PUSH1 0x0 KECCAK256 PUSH2 0x1A9A DUP4 DUP3 SLOAD PUSH2 0x1DC2 JUMP JUMPDEST SWAP1 SSTORE PUSH1 0x0 MSTORE PUSH1 0x6 DUP5 MSTORE PUSH1 0x40 PUSH1 0x0 KECCAK256 PUSH2 0x1AB3 DUP5 DUP3 SLOAD PUSH2 0x1DE2 JUMP JUMPDEST SWAP1 SSTORE PUSH1 0x8 SLOAD PUSH2 0x1DE2 JUMP JUMPDEST PUSH1 0x8 SSTORE PUSH2 0x1ACC DUP2 PUSH1 0x9 SLOAD PUSH2 0x1DC2 JUMP JUMPDEST PUSH1 0x9 SSTORE PUSH1 0x40 MLOAD SWAP1 DUP2 MSTORE RETURN JUMPDEST PUSH1 0x1 PUSH1 0x1 PUSH1 0xA0 SHL SUB AND PUSH1 0x0 DUP2 DUP2 MSTORE PUSH1 0x6 PUSH1 0x20 MSTORE PUSH1 0x40 SWAP1 KECCAK256 SLOAD PUSH2 0x1AFB SWAP1 DUP5 GT ISZERO PUSH2 0x1D76 JUMP JUMPDEST PUSH1 0xA SLOAD PUSH2 0x3E8 SUB PUSH2 0x3E8 DUP2 GT PUSH2 0x5B5 JUMPI PUSH2 0x1B15 SWAP1 DUP5 PUSH2 0x1DCF JUMP JUMPDEST SWAP3 PUSH2 0x1B22 DUP5 PUSH1 0x8 SLOAD PUSH2 0x1DCF JUMP JUMPDEST SWAP2 PUSH1 0x9 SLOAD PUSH2 0x3E8 DUP2 MUL SWAP1 DUP1 DUP3 DIV PUSH2 0x3E8 EQ SWAP1 ISZERO OR ISZERO PUSH2 0x5B5 JUMPI PUSH2 0x1A79 PUSH2 0x1B8C SWAP5 PUSH2 0x50F PUSH1 0x20 SWAP9 PUSH2 0x1B51 SWAP5 PUSH2 0x1DE2 JUMP JUMPDEST DUP1 PUSH1 0x0 MSTORE PUSH1 0x6 DUP6 MSTORE PUSH1 0x40 PUSH1 0x0 KECCAK256 PUSH2 0x1B69 DUP4 DUP3 SLOAD PUSH2 0x1DC2 JUMP JUMPDEST SWAP1 SSTORE PUSH1 0x0 MSTORE PUSH1 0x5 DUP5 MSTORE PUSH1 0x40 PUSH1 0x0 KECCAK256 PUSH2 0x1B82 DUP5 DUP3 SLOAD PUSH2 0x1DE2 JUMP JUMPDEST SWAP1 SSTORE PUSH1 0x9 SLOAD PUSH2 0x1DE2 JUMP JUMPDEST PUSH1 0x9 SSTORE PUSH2 0x1B9B DUP2 PUSH1 0x8 SLOAD PUSH2 0x1DC2 JUMP JUMPDEST PUSH1 0x8 SSTORE PUSH2 0xFA9 JUMP JUMPDEST PUSH1 0x40 MLOAD PUSH3 0x461BCD PUSH1 0xE5 SHL DUP2 MSTORE PUSH1 0x20 PUSH1 0x4 DUP3 ADD MSTORE PUSH1 0x18 PUSH1 0x24 DUP3 ADD MSTORE PUSH32 0x4F6E6C792063616C6C61626C6520696E7465726E616C6C790000000000000000 PUSH1 0x44 DUP3 ADD MSTORE PUSH1 0x64 SWAP1 REVERT JUMPDEST CALLVALUE PUSH2 0x1F5 JUMPI PUSH1 0x20 CALLDATASIZE PUSH1 0x3 NOT ADD SLT PUSH2 0x1F5 JUMPI PUSH1 0x4 CALLDATALOAD PUSH2 0x1C04 PUSH2 0x215D JUMP JUMPDEST PUSH1 0x32 DUP2 GT PUSH2 0x1C11 JUMPI PUSH1 0xA SSTORE STOP JUMPDEST PUSH1 0x40 MLOAD PUSH3 0x461BCD PUSH1 0xE5 SHL DUP2 MSTORE PUSH1 0x20 PUSH1 0x4 DUP3 ADD MSTORE PUSH1 0xC PUSH1 0x24 DUP3 ADD MSTORE PUSH12 0x8CCACA40E8DEDE40D0D2CED PUSH1 0xA3 SHL PUSH1 0x44 DUP3 ADD MSTORE PUSH1 0x64 SWAP1 REVERT JUMPDEST CALLVALUE PUSH2 0x1F5 JUMPI PUSH1 0x20 CALLDATASIZE PUSH1 0x3 NOT ADD SLT PUSH2 0x1F5 JUMPI PUSH1 0x1 PUSH1 0x1 PUSH1 0xA0 SHL SUB PUSH2 0x1C66 PUSH2 0x1D0B JUMP JUMPDEST AND PUSH1 0x0 MSTORE PUSH1 0x5 PUSH1 0x20 MSTORE PUSH1 0x20 PUSH1 0x40 PUSH1 0x0 KECCAK256 SLOAD PUSH1 0x40 MLOAD SWAP1 DUP2 MSTORE RETURN JUMPDEST CALLVALUE PUSH2 0x1F5 JUMPI PUSH1 0x20 CALLDATASIZE PUSH1 0x3 NOT ADD SLT PUSH2 0x1F5 JUMPI PUSH2 0x1C98 PUSH2 0x1D0B JUMP JUMPDEST PUSH2 0x1CA0 PUSH2 0x215D JUMP JUMPDEST PUSH1 0x2 SLOAD PUSH1 0x1 PUSH1 0x1 PUSH1 0xA0 SHL SUB SWAP2 DUP3 AND SWAP2 DUP3 SWAP1 DUP3 AND PUSH32 0x6EC88BAE255AA7E73521C3BEB17E9BC7940169E669440C5531733C0D2E91110D PUSH1 0x0 DUP1 LOG3 PUSH1 0x1 PUSH1 0x1 PUSH1 0xA0 SHL SUB NOT AND OR PUSH1 0x2 SSTORE STOP JUMPDEST CALLVALUE PUSH2 0x1F5 JUMPI PUSH1 0x0 CALLDATASIZE PUSH1 0x3 NOT ADD SLT PUSH2 0x1F5 JUMPI PUSH1 0x20 SWAP1 PUSH1 0xFF PUSH1 0x2 SLOAD PUSH1 0xA0 SHR AND ISZERO ISZERO DUP2 MSTORE RETURN JUMPDEST PUSH1 0x4 CALLDATALOAD SWAP1 PUSH1 0x1 PUSH1 0x1 PUSH1 0xA0 SHL SUB DUP3 AND DUP3 SUB PUSH2 0x1F5 JUMPI JUMP JUMPDEST PUSH1 0x4 CALLDATALOAD SWAP1 DUP2 ISZERO ISZERO DUP3 SUB PUSH2 0x1F5 JUMPI JUMP JUMPDEST SWAP2 DUP2 PUSH1 0x1F DUP5 ADD SLT ISZERO PUSH2 0x1F5 JUMPI DUP3 CALLDATALOAD SWAP2 PUSH1 0x1 PUSH1 0x1 PUSH1 0x40 SHL SUB DUP4 GT PUSH2 0x1F5 JUMPI PUSH1 0x20 DUP1 DUP6 ADD SWAP5 DUP5 PUSH1 0x5 SHL ADD ADD GT PUSH2 0x1F5 JUMPI JUMP JUMPDEST PUSH1 0x40 SWAP1 PUSH1 0x3 NOT ADD SLT PUSH2 0x1F5 JUMPI PUSH1 0x4 CALLDATALOAD SWAP1 PUSH1 0x24 CALLDATALOAD SWAP1 JUMP JUMPDEST ISZERO PUSH2 0x1D7D JUMPI JUMP JUMPDEST PUSH1 0x40 MLOAD PUSH3 0x461BCD PUSH1 0xE5 SHL DUP2 MSTORE PUSH1 0x20 PUSH1 0x4 DUP3 ADD MSTORE PUSH1 0x1A PUSH1 0x24 DUP3 ADD MSTORE PUSH32 0x496E73756666696369656E7420746F6B656E2062616C616E6365000000000000 PUSH1 0x44 DUP3 ADD MSTORE PUSH1 0x64 SWAP1 REVERT JUMPDEST SWAP2 SWAP1 DUP3 SUB SWAP2 DUP3 GT PUSH2 0x5B5 JUMPI JUMP JUMPDEST DUP2 DUP2 MUL SWAP3 SWAP2 DUP2 ISZERO SWAP2 DUP5 DIV EQ OR ISZERO PUSH2 0x5B5 JUMPI JUMP JUMPDEST SWAP2 SWAP1 DUP3 ADD DUP1 SWAP3 GT PUSH2 0x5B5 JUMPI JUMP JUMPDEST DUP2 ISZERO PUSH2 0x1DF9 JUMPI DIV SWAP1 JUMP JUMPDEST PUSH4 0x4E487B71 PUSH1 0xE0 SHL PUSH1 0x0 MSTORE PUSH1 0x12 PUSH1 0x4 MSTORE PUSH1 0x24 PUSH1 0x0 REVERT JUMPDEST ISZERO PUSH2 0x1E16 JUMPI JUMP JUMPDEST PUSH1 0x40 MLOAD PUSH3 0x461BCD PUSH1 0xE5 SHL DUP2 MSTORE PUSH1 0x20 PUSH1 0x4 DUP3 ADD MSTORE PUSH1 0x11 PUSH1 0x24 DUP3 ADD MSTORE PUSH17 0xA6D8D2E0E0C2CECA40E8DEDE40D0D2CED PUSH1 0x7B SHL PUSH1 0x44 DUP3 ADD MSTORE PUSH1 0x64 SWAP1 REVERT JUMPDEST ISZERO PUSH2 0x1E56 JUMPI JUMP JUMPDEST PUSH1 0x40 MLOAD PUSH3 0x461BCD PUSH1 0xE5 SHL DUP2 MSTORE PUSH1 0x20 PUSH1 0x4 DUP3 ADD MSTORE PUSH1 0x18 PUSH1 0x24 DUP3 ADD MSTORE PUSH32 0x496E73756666696369656E74204554482062616C616E63650000000000000000 PUSH1 0x44 DUP3 ADD MSTORE PUSH1 0x64 SWAP1 REVERT JUMPDEST PUSH1 0xA0 DUP2 ADD SWAP1 DUP2 LT PUSH1 0x1 PUSH1 0x1 PUSH1 0x40 SHL SUB DUP3 GT OR PUSH2 0x3F0 JUMPI PUSH1 0x40 MSTORE JUMP JUMPDEST SWAP1 PUSH1 0x1F DUP1 NOT SWAP2 ADD AND DUP2 ADD SWAP1 DUP2 LT PUSH1 0x1 PUSH1 0x1 PUSH1 0x40 SHL SUB DUP3 GT OR PUSH2 0x3F0 JUMPI PUSH1 0x40 MSTORE JUMP JUMPDEST SWAP1 DUP2 PUSH1 0x20 SWAP2 SUB SLT PUSH2 0x1F5 JUMPI MLOAD DUP1 ISZERO ISZERO DUP2 SUB PUSH2 0x1F5 JUMPI SWAP1 JUMP JUMPDEST ISZERO PUSH2 0x1EF6 JUMPI JUMP JUMPDEST PUSH1 0x40 MLOAD PUSH3 0x461BCD PUSH1 0xE5 SHL DUP2 MSTORE PUSH1 0x20 PUSH1 0x4 DUP3 ADD MSTORE PUSH1 0x15 PUSH1 0x24 DUP3 ADD MSTORE PUSH21 0x151BDAD95B881D1C985B9CD9995C8819985A5B1959 PUSH1 0x5A SHL PUSH1 0x44 DUP3 ADD MSTORE PUSH1 0x64 SWAP1 REVERT JUMPDEST ISZERO PUSH2 0x1F3A JUMPI JUMP JUMPDEST PUSH1 0x40 MLOAD PUSH3 0x461BCD PUSH1 0xE5 SHL DUP2 MSTORE PUSH1 0x20 PUSH1 0x4 DUP3 ADD MSTORE PUSH1 0x17 PUSH1 0x24 DUP3 ADD MSTORE PUSH32 0x4F6E6C792073657175656E6365722063616E2063616C6C000000000000000000 PUSH1 0x44 DUP3 ADD MSTORE PUSH1 0x64 SWAP1 REVERT JUMPDEST SWAP2 SWAP1 DUP2 LT ISZERO PUSH2 0x1692 JUMPI PUSH1 0x5 SHL ADD SWAP1 JUMP JUMPDEST CALLDATALOAD PUSH1 0x1 PUSH1 0x1 PUSH1 0xA0 SHL SUB DUP2 AND DUP2 SUB PUSH2 0x1F5 JUMPI SWAP1 JUMP JUMPDEST CALLDATALOAD DUP1 ISZERO ISZERO DUP2 SUB PUSH2 0x1F5 JUMPI SWAP1 JUMP JUMPDEST SWAP3 SWAP2 SWAP1 SWAP3 PUSH1 0x1 PUSH1 0x1 PUSH1 0x40 SHL SUB DUP5 GT PUSH2 0x3F0 JUMPI DUP4 PUSH1 0x5 SHL SWAP1 PUSH1 0x20 PUSH1 0x40 MLOAD PUSH2 0x1FD8 DUP3 DUP6 ADD DUP3 PUSH2 0x1EB6 JUMP JUMPDEST DUP1 SWAP7 DUP2 MSTORE ADD SWAP2 DUP2 ADD SWAP3 DUP4 GT PUSH2 0x1F5 JUMPI SWAP1 JUMPDEST DUP3 DUP3 LT PUSH2 0x1FF5 JUMPI POP POP POP JUMP JUMPDEST DUP2 CALLDATALOAD DUP2 MSTORE PUSH1 0x20 SWAP2 DUP3 ADD SWAP2 ADD PUSH2 0x1FE9 JUMP JUMPDEST SWAP1 PUSH1 0x1 DUP3 DUP2 SHR SWAP3 AND DUP1 ISZERO PUSH2 0x2035 JUMPI JUMPDEST PUSH1 0x20 DUP4 LT EQ PUSH2 0x201F JUMPI JUMP JUMPDEST PUSH4 0x4E487B71 PUSH1 0xE0 SHL PUSH1 0x0 MSTORE PUSH1 0x22 PUSH1 0x4 MSTORE PUSH1 0x24 PUSH1 0x0 REVERT JUMPDEST SWAP2 PUSH1 0x7F AND SWAP2 PUSH2 0x2014 JUMP JUMPDEST DUP2 DUP2 LT PUSH2 0x204A JUMPI POP POP JUMP JUMPDEST PUSH1 0x0 DUP2 SSTORE PUSH1 0x1 ADD PUSH2 0x203F JUMP JUMPDEST PUSH1 0x0 NOT DUP2 EQ PUSH2 0x5B5 JUMPI PUSH1 0x1 ADD SWAP1 JUMP JUMPDEST PUSH1 0x0 PUSH1 0x44 RETURNDATASIZE LT PUSH2 0x20CA JUMPI PUSH1 0x40 MLOAD RETURNDATASIZE PUSH1 0x3 NOT ADD PUSH1 0x4 DUP3 RETURNDATACOPY DUP1 MLOAD SWAP2 RETURNDATASIZE PUSH1 0x24 DUP5 ADD GT PUSH1 0x1 PUSH1 0x1 PUSH1 0x40 SHL SUB DUP5 GT OR PUSH2 0x20D5 JUMPI DUP3 DUP3 ADD SWAP3 DUP4 MLOAD SWAP2 PUSH1 0x1 PUSH1 0x1 PUSH1 0x40 SHL SUB DUP4 GT PUSH2 0x20CD JUMPI RETURNDATASIZE DUP5 ADD PUSH1 0x3 NOT ADD DUP6 DUP5 ADD PUSH1 0x20 ADD GT PUSH2 0x20CD JUMPI POP PUSH2 0x20CA SWAP3 SWAP2 ADD PUSH1 0x20 ADD SWAP1 PUSH2 0x1EB6 JUMP JUMPDEST SWAP1 JUMP JUMPDEST SWAP5 SWAP4 POP POP POP POP JUMP JUMPDEST SWAP3 SWAP2 POP POP JUMP JUMPDEST SWAP1 PUSH1 0xA SLOAD PUSH2 0x3E8 SUB PUSH2 0x3E8 DUP2 GT PUSH2 0x5B5 JUMPI PUSH2 0x20F5 SWAP2 PUSH2 0x1DCF JUMP JUMPDEST SWAP1 ISZERO PUSH2 0x212C JUMPI PUSH2 0x2107 DUP2 PUSH1 0x9 SLOAD PUSH2 0x1DCF JUMP JUMPDEST PUSH1 0x8 SLOAD PUSH2 0x3E8 DUP2 MUL SWAP1 DUP1 DUP3 DIV PUSH2 0x3E8 EQ SWAP1 ISZERO OR ISZERO PUSH2 0x5B5 JUMPI PUSH2 0x20CA SWAP3 PUSH2 0x50F SWAP2 PUSH2 0x1DE2 JUMP JUMPDEST PUSH2 0x2138 DUP2 PUSH1 0x8 SLOAD PUSH2 0x1DCF JUMP JUMPDEST PUSH1 0x9 SLOAD PUSH2 0x3E8 DUP2 MUL SWAP1 DUP1 DUP3 DIV PUSH2 0x3E8 EQ SWAP1 ISZERO OR ISZERO PUSH2 0x5B5 JUMPI PUSH2 0x20CA SWAP3 PUSH2 0x50F SWAP2 PUSH2 0x1DE2 JUMP JUMPDEST PUSH1 0x0 SLOAD PUSH1 0x1 PUSH1 0x1 PUSH1 0xA0 SHL SUB AND CALLER SUB PUSH2 0x2171 JUMPI JUMP JUMPDEST PUSH4 0x118CDAA7 PUSH1 0xE0 SHL PUSH1 0x0 MSTORE CALLER PUSH1 0x4 MSTORE PUSH1 0x24 PUSH1 0x0 REVERT JUMPDEST PUSH1 0x2 PUSH1 0x1 SLOAD EQ PUSH2 0x2197 JUMPI PUSH1 0x2 PUSH1 0x1 SSTORE JUMP JUMPDEST PUSH4 0x3EE5AEB5 PUSH1 0xE0 SHL PUSH1 0x0 MSTORE PUSH1 0x4 PUSH1 0x0 REVERT JUMPDEST SWAP3 SWAP1 SWAP2 SWAP1 PUSH1 0x0 SWAP2 JUMPDEST DUP5 MLOAD DUP4 LT ISZERO PUSH2 0x21F1 JUMPI PUSH1 0x40 PUSH1 0x1 SWAP2 PUSH1 0x0 SWAP1 PUSH1 0x20 DUP7 PUSH1 0x5 SHL DUP10 ADD ADD MLOAD SWAP1 DUP2 DUP2 LT PUSH1 0x0 EQ PUSH2 0x21E5 JUMPI DUP3 MSTORE PUSH1 0x20 MSTORE KECCAK256 JUMPDEST SWAP3 ADD SWAP2 PUSH2 0x21B0 JUMP JUMPDEST SWAP1 DUP3 MSTORE PUSH1 0x20 MSTORE KECCAK256 PUSH2 0x21DD JUMP JUMPDEST SWAP2 POP SWAP3 POP EQ SWAP1 JUMP INVALID LOG2 PUSH5 0x6970667358 0x22 SLT KECCAK256 0xA6 0xCC PUSH1 0x5F SWAP16 SGT PUSH3 0x659E64 PUSH24 0x770D35CDB7F26172A8773CCF769B9E1F0EB0C0E03864736F PUSH13 0x634300081C0033000000000000 "},"methodIdentifiers":{"FEE_DENOMINATOR()":"d73792a9","addLiquidity(uint256,uint256)":"9cd441da","batchIntentRoots(uint256)":"c13c0ea5","batchResults(uint256)":"88da2b2d","batchSubmissionTimes(uint256)":"54cc3c74","batchSwap(uint256,address[],bool[],uint256[],uint256[],bytes32[][])":"6868bab5","commitBatchIntents(bytes32,uint256)":"80a4f6df","commitRevealDelay()":"e71bfdc0","depositETH()":"f6326fb3","depositToken(uint256)":"6215be77","emergencyDisableSequencer()":"a03fd9c2","ethBalances(address)":"3cfba0e3","ethReserve()":"d62ccb3f","executeSwap(address,bool,uint256,uint256)":"4db484e2","fallbackSwap(bool,uint256,uint256)":"d5e10708","feeRate()":"978bbdb9","getAmountOut(bool,uint256)":"8290d9b8","getSwapResult(uint256,uint256)":"b0b9b66a","lastBatchTimestamp()":"b7afe9be","liquidityShares(address)":"9db4aa04","maxBatchDelay()":"9729cc05","nextBatchId()":"8462a7f8","owner()":"8da5cb5b","removeLiquidity(uint256)":"9c8f9f23","renounceOwnership()":"715018a6","sequencer()":"5c1bba38","sequencerOnly()":"17d6263f","setCommitRevealDelay(uint256)":"6b27e2bb","setFeeRate(uint256)":"45596e2e","setSequencer(address)":"2547fa3e","setSequencerOnly(bool)":"c901510b","token()":"fc0c546a","tokenBalances(address)":"523fba7f","tokenReserve()":"cbcb3171","totalLiquidityShares()":"87cd5b20","transferOwnership(address)":"f2fde38b","verifySwapInclusion(uint256,address,bool,uint256,uint256,bytes32[])":"cb29fdc7","withdrawETH(uint256)":"f14210a6","withdrawToken(uint256)":"50baa622"}}}}}