{"contracts/YourAMM.sol":{"YourAMM":{"abi":[{"inputs":[],"name":"depositETH","outputs":[],"stateMutability":"payable","type":"function"},{"inputs":[{"internalType":"uint256","name":"amount","type":"uint256"}],"name":"withdrawETH","outputs":[],"stateMutability":"nonpayable","type":"function"}],"evm":{"bytecode":{"linkReferences":{},"object":"6080806040523460145760f6908161001a8239f35b600080fdfe6080806040526004361015601257600080fd5b60003560e01c908163f14210a6146044575063f6326fb314603257600080fd5b6000366003190112603f57005b600080fd5b34603f576020366003190112603f5760043590814710608757600080808085818115607f575b3390f115607357005b6040513d6000823e3d90fd5b506108fc606a565b62461bcd60e51b8152602060048201526014602482015273496e73756666696369656e742062616c616e636560601b6044820152606490fdfea264697066735822122044e61454c8b2d7e0e12286843f0055ee0eb4a8f5df157e173183907934ce93df64736f6c634300081c0033","opcodes":"PUSH1 0x80 DUP1 PUSH1 0x40 MSTORE CALLVALUE PUSH1 0x14 JUMPI PUSH1 0xF6 SWAP1 DUP2 PUSH2 0x1A DUP3 CODECOPY RETURN JUMPDEST PUSH1 0x0 DUP1 REVERT INVALID PUSH1 0x80 DUP1 PUSH1 0x40 MSTORE PUSH1 0x4 CALLDATASIZE LT ISZERO PUSH1 0x12 JUMPI PUSH1 0x0 DUP1 REVERT JUMPDEST PUSH1 0x0 CALLDATALOAD PUSH1 0xE0 SHR SWAP1 DUP2 PUSH4 0xF14210A6 EQ PUSH1 0x44 JUMPI POP PUSH4 0xF6326FB3 EQ PUSH1 0x32 JUMPI PUSH1 0x0 DUP1 REVERT JUMPDEST PUSH1 0x0 CALLDATASIZE PUSH1 0x3 NOT ADD SLT PUSH1 0x3F JUMPI STOP JUMPDEST PUSH1 0x0 DUP1 REVERT JUMPDEST CALLVALUE PUSH1 0x3F JUMPI PUSH1 0x20 CALLDATASIZE PUSH1 0x3 NOT ADD SLT PUSH1 0x3F JUMPI PUSH1 0x4 CALLDATALOAD SWAP1 DUP2 SELFBALANCE LT PUSH1 0x87 JUMPI PUSH1 0x0 DUP1 DUP1 DUP1 DUP6 DUP2 DUP2 ISZERO PUSH1 0x7F JUMPI JUMPDEST CALLER SWAP1 CALL ISZERO PUSH1 0x73 JUMPI STOP JUMPDEST PUSH1 0x40 MLOAD RETURNDATASIZE PUSH1 0x0 DUP3 RETURNDATACOPY RETURNDATASIZE SWAP1 REVERT JUMPDEST POP PUSH2 0x8FC PUSH1 0x6A JUMP JUMPDEST PUSH3 0x461BCD PUSH1 0xE5 SHL DUP2 MSTORE PUSH1 0x20 PUSH1 0x4 DUP3 ADD MSTORE PUSH1 0x14 PUSH1 0x24 DUP3 ADD MSTORE PUSH20 0x496E73756666696369656E742062616C616E6365 PUSH1 0x60 SHL PUSH1 0x44 DUP3 ADD MSTORE PUSH1 0x64 SWAP1 REVERT INVALID LOG2 PUSH5 0x6970667358 0x22 SLT KECCAK256 PREVRANDAO 0xE6 EQ SLOAD 0xC8 0xB2 0xD7 0xE0 0xE1 0x22 DUP7 DUP5 EXTCODEHASH STOP SSTORE 0xEE 0xE 0xB4 0xA8 CREATE2 0xDF ISZERO PUSH31 0x173183907934CE93DF64736F6C634300081C00330000000000000000000000 "},"methodIdentifiers":{"depositETH()":"f6326fb3","withdrawETH(uint256)":"f14210a6"}}}}}